:020000040800F2
:10000000C04E012019250008212000080525000800
:10001000052500080525000805250008000000004A
:10002000000000000000000000000000D9250008CA
:10003000052500080000000079250008D5E6000825
:1000400095270008952700089527000895270008A0
:100050009527000895270008952700089527000890
:100060009527000895270008952700089527000880
:100070009527000895270008952700089527000870
:100080009527000895270008952700089527000860
:100090009527000895270008952700089527000850
:1000A0009527000895270008952700089527000840
:1000B0009527000895270008952700089527000830
:1000C0009527000895270008952700089527000820
:1000D0009527000895270008952700089527000810
:1000E0009527000895270008952700089527000800
:1000F00095270008952700089527000895270008F0
:1001000095270008952700089527000895270008DF
:1001100095270008952700089527000895270008CF
:1001200095270008952700089527000895270008BF
:1001300095270008952700089527000895270008AF
:10014000952700089527000895270008952700089F
:10015000952700089527000895270008952700088F
:10016000952700089527000895270008952700087F
:10017000952700089527000895270008952700086F
:10018000952700089527000895270008952700085F
:10019000952700089527000895270008952700084F
:1001A000952700089527000895270008952700083F
:1001B000952700089527000895270008952700082F
:0801C0009527000895270008AF
:1001D00001F0FF01102A2BDB10F0070F08D010F8F8
:1001E000013B013A8B422DD010F0070F42B3F6D1FC
:1001F000F0B441EA012141EA014122F007047FF015
:1002000000070023F0E80256083C85EA010586EA6B
:10021000010685FA47F5A3FA87F586FA47F6A5FAA7
:1002200087F68EB9EED1F0BC01F0FF0102F00702B3
:1002300032B110F8013B013A83EA010313B1F8D15E
:100240000020704701387047002D06BF354603383F
:10025000073815F0010F07D1013015F4807F02BF78
:10026000013015F4C03F0130F0BC0138704700BFC9
:100270007BB972B90029BEBF00204FF0004106E0F3
:1002800008BF00281CBF6FF000414FF0FF3000F0A6
:1002900057B8ADF1080C6DE904CE002909DB002B3D
:1002A0001ADB00F057F8DDF804E0DDE9022304B0C2
:1002B0007047404261EB4101002B1BDB00F04AF824
:1002C000DDF804E0DDE9022304B0404261EB4101C6
:1002D000524263EB43037047524263EB430300F027
:1002E00039F8DDF804E0DDE9022304B0404261EBB7
:1002F00041017047524263EB430300F02BF8DDF8F5
:1003000004E0DDE9022304B0524263EB430370478B
:1003100053B94AB9002908BF00281CBF4FF0FF316C
:100320004FF0FF3000F00CB8ADF1080C6DE904CED1
:1003300000F010F8DDF804E0DDE9022304B07047B6
:10034000704700BF034613F8012B002AFBD1181A8F
:10035000013870472DE9F04786468C460846089ECE
:10036000154674461946002B40F0C2808542B2FA09
:1003700082F245D94AB1C2F1200300FA02FC2EFAFA
:1003800003F3954043EA0C0C94404FEA154EA8B293
:10039000BCFBFEF8230C0EFB18CC08FB00F943EA6B
:1003A0000C43994528D9EB1808F1FF3704D2994539
:1003B00002D9A8F102072B44A3EB0903A4B2B3FBB3
:1003C000FEFC0EFB1C330CFB00F044EA0344A0428D
:1003D00014D92C190CF1FF3304D2A04202D9ACF18C
:1003E00002032C44241A43EA07401EB1D4400023E0
:1003F00034607360BDE8F0874746DDE76346F1E7A8
:1004000092BB431B01214FEA154EAFB2B3FBFEFC7A
:10041000200C0EFB1C330CFB07F840EA0343984505
:1004200062D9EB180CF1FF3004D2984502D9ACF137
:1004300002002B44A3EB0803A4B2B3FBFEFC0EFBAB
:100440001C330CFB07F744EA0344A7424ED92C198E
:100450000CF1FF3304D2A74202D9ACF102032C44C1
:10046000E41B43EA0040C0E7C2F1200320FA03F195
:10047000954090402EFA03F303434FEA154EAFB276
:10048000B1FBFEFC0EFB1C10190C0CFB07F841EA3B
:100490000041884504FA02F422D969180CF1FF30B2
:1004A00004D2884502D9ACF102002944A1EB08012D
:1004B0009BB2B1FBFEFC0EFB1C110CFB07F743EAE1
:1004C00001439F420ED9EB180CF1FF3104D29F4239
:1004D00002D9ACF102012B44DB1B41EA004192E757
:1004E0006046E3E76146F7E76046A3E76346B7E7A0
:1004F000834206D916B9002108467BE7C6E900E029
:10050000F9E7B3FA83F78FB9834201D3724508D86C
:10051000BEEB020460EB030301209C461EB90021E0
:1005200068E73846FAE7C6E9004CF8E7C7F1200C5F
:10053000BB4022FA0CF41C432EFA0CF120FA0CF307
:10054000B84001434FEA14490EFA07F5B3FBF9F836
:100550001FFA84FE09FB18300B0C08FB0EFA43EA65
:1005600000439A4502FA07F240D9E31808F1FF3038
:1005700004D29A4502D9A8F102002344A3EB0A034E
:1005800089B2B3FBF9F809FB183308FB0EFE41EA08
:1005900003418E452CD9611808F1FF3304D28E45F2
:1005A00002D9A8F10203214443EA0040A0FB0298CB
:1005B000A1EB0E014145CE46434602D306D14D453F
:1005C00004D2B9EB020E68EB04030138002EA6D06A
:1005D000B5EB0E0261EB030101FA0CFC22FA07F302
:1005E0004CEA0303F940C6E9003198E74046C5E705
:1005F0004346D9E7024A0321024811F096BD00BFE5
:100600001A9E010814950108024B994201D1FFF787
:10061000F1BF7047080003E010B5002386B00C4618
:100620008DF808300090FFF78DFE0190204603946E
:10063000FFF788FE049011F087FD9DF8163069469B
:10064000ADF8140023F0030303488DF816300AF0C8
:10065000E3FC06B010BD00BF1C19012010B50B78DB
:10066000082B2AD8DFE803F0051923292929292591
:100670002700CB69144C3BB1144A0121144812F0F5
:10068000F5FB0023237010BD0123124A23700321C0
:100690000F48BDE8104011F048BDCB690E4A032158
:1006A0000B4812F0E3FB084B00221A70EBE70B4AF1
:1006B000EDE70B4AEBE70B4AE9E70B4A0321044855
:1006C000BDE8104012F0D2BB282301202A9E010869
:1006D00014950108419E0108589E0108749E010866
:1006E000879E0108A39E0108C19E01082DE9F04FD5
:1006F00091B09E4A03219E4800AF11F016FD9D481F
:100700009D4B43609D4B836006F04CF905F0E2F889
:10071000044600BB9A4A0121954811F006FD994A0A
:100720000121934811F001FD4FF0FF304437BD46E1
:10073000BDE8F08F4FF47A70002111F00FFD2046D4
:1007400011F0F5FC08B9013DF4D1204611F0EFFCA1
:1007500018B98D4ADFE76525F1E76525204616F0D3
:100760001BF90121204613F038FC08B9013D06D1E0
:100770000121204613F031FC38B9844ACBE741F21D
:100780008830002111F0EAFCEBE7814C0321814A1B
:10079000774811F0CAFC204615F06AFF7E4D012310
:1007A0004EF24A12DFF8F4A12B8045F60733AA80F7
:1007B00048F6C0226B800023EA80794ADFF8E49192
:1007C000A264794A794EE262142265632263C4F816
:1007D0004C90C4E90E33042384F85E3080232365F3
:1007E000C4E915A33C23A4F85C303378002B51D125
:1007F0006F4A03215E4811F098FC65480AF0BEFB81
:10080000034650B16B4A0121594812F02FFB4CF2BC
:100810005030002111F0A2FCE7E74FF03208DFF87A
:1008200070B1584615F060FF3378002B32D14FF489
:100830007A70002111F092FCB8F10108F1D13378FF
:1008400043BB5D4A01214A4811F06FFC504815F046
:100850000FFF012365632B8045F60733C4F84C90E6
:100860006B804EF24A13AB8048F6C023EB804C4BB2
:10087000A3644D4BE36214232363042384F85E30A6
:100880008023C4E9143AA3653C23C4E90E88A4F884
:100890005C30BCE711F058FC834611F055FC152381
:1008A000804620213846BBFBF3F203FB12B3434AD8
:1008B0000F3310F00FFA33232021B8FBF3F203FBC0
:1008C000128307F120083E4A1E33404610F002FA18
:1008D00039463C48FFF7A0FE034600B33A4A0121DF
:1008E000234812F0C3FA0023337041F2883000210C
:1008F00011F034FC41463548FFF78EFE034608B33D
:10090000334A01211A4812F0B1FA0023337020480B
:1009100015F0EAFE1E4815F0C2FE2E4879E7EB46B8
:1009200088B06A462C49C2E905174FF400719183DB
:100930002A4942F8101F4FF4E6510D4801F050F8D3
:10094000DD46D2E7EB4688B06A462549C2E905187C
:100950004FF400719183214942F8101F4FF4E65182
:10096000034801F03DF8DD46D1E700BFD59E010800
:10097000149501081019012009060008080003E079
:10098000029F0108769F01081D9F0108399F0108F9
:100990001C190120529F0108202301202923012036
:1009A0005D060008A9230120619F0108282301207A
:1009B000949F0108BC9F0108E19F0108F99F01086D
:1009C0000DA001081EA0010831A001086DA00108BA
:1009D0007DA00108A086010053A0010803000001CA
:1009E0009CA0010830B5C0430A440C4D914201D18E
:1009F000C04330BD11F8013B83EA000404F00F044A
:100A000055F8244084EA101080EA131303F00F0312
:100A100055F8233083EA1010E8E700BFD0980108AA
:100A20002DE9F04F91B0840705460E46009302F081
:100A30000403DDF868800293C2F3C203039203F15A
:100A40000103059340F0BA81041D30B1072909D88C
:100A50006FF01B0011B0BDE8F08F01F007063444C1
:100A6000C6F10806009B4FF000094FF0040A591E1A
:100A70004FF0FF334F46CB4601935346CDF81090CD
:100A80000DB1009A22600598002800F3E88098488C
:100A9000009A824203D397488242C0F0E080039AD2
:100AA000A4EB050E92074FEA9E0000F103810F2F81
:100AB00000F2B180002D00F0058107F140020DEB3E
:100AC000020C019A0CF8200C0CF8102C0498013040
:100AD0000490E7E07A285DD84B280ED8472859D8EB
:100AE00029282DD8252852D054D820287AD0233828
:100AF000D0F1000B4BEB000B74E04C382E2849D89A
:100B0000DFE800F0704848484848484848484848A6
:100B10004B484848484848484859484B4B59595908
:100B2000704B6D487048184B184848827F4B4848B6
:100B30004B487F0000204FF0000B4FF0040A38E0D4
:100B40002A380122C0B202FA00F010EA0E0F49D191
:100B500010F0625C2FD110EA020B43D06046013CDA
:100B60005444B4FBFAF40AFB04F4002D61D0A3EB67
:100B7000050CA444B4453FF66BAF002868D1042BA4
:100B800047D158F8043B2360043404232AE0019A37
:100B9000013A01924FF0000B24E011F8010C6C288F
:100BA00034D111F8023C00206C2B8346C5D14FF0A4
:100BB000080A5346D3E708F10708073428F0070866
:100BC00024F00704F8E802AB35B106982044B0429F
:100BD0003FF63EAFC4E900AB08344FF0000B4FF0D6
:100BE000080A534611F8010F002878D0BBF1000F16
:100BF0007FF470AF2528F5D1019B4FF0010B013335
:100C000001934FF0040AECE7584694E7002083462E
:100C1000A5E7082B02D06FF015001BE708F10708C5
:100C200028F00708F8E80223C4E900230834082361
:100C3000D8E768B9042B02D108F10408A4E7082B0F
:100C4000E9D108F1070828F0070808F10808EDE7DE
:100C5000059A013A059258F8042B009210E7039A7E
:100C6000900720D5A4EB050E4FF0010C4FEA9E0033
:100C7000BEF5007FCFD20F2FCDD8F5B107F14002DE
:100C8000C0B20DEB020E019A0EF8200C0EF8102CDB
:100C9000BCF1000F3FF41AAF60F07F0009F10109C9
:100CA0000EF8200C0137C5F1080204344FF6DA7E45
:100CB000069297E74FF0000CDAE7BCF1000F01D085
:100CC0000136EFE7029802360028EBD10098CDE913
:100CD0000631FFF737FB0644DDE90631E2E7631B27
:100CE000B3F5806F97D23DB9A6F10804E018B1E6DC
:100CF000748D0108ACBE01089B08029A28602B7015
:100D00009DF81030C2B1EB7085F80290B9F1000F78
:100D100005D008A80022C5F1010C97420ED1C5F1FB
:100D200001030DF120084FF0000A0DF1300B019383
:100D3000574512D1601B8DE66B70E5E710F8013B5B
:100D4000190608D50CEB040E03F07F03B6453FF6F9
:100D50007FAE04F8013B0132DFE7B9F1000F03D0A9
:100D600098F90020002A17DB029BD3B11AF80B2058
:100D700004F8012B0022019B18191044B0423FF6E1
:100D800067AE98F80000009904F8010B2046039222
:100D900017F0EFFE039A14440AF1010A08F1010862
:100DA000C6E798F8002055F822300093029B00987F
:100DB00045F82230FFF7C6FA421CDCE76FF00D0061
:100DC00048E600BF2DE9F04F97B00446894600AFD2
:100DD00090F802A0D7F880B03B62CBF3C003FA6270
:100DE000BB6141B9457800780AEB800020444D454D
:100DF00017D8A0EB0409E378FB61BAF1000F02D029
:100E00001BF0010F16D1FB6953BBFB6A1BB13A6A99
:100E10004946204698474D4628465C37BD46BDE8C2
:100E2000F08F461C09F101093046FFF78BFA0130BB
:100E30003044DCE72378626899007A62FA6A796163
:100E400004EB8301002A40F000814D460E4601EB81
:100E50000A094FF000084E454CD101EB0A0610E09C
:100E60001BF0020FD1D023789A0004EB83017A6142
:100E700062687A62FA6A002A77D14D4601EB0A0667
:100E800090461BF0050F0CBF02230123FB62FB6998
:100E900006EB430A0BF00203BB625645BCD016F8C2
:100EA000021B16F8013C54F82390994B994502D344
:100EB000984B994536D3BB69002B40D0786A11F026
:100EC00000FB00283BD0E9468AB06A46924B53614A
:100ED0007B6AC2E906314FF4007313848F4B42F8EA
:100EE000103F00234FF412518D48023D00F078FD71
:100EF000CD46D2E716F8013BF96254F82300FFF71C
:100F000021FAD7F884300130F96A4BB1D7F888302C
:100F100098453EBFD7F8843023F8180008F101083F
:100F2000054498E7BB6923B1786A11F0CAFA002832
:100F3000C9D11BF0010F05D1FB6AED1AADE7BB6A01
:100F4000002BAAD04846FFF7FDF9D7F8843053B1FB
:100F5000D7F8883098453FBF431CD7F8842022F843
:100F6000183008F10108054497E7BAF1000F72D074
:100F70001BF0040672D0D046002607F14800524606
:100F80003B61B96217F0F5FDB96A3B6901EB0A02F2
:100F9000F969BA62FA695200FA60BA6A02EB410270
:100FA0003A610BF00202BA603A69B96A8A4257D1D3
:100FB0001BF0020F62780CBF4FEA580100217A62E1
:100FC0001BF0010F3244D2B240F09F801BF0040F9F
:100FD00014BF40460020BB616270A0702046E170E3
:100FE0003A6A7969FB6A9847051EFFF615AFBB6937
:100FF00041463A6A07F1480023707B6A84F802A0F0
:101000006370FB69E370FB6A9847B0F10008C0F2B7
:10101000BB807B69A9EB0A013A6AC91AFB68C91A45
:10102000D7E90A0398470028C0F2B080A8444FF0DF
:10103000000B07F1380A08EB0005B34572D3002115
:101040003A6AFB6A08469847E6E656464FF00008BB
:1010500007F1380093E75646D04697E7B04695E744
:10106000BA6A12F8021B12F8015CBA6254F8250041
:10107000274A904202D3274A90421ED3BA6932B11E
:10108000786A7B6011F01DFA7B6800288CD1BA6801
:1010900002BB08F1280207F1300C08F1010008F149
:1010A0000208944407F158025FFA88F852FA80F077
:1010B0000CF8101C00F8105C76E7BA693AB1786A4F
:1010C0007B6011F0FEF97B6800287FF46DAF1BF0A8
:1010D000010F09D006F1280207F13000711C161823
:1010E00006F8205CCEB25FE71BF0040F3FF45CAF64
:1010F00008F1280207F1300008F1010102EB0008B5
:1011000008F8105C5FFA81F84EE7002063E700BF43
:10111000748D0108ACBE0108C3A0010804000001E1
:10112000DC9401081BF80A3054F8239087F8373014
:10113000D7F884302BB3D7F888309B4521D2D7F825
:10114000843033F81B803A6A012107F13700FB6ACB
:10115000984700281ADB0544B8F1000F06D148462D
:10116000FFF7F0F800F101081FFA88F83A6A4146E3
:101170004846FB6A9847002808DB05440BF1010B41
:101180005BE74FF00008DEE7454645E6054643E6E7
:10119000014B1860704700BFC007012080B50546AD
:1011A0000E46174698460FF03FF9DFF820900346A9
:1011B00017F0D6FD0446424649F80030394630461D
:1011C000A84754F8090001F0C1F900BF0800000069
:1011D000032800B508D90A4B092217F0C1FD1A509F
:1011E0004FF0FF305DF804FB3023BFF35B8F5843B3
:1011F000044B1B58BFF35B8F002BECD00020F1E7B2
:101200000C0000008C19012030231149434308339E
:101210000B4430B5BFF35B8F1A68BFF35B8FB2B17D
:10122000541EBFF35B8F53E8005F954204D143E83F
:10123000004CBCF1000FF6D1BFF35B8FEAD1012A5D
:1012400005D13023584300230A180B50536030BD9A
:101250008419012038B504461546FFF7B9FF002868
:101260000BDB094A59B1302303FB04235B688B4233
:1012700005D0064B17F074FD1D50002038BD3023FB
:101280005C431059FAE700BF841901200C000000EC
:101290002DE9F041174E90461F460024354633682D
:1012A000984202D1736899420AD001343036042C36
:1012B000F5D1114B17224FF0FF3417F051FD1A50A2
:1012C0002046FFF785FF002812DBB8F1000F05D09C
:1012D000302101FB04510C31C8F8001017B901206E
:1012E000BDE8F081302303FB045520353D60F6E76F
:1012F0000020F5E7841901200C00000038B50446F1
:101300001546FFF765FF00280DDB3023074A6343CE
:10131000D0184068086015B10C3313442B6030239B
:101320005C43105938BD0020FCE700BF8419012040
:101330004FF0FF334FF0FF321C4870B511F004F945
:1013400000251B4BBFF35B8F1A68BFF35B8F7AB12D
:1013500001353033042DF5D1164B17224FF0FF35F0
:1013600017F0FEFC1A50114811F0F0F8284670BD35
:101370003024BFF35B8F6C4353E8000F013043E828
:1013800000010029F8D10C4EBFF35B8F33193251A5
:101390005A609A6204F10C00304416F091FD04F199
:1013A0002000304416F077FFDDE700BF840A0120FB
:1013B0008C1901200C000000841901202DE9F04156
:1013C000302416460F4A4443101911514660C36237
:1013D000B6B1F368A3B10C4F0C3417F0C1FC05464D
:1013E00050F807801319304640F2051211F09DF8AD
:1013F000B8F15F0F04D0EB595F2B08BF45F80780A9
:10140000BDE8F081841901200C000000F8B5054604
:10141000FFF7DEFE002824DB3024134F4FF0FF32AD
:101420004FF0FF336C4304F10C063E44304611F09C
:101430008BF83A1953689B688BB1D26A385912F409
:10144000404F0AD0294698470446304611F07EF8AE
:101450002846FFF7D9FE2046F8BD9847F4E71C461A
:10146000F3E74FF0FF34F6E784190120034A002028
:10147000536823F002035360704700BF002004E06C
:10148000064B1A6842F400721A601A6842F48072BD
:101490001A60034B034A1A60704700BF003C0240C9
:1014A000880901200024F4002DE9F047044607468E
:1014B0004FF00109DFF8508014B93846BDE8F087D5
:1014C00094FAA4F5B5FA85F509FA05F32E0108EBAF
:1014D00005156FEA030A24EA03042B7B002BEBD0EB
:1014E00058F806301B694BB946440422284607EADF
:1014F0000A077368196811F041FCDDE72846984730
:101500000028D9D1F0E700BF2496010830B50022A9
:1015100089B00F490F4817F069F800220023002412
:101520000D4D0E4928460094CDE906230E234FF4B5
:101530004072CDE90334CDE90144094B0EF0B4FC0F
:101540000849284616F0B1FE204609B030BD00BF5C
:1015500069150008E0110120580D0120C024012068
:101560008518000877A1010801480EF08BB900BF6B
:10157000800B01202DE9F047804620480F4611F0EE
:10158000D5FB0646002832D000252846BDE8F08766
:10159000237B83B12368DB680BB1204698476368DF
:1015A00083F8069023681B69CBB963680422204640
:1015B000196811F0E3FB013610345445E8D3B8F153
:1015C000000FE2D0002DDFD02846FFF76DFF054663
:1015D000002FF7D00021642016F018FFF2E7204614
:1015E00098470028E1D009FA06F31D43E3E7044CCD
:1015F0000546DFF810A04FF00109DEE7541A01207C
:101600002496010834960108014B53F820007047D6
:101610002499010808B5034608462BB1044A136013
:1016200000F074FC002008BD6FF01500FBE700BF60
:10163000C407012010B5044C237813B903480EF0F9
:1016400021F90123237010BD29240120800B0120E2
:1016500010B504460B4811F069FB5CB10A4BBFF3AF
:101660005B8F53E8001F013943E80012002AF8D1CC
:10167000BFF35B8F054816F0C5FF0548BDE8104075
:101680000EF000B94C1A0120501A0120E01101207F
:10169000800B01200020064BBFF35B8F014653E80F
:1016A000000F43E80012002AF9D1BFF35B8F7047A7
:1016B0004C1A012070B5FFF7EDFF084C0546084EA7
:1016C000B44200D370BD63685B792BB123685B685B
:1016D00013B12946204698471034F1E724960108B3
:1016E0003496010810B5044C0449204611F035F831
:1016F000034B1C6010BD00BFD809012010990108E0
:10170000441A012000230D4A4FF47A710C4810B599
:1017100013700C4A13600C4A1360FFF77BFFFFF74E
:10172000E1FF0A4B0A4918468B4200D310BD1A1A32
:101730005C681033121101322271F5E72A2401206E
:10174000472D01084C1A0120501A01202496010847
:1017500034960108014600220023014811F01EB80A
:10176000D8090120014811F0B7B800BFD8090120FD
:10177000024B0146186811F003B900BF441A01205A
:10178000014811F038B900BFD8090120264B70B5C7
:101790001878002846D0FFF7E5FF054600283ED11F
:1017A000224B234C1B68002B12DD16F0D8FE0A22B8
:1017B0000023FEF7ADFDD4E90032C01A40F2E93350
:1017C00061EB0201984271F1000101D3FFF772FF52
:1017D000D4E9003213F57A7342F10002C4E9003211
:1017E000BDE87040FFF7CCBF63685B7923B1236825
:1017F000294620461B6898471034B442F4D3284643
:10180000FFF7B6FF0B4BBFF35B8F53E8001F0139A7
:1018100043E80012002AF8D1BFF35B8FC0E7064C03
:10182000064EEAE770BD00BF292401204C1A0120B2
:10183000D8110120501A012024960108349601087D
:1018400070B50D4D297861B90C4C01200C4EFFF795
:1018500091FEB44206D3FFF799FF0028FBD1012384
:101860002B7070BD63685B791BB1236820469B6851
:1018700098471034EDE700BF2A2401202496010880
:101880003496010800212DE9F0470846FFF772FE63
:10189000044658B34FF4FA784FF000091C4B17F088
:1018A0005FFA1C4A1B58136033B11B4B1B68092B92
:1018B00002DD1A480DF0E6FF0025194FDFF85CA0A5
:1018C00044B12046FFF7F0FD044618B94FF0FF3849
:1018D0004FF0FF39FFF75AFF064628B9B5B942461F
:1018E0004B4650460EF008F83546E9E74FF0FF3812
:1018F0004FF0FF39D2E72B689B691BB100222846C5
:10190000114698471035BD42F5D3E8E7054DFAE793
:1019100008000000481A0120501A0120800B012005
:10192000349601082496010813B5184811F0FEF901
:10193000174B1B7873B1EFF31184102383F31288D4
:10194000BFF36F8FFFF722FF84F31188BFF36F8F10
:1019500002B010BD0F4B1B68002BF9D050B900220C
:1019600000230D48CDE9002342F2107200230FF04E
:101970007DF8EDE70928EBD1074816F043FE07484C
:1019800002B0BDE810400DF07DBF00BF501A01202D
:101990002A240120481A0120E0110120800B012097
:1019A000064B10B504461B6898472146A0600448C2
:1019B00010F073FFBDE81040FFF7B6BFC407012069
:1019C000D8090120044A054B9B1AB1EBD30F34BF51
:1019D00052F8310000207047DC9401082496010879
:1019E0002DE9F04F8FB0C1F34A280D46914604AF60
:1019F0000C0DB8607B60B8F1000F63D0002607F1D2
:101A000014034FF0040B4FF00A0AC7F80C8032465B
:101A10007E624846C7E90766019307F11C03CDF8CB
:101A200008B0CDF800A0F968FFF7CCF9B0F5006F69
:101A300003461CD36C468AB0D9F8041004AB264880
:101A40001A46C3E9050140F2FF71D9614FF40071F4
:101A50001984224B42F8103F4FF41251334620486C
:101A6000FFF7BEFFA5462C37BD46BDE8F08FC0F39B
:101A70000A0804F117003B60184468F3532520F06E
:101A800007008008FFF766FE044690B13B6800F14E
:101A90001001144A4846F961C7E9083607F11403F2
:101AA000CDF808B0CDE900A307F11C03F968FFF7F2
:101AB00089F968F353257B68B96820462A4611F0F6
:101AC0007CF9D0E704F1170020F007008008FFF749
:101AD00041FE0446EDE700BF8CA1010804000001AF
:101AE000EC9401088F2D01082DE9F04F87B00446D2
:101AF000934698460391DDE91279DDE9105ABFB1AA
:101B00003B46524610210020CDF80090CDF81490AD
:101B1000FEF786FFB0F5006F06460AD340F2FF736A
:101B2000174A0221174807B0BDE8F04F11F09EB9DF
:101B30003E4604F0070405F117000BF0070BE40024
:101B4000304444EA8B1420F0070044EA462480081D
:101B500044EA0554FFF7FEFD054640B13FB13B4660
:101B6000524631461030CDF80090FEF759FF4346FB
:101B700022460399284607B0BDE8F04F11F01DB981
:101B8000CBA10108EC940108406820B1034BC01AB6
:101B900040F3CF0070474FF0FF307047DC940108EE
:101BA0000EB403B503AB0146054853F8042B01936B
:101BB00000F076FF02B05DF804EB03B0704700BFA1
:101BC000CF2E0108CA0605D48B064CBF0249034933
:101BD000FFF7E6BF704700BF04A2010803A2010897
:101BE0002DE9F04F89B09B4604460D46149B904664
:101BF0009DF84CA00693159B179E0593169B049386
:101C0000BAF1000F00F09D8006F4807306F002091F
:101C1000079311F0B1F8024600283ED091492046C2
:101C2000FFF7BEFF0746B9F1000F08D016F0440FCA
:101C300035D12A468C492046FFF7B2FF074406F00B
:101C4000010353B1894B2046894953F82A20894B17
:101C5000002A08BF1A46FFF7A3FF06F48073002B83
:101C600049D006F00803002B63D1B8F1000F66D00D
:101C7000424681492046FFF793FF0546069B3D44B7
:101C8000002B6DD1049B002B73D1F30700F1E4808E
:101C900031462046FFF796FFD8E00746C3E7774B6B
:101CA00018680028CAD0764B4FF47A794FF03C0C74
:101CB0001B68B5FBF3F5B5FBF0F100FB11554FF4D4
:101CC000616309FB05F5B1FBF3F2B5FBF0FE03FB25
:101CD000121100FB1E55B1FBFCF309FB05F50CFBD3
:101CE0001311B5FBF0F5009120466649CDE901E5F9
:101CF000FFF756FFA2E706F00803EBB1624B204660
:101D0000624953F82A20FFF74BFF0546B8F1000F50
:101D100005D0424658492046FFF742FF0544BBF133
:101D2000000FABD05A465A492046FFF739FF054409
:101D3000A4E74FF0000BE1E706F00805E6E74546AB
:101D40009CE7BBF1010F069B06D1002B64D1049BDD
:101D5000002B7BD000250CE0002BF8D04D485CE038
:101D60004D48069B22464D4910F07AFB049B002B00
:101D700068D0DFF82C81DFF82C91049F4FF0000B26
:101D800031462046102F28BF1027FFF71BFF5D4567
:101D900045DC059B4FF0010B494620461A78FFF7BA
:101DA000FFFE1BF0070F03D141462046FFF7F8FE68
:101DB0005F453BD9059B4946204613F80B20FFF7AA
:101DC000EFFE0BF1010BBBF1100FEAD14FF0000B4E
:101DD00035492046FFF7E4FE5A46059B20469A5CAB
:101DE000A2F120015F29314928BF2E22FFF7D8FE3A
:101DF0000BF1010BBBF1100F1DD01BF0070F03D12E
:101E000041462046FFF7CCFE5F455A46E5D841469D
:101E10002046FFF7C5FEEBE71F485546A1E74146C0
:101E200020460BF1010BFFF7BBFEB0E7204920462F
:101E3000FFF7B6FEC5E7059B3B440593049BDB1B00
:101E400004939AD1BAF1000F7FF41FAF204609B076
:101E5000BDE8F04F11F02EB8064A20460449FFF7BE
:101E60009FFE15E70BA201080FA201083499010893
:101E7000A7B7010806A2010834A201085C1A0120D4
:101E8000581A012018A201084899010838A201082F
:101E90003EA20108052F0108CF2E0108A12A000843
:101EA0004BA2010843A201084DA201084FA201085C
:101EB00049A2010842F20F73114A8B4273B50446DE
:101EC00028BF0B460568052168460EF003FF6368CE
:101ED00006460B2228465B680A4910F0DDFF63685E
:101EE0003246694628465B6810F0D6FF63681B22BD
:101EF00005495B68284610F0CFFF02B070BD00BFF7
:101F0000E9B001086EA2010852A2010800210123D4
:101F1000064A904206D8064A01B901231360054BD0
:101F200018607047400801215B00F2E740420F0053
:101F3000581A01205C1A0120F8B50D4604464618CF
:101F4000054FB44201D12846F8BD14F8011BBB6807
:101F500001485B689847F4E764900108014B03600F
:101F600001207047909901082DE9F047064600AF1F
:101F70000C46002936D0E9468AB0A3686D46D1E9FF
:101F8000001221484FF0050AA846C5E90501C5E938
:101F9000072348F810AF002342464FF421511B4855
:101FA000FFF71EFDCD466369AD46D4E9031218481C
:101FB000C5F810A0C5E90501C5E90723002342467D
:101FC0004FF421511148FFF70BFDCD46E369114A4B
:101FD00001210E4810F04AFFA3690F4A01210B4866
:101FE00010F044FF012E07D1EFF305830B4A103B9D
:101FF0003146064810F03AFF214630460DF096F87B
:10200000BD46BDE8F08700BFD0A2010804960108D4
:10201000FFA201082EA301083DA301086BA301083C
:1020200008B5034B1B689847BDE8084000F026B888
:10203000D007012030BFFFF7FDBF00BF2DE9F04101
:102040000B4E0546DFF82C80324606EB0807CC1B0A
:102050000949204616F08DFDA019083C4246002192
:1020600016F0AFFD07F108006C67BDE8F08100BF16
:10207000000000000800000034960108054B5A6972
:102080009B689A4204D0044A536843F080535360DB
:10209000704700BFEC22012000ED00E070B5294C34
:1020A00006460D462848294910F0ADFFA36AD90419
:1020B0003CD52548264910F0A6FF1720A36A1A052B
:1020C00004D52148234910F09EFF18201D4CA36A17
:1020D0009B0512D51C48204910F095FFA36BA26AFE
:1020E000100409D51D4A0121174810F0BFFE1EB18A
:1020F000A36A23F40043A3621920124CA36A590572
:1021000004D51148164910F07EFF1A20A36ADA059B
:102110000ED50D48134910F076FF1B20094A936A2B
:1021200043F47F43936200232B7070BD1620C5E7F4
:10213000A36A9B04F2D504480B4910F064FF1C20ED
:10214000ECE700BF00ED00E0049601087EA3010863
:1021500094A30108A5A30108B8A30108D1A301080D
:10216000E6A3010801A4010819A4010810B5204C38
:102170002049214810F047FFA36A990136D51E482F
:102180001E4910F040FF1E20A36ADA0104D51A4848
:102190001B4910F038FF1F20154CA36A1B0304D500
:1021A0001548184910F02FFF2120A36A590304D5C0
:1021B0001148154910F027FF22200D4CA36A9A03FD
:1021C00004D50D48114910F01EFF2320A36ADB033C
:1021D00004D509480E4910F016FF2420044A936ADA
:1021E0006FEA03436FEA1343936210BD1D20CBE7F0
:1021F00000ED00E048A401080496010860A401086D
:1022000073A401088DA40108ABA40108D0A401089F
:10221000EAA401082DE9F843364D80468946364840
:102220003649174610F0EFFEAB6ADE0627D51124BB
:102230003349314810F0E7FEAB6A1D0704D512247C
:1022400030492D4810F0DFFE2A4DAB6A980718D5AB
:102250002D49294810F0D7FE6E6BAB6A190646D59A
:102260002A4A33460121244810F000FEB9F1000F3C
:1022700003D0AB6A23F08003AB62132403E0102485
:10228000DAE76FF015061B4DAB6ADA0704D51424A4
:102290001F49194810F0B7FEAB6A9B0604D51524F8
:1022A0001C49154810F0AFFE124B9A6AD50602D4AD
:1022B0009A6A90070AD55B68190507D541463046EA
:1022C00000F022FA10B180F309880224094B9A6ABF
:1022D000920603D55A6A22F400525A629A6A20463C
:1022E00042F0FF029A6200233B70BDE8F8836FF072
:1022F0001506C2E700ED00E00496010815A50108E7
:102300002BA50108A5A301085EA5010876A5010873
:102310008CA5010819A401082DE9F041664B8AB08B
:1023200004460026D3F8048000AFC8F3080586F3FE
:102330001188BFF36F8F02F07F43B3F17F4F07D156
:1023400002F00C03082B12D15C495D4810F05BFED3
:10235000002634460023FB71EB1E092B00F28B8014
:10236000DFE803F00A81847D8989898989871007DC
:102370004CBF0C460126EDE75249514810F043FE90
:102380004D4D0023FB71EB6A9A0705D54E494C4829
:1023900010F039FE002332E0EB6A002B01DA4B49E2
:1023A000F5E7EB6A5B00F5D54949454810F02BFE8F
:1023B0006B69A26943F480736B61BFF34F8FBFF306
:1023C0006F8F6B6932F8022C23F480736B61BFF35B
:1023D0004F8FBFF36F8F4DF602739A4208D0AB6AEE
:1023E000DBB27BB3FA1D01212046FFF713FF38E073
:1023F0002368384A0121324810F038FD2368FA7901
:10240000E2B907F1080504F1200C2068083454F8FB
:10241000041C2A46644503C21546F6D17A6A002E8A
:1024200045D0C2F3080121B96FEA52226FEA422275
:102430007A6207F108011846FFF796FD2837BD4676
:10244000BDE8F081AB6A13F47F4F04D0F91D012081
:10245000FFF724FE05E0AB6AB3F5803F9AD3FFF7A0
:1024600085FE0346CBE7FA1D0021BDE7F91D0020DC
:10247000EEE719498BE718F4F87F184AE8468AB066
:10248000174B18BF13466A461649103DC2E905139B
:102490004FF40073D5611384134B42F8103F0023AF
:1024A0004FF411510648FFF79BFAC54672E722F434
:1024B000FF7222F00102BBE700ED00E0D9A50108A0
:1024C0000496010804A601081BA601083CA6010801
:1024D0004AA6010869A6010885A60108C0A5010849
:1024E000ABA50108A9A6010804000001044B5A6924
:1024F00042F010025A615A6922F008025A6170478C
:1025000000ED00E0EFF30880EFF3098101B57246BA
:10251000FFF702FF01BD00BF0A4880F308881020C2
:1025200080F3118808484FF40461401880F309884B
:10253000EFF314800221084380F31488BFF36F8FF8
:1025400000F0B0F8C04E0120003D0120084B9B6810
:1025500083420BD1EFF3058343B1064B5A6842F037
:1025600080525A605A6A22F400425A620DF062BFE9
:10257000EC22012000ED00E014498A684FF03000A1
:102580001044EFF3098C80E8F01F102080F31288CC
:10259000BFF36F8F0E4F4FF000664A698A603E604E
:1025A000506F0C4C2060906F0023936780F311886C
:1025B00004B5104600F00CF9BDE8044002F130000B
:1025C00090E8F01F8CF3098870470000EC2201208E
:1025D00004ED00E08C1A01201EF0040F0CBFEFF395
:1025E0000880EFF30980816911F8021C0229FFD0ED
:1025F00001B5724610F003FD01BD00BF40B20028D6
:1026000007DB0123410900F01F00024A834042F822
:102610002130704700E100E040B200280CDB4309A4
:10262000012200F01F0005492033824041F8232099
:10263000BFF34F8FBFF36F8F704700BF00E100E023
:102640004209054B00F01F0053F82220012303FA32
:1026500000F01040704700BF00E100E040B20131DF
:1026600000284FEA0111C9B206DB00F1604000F515
:10267000614080F80013704700F00F00014B1954BF
:10268000704700BF14ED00E0044B054A23F07F03C0
:102690009360BFF34F8FBFF36F8F70470000000848
:1026A00000ED00E008B5FFF7EFFF0B4AD2F88830E5
:1026B00023F47003C2F88830EFF3148323F004038B
:1026C00083F31488BFF36F8F0CF01CFE0DF0E6FF50
:1026D00000F054F80CF064FE00ED00E042F8203CFD
:1026E000203A009B07495360019B21F00101936050
:1026F000029B9161D3604FF08073D3610023026528
:10270000836770479D110008094A0346906870B1BD
:1027100013F1160F406E05D0A0F140029A4205D881
:10272000834203D2814228BF0020704700207047B7
:10273000EC22012015460A4A0E4608B5094B906066
:10274000426F1A6000F044F82C4686F30988002096
:10275000054B98472046002100220023034C2047C8
:10276000EC2201208C1A0120173001089D1100086D
:10277000014B10221A61704700ED00E0002304486D
:102780001021C2180133622B82F80013F9D170476F
:1027900000E100E008B5EFF30583064A103B02EBC9
:1027A000C30152F8330049688847BDE80840FFF785
:1027B00065BC00BFE4900108024B0121024A0348B6
:1027C00000F08AB80000052000000120A09901084F
:1027D000426E4021044B403A18461A60034AC3E94E
:1027E0000112012100F082B8901A012000000B159F
:1027F00008B503461048D0F89020C2F30722013AEA
:10280000934207D90D4801210D4A10F02FFB6FF0BC
:10281000150008BDC0F898300A6822F01F021A435C
:1028200042F01002C0F89C208A6842F00102C0F811
:10283000A0201846EDE700BF00ED00E00C95010870
:10284000C0A60108F0B50E4685B01F460446002517
:10285000B5420DDA606810B397B1431E18420AD032
:10286000104A2B460121104810F000FB6FF01502B2
:10287000104605B0F0BD1F28F2D921680B42EFD1F8
:10288000236801A9019310F0DAFBA3680343D0B2D7
:102890000393FFF7ADFF10F1160FE7D0421C01358F
:1028A0000C34D5E7E6A601080C950108044B052277
:1028B000C3F89420BFF34F8FBFF36F8F704700BFF3
:1028C00000ED00E0BFF35F8F024B0022C3F89420BD
:1028D000704700BF00ED00E010B5034C01232278E3
:1028E000FFF7B0FF207010BD2C2401200B4A08B563
:1028F00000231278FFF7A6FF10F1160F07D0084A41
:102900000021D2F89030C3F30723984200DB08BDC2
:10291000C2F898000130C2F8A010F2E72C24012080
:1029200000ED00E0584859492DE9F043D0F89030C7
:1029300085B00D68C3F307239D4200F2A180FFF725
:10294000C1FF49680022954201F10C011AD1504C97
:102950006846504F2570FFF701FB00250646DFF85B
:102960003881DFF83891AE421FD1237800204649E4
:10297000D1F89020C2F3072293427BDB0020FFF7BF
:1029800095FF4CE0C0F8982051F80C3C23F01F0351
:102990001343013243F01003C0F89C3051F8043C5B
:1029A00043F00103C0F8A030CDE700984FEA051CC2
:1029B00000EB0511CB683B40B3F5000F44D00AD8BB
:1029C000B3F5001F2ED0B3F5800F34D0B3F5801FC0
:1029D00010D00135C7E7B3F1807F3ED0B3F1007F5F
:1029E000F7D150F80C30886810F029FB4A6840F4A1
:1029F000802009E050F80C30886810F020FB40F08F
:102A000088504A6840F43020039001A92078CDE92D
:102A10000123FFF7EDFE002828DA6FF0150005B05E
:102A2000BDE8F08350F80C30886810F008FB4A6865
:102A300040EA0800E8E750F80C30886810F0FFFA28
:102A40004A6840EA0900DFE750F80C30886810F067
:102A5000F6FA4A6840F08270D6E750F80C30886881
:102A600010F0EDFA4A6840F08870CDE72378013322
:102A70002370AEE7C1F898300133C1F8A00077E7C2
:102A80004FF0FF30CBE700BF00ED00E0AC9901084C
:102A90002C2401200000F0FF0000081100000206B5
:102AA000F0B587B007460E4614460021102268464E
:102AB0001D4616F086F802232A4621468DF802307C
:102AC0006846044BCDE9047601930EF0A7FA07B0EF
:102AD000F0BD00BF5F30010808B5024B1B68984786
:102AE000002008BD9C1A0120034B044A186093780B
:102AF00043F00203937070479C1A0120D407012011
:102B00000649074821F00701C1F1005208B502F556
:102B1000A0220FF068FC002008BD00BF8F8B0120B1
:102B2000A01A012070B541690446867A0A4D59B150
:102B3000437ADB0706D42C2303FB06535B6A1B682E
:102B40009B689847002363612C20214606FB0050B8
:102B5000BDE8704015F08DBAB80B0120827A2C21A7
:102B6000054B01FB02339A6A1B7F801A1B3323F04B
:102B70000303B0FBF3F07047B80B012038B52C24E9
:102B8000827A064B04FB02335B6AD3E901240C60B2
:102B90001568FFF7E3FF04FB005038BDB80B0120B8
:102BA0002DE9F04385B0054690461C4668460391E2
:102BB00015F0D7FCDDE90067EFF31189102383F3EB
:102BC0001288BFF36F8F6B8B002B41D02A8B9A42F8
:102BD00025D90022002328460CF022FE0446F0B13D
:102BE00089F31188BFF36F8F039B002B41D03246CE
:102BF0003B46684615F0D9FCA27A2C21254B20468D
:102C000001FB023303A95B6A1B681D68DDE9002331
:102C1000A847606170BB2046FFF784FF24E0698B02
:102C20004B1E6B8389F31188BFF36F8F2B7F2A8B29
:102C30001B33AC6A521A23F0030302FB0344154B07
:102C4000154AEB1A9B105343A3722B7FE372CBE719
:102C500089F31188BFF36F8F2346424628460CF054
:102C6000DFFD04460028BFD10024204605B0BDE8A2
:102C7000F083636101230025E27A04F118002381C7
:102C80002946039B6560638215F09BFF636925827B
:102C9000E360EAE7B80B0120A38B2EBA70B50C4CA9
:102CA0002C2500B970BD037A4668013BDBB2037284
:102CB000002BF7D1C3604360837A05FB03431B6A93
:102CC00013B198473046ECE7FFF72CFFFAE700BF57
:102CD000B80B0120F0B5EFF31184102383F31288B1
:102CE000BFF36F8F836ADD0740F18380B1F5817F89
:102CF00044D00BD8032930D0042936D05F233F4A73
:102D000016F02EF813504FF0FF3029E040F2031375
:102D10009942F3D1D2E900329988CD070AD5D0E99A
:102D200008152943D98818BF41F00101D9801168DD
:102D300014311160998849071ED5D0E90851023530
:102D400071F1FF31D98834BF0120002041EA8001B0
:102D5000D9801368143313600EE044F20200184067
:102D600084F31188BFF36F8FF0BD126824490A42C3
:102D700041D10B40134383620020F1E7D2E90053B5
:102D80009168AA88D70718D51A68914201D10C23F7
:102D9000B5E7106101271A68567B67F3050656737D
:102DA0001A68967B6FF3451696731A68D6686FF3A8
:102DB0009436D6601A6814321A60AA885607DBD592
:102DC0001A689142E3D01030106101201A68517BDB
:102DD00060F3050151731A68917B6FF3451191738C
:102DE0001A68D1686FF39431D1601A6814321A608E
:102DF000C2E7092383E7162381E700BF0C00000028
:102E0000FDBFFFFF2DE9F341072A1E464FF00003E7
:102E100004460D46CDE900330BD961B90E23364A7D
:102E20004FF0FF3415F09CFF1350204602B0BDE870
:102E3000F0811623F3E7EFF311874FF0100888F3C2
:102E40001288BFF36F8F836A5B040ED5B0470028EA
:102E500050DA4342284A4FF0FF3415F081FF1350F7
:102E600087F31188BFF36F8FDFE715F018FA08B109
:102E70000B23EFE701AB6A4620492046FEF708FA2C
:102E800087F31188BFF36F8F00984FF0FF324FF038
:102E9000FF330CF0FDFBEFF3118788F31288BFF3CB
:102EA0006F8F29462046B04710F10B0F024612D013
:102EB000F0B15242104B4FF0FF3415F051FF1A5051
:102EC00087F31188BFF36F8F01980CF01BFF0098F8
:102ED0000CF056FCA9E787F31188BFF36F8FDDE98B
:102EE00000104FF0FF324FF0FF330CF069FFD2E7D4
:102EF0000824E5E70824B3E70C000000D89901088E
:102F0000014BFFF77FBF00BF81310108014BFFF785
:102F100079BF00BFED310108002373B50546CDE947
:102F2000003315F0BCF9044648B1214B0B224FF099
:102F3000FF3415F015FF1A50204602B070BD01ABEA
:102F40006A461C492846FEF7A3F900984FF0FF3265
:102F50004FF0FF330CF09CFBEFF31186102383F34B
:102F60001288BFF36F8FAB6ADB0711D4104B0922B5
:102F70004FF0FF3415F0F4FE1A5086F31188BFF3BA
:102F80006F8F01980CF0E4FE00980CF0F9FBD3E78A
:102F9000094B0121094AEB1A09481B115A430FF04A
:102FA00069FE00220023AC62C5E90823E5E700BF03
:102FB0000C000000D899010818120120ABAAAAAA97
:102FC000E40701202DE9F34721F480478046894634
:102FD00027F0020757B1234B162215F0C1FE1A50F5
:102FE0004FF0FF35284602B0BDE8F08701AA012165
:102FF0001D480FF0EDFD002804DA1A4B0C2215F0E5
:10300000AFFEECE7019C3023DFF860A05C43FEF7E5
:103010008FF9051E04EB0A0605DA019A0121124810
:103020000FF028FEDCE749F001031034B36254448A
:10303000C6E90887204615F01FFC304615F01CFC39
:10304000B8F1000F03D0394630460DF0D1FD002114
:1030500020460DF0CDFD0023054A31462846FEF7F7
:10306000ADF9BFE70C000000E407012018120120B1
:10307000D899010810B509220C460749FEF7EAF86D
:1030800030B1064B08222146FFF7BCFEC01710BD29
:103090004FF0FF30FBE700BFD8990108ED31010880
:1030A00007B50949CDE900230922FEF7D3F840B15D
:1030B000064B08226946FFF7A5FEC01703B05DF86E
:1030C00004FB4FF0FF30F9E7D8990108813101087E
:1030D0002DE9F04F9DB00F4614461D46069008A8F6
:1030E00015F03FFA4FF00009B846DDF818A04E463B
:1030F000CDF80C90DDE90823CDE904230DAB0A934C
:10310000B8F1000F23D1002E70D0B5F1FF3F08BFFA
:10311000B4F1FF3F4FF0FF300BD0A0424FF00A0256
:103120004FF00003204678EB050829465BD3FDF7F6
:103130009FF8069B4FF482724946CDE900700398D0
:1031400010F084F8064630461DB0BDE8F08FDAF87E
:103150000000002842DB0CAA0BA9FEF7CFF883463B
:1031600000283BD00C984FF0FF324FF0FF330CF0AB
:103170008FFA1CAB4FF48172594601930AAB0B983E
:103180000093534610F062F810F1780F03461AD1FD
:103190000023002208A815F0E4F9DDE90834CDE9A0
:1031A00004340024254623460C9807930CF0E8FAD3
:1031B000079B002B12DA5B42424A15F0D1FD4FF01B
:1031C000FF361350BFE710F1120FEDD1039B13B977
:1031D0000B9BD946039300230126E5E70AF1080A71
:1031E00008F1FF388CE7FDF793F8A2E7DDE9042347
:1031F00008A8DFF8D49015F0D8F9B046DDE9084505
:1032000022462B460DAC0A99091B891009FB01F1D6
:1032100020460DF095FC00F10B030B2B04D82B4E30
:103220001E4116F0010601D04342C5E70A943D460F
:10323000069CB24685B9BAF1000F84D0002E82D127
:1032400008A8DDE9042315F0B0F9DDE908452B46AF
:1032500025432246D6D176E72068A4F806800028C8
:103260002ADB0CAA0BA9FEF749F8834618B92023DC
:10327000E380013620E00C984FF0FF324FF0FF332F
:103280000CF006FA0AAB594640F2031200932346AB
:103290000B980FF0DBFF83460C980CF071FA1BF1D2
:1032A0000B0F0CD0BBF1000F02D0CBF1000383E772
:1032B000B4F90630002BDCD10834013DBAE74FF0F9
:1032C000010AF9E70C000000CDCCCCCC7EF7FFFF63
:1032D000F7B506460D460D488AB2314683681B682D
:1032E0009847002810DA00240CE02F1B042F28BF79
:1032F00004270BF0BBFA019030193C443A4601A96F
:1033000015F037FCA542F0D803B0F0BD24900108B9
:103310002DE9F04105460E461746134CDFF84C8068
:10332000444508D3124B6A2215F01AFD1A504FF08B
:10333000FF30BDE8F0812368AB4200D08BB9A368B1
:103340003A4631462846984758B1094B002215F0B5
:1033500007FD3146C2503A46E3682846BDE8F041D1
:1033600018471034DCE700BFC0940108D09401086E
:103370000C00000073B50D461646694601AAFDF71C
:10338000BDFF0446B0B1009B5B69DBB14FF0FF327B
:103390004FF0FF3301980FF072FF009B204632463A
:1033A0005B6929469847044601980FF06AFF20465A
:1033B00002B070BD0923044A15F0D2FC4FF0FF346F
:1033C0001350F4E75F23F6E70C00000073B50D46D9
:1033D0001646694601AAFDF791FF0446B0B1009B6D
:1033E0009B69DBB14FF0FF324FF0FF3301980FF0D4
:1033F00046FF009B204632469B6929469847044673
:1034000001980FF03EFF204602B070BD0923044A28
:1034100015F0A6FC4FF0FF341350F4E75F23F6E7F6
:103420000C0000002DE9FF410D46164602A903AA33
:103430001F46FDF763FF0446E8B1029B5B6A13B3C6
:103440004FF0FF324FF0FF3303980FF018FF0B9B44
:1034500020463246019329460A9B0093029BD3F8EB
:1034600024803B46C047044603980FF00AFF2046DD
:1034700004B0BDE8F0810923044A15F071FC4FF057
:10348000FF341350F3E75F23F6E700BF0C000000A2
:1034900073B50D461646694601AAFDF72FFF04468F
:1034A000B0B1009B5B6BDBB14FF0FF324FF0FF33ED
:1034B00001980FF0E4FE009B204632465B6B2946E4
:1034C0009847044601980FF0DCFE204602B070BD1C
:1034D0000923044A15F044FC4FF0FF341350F4E77D
:1034E0005F23F6E70C0000002DE9FF410D4616466C
:1034F00002A903AA1F46FDF701FF0446E8B1029B9B
:103500009B6A13B34FF0FF324FF0FF3303980FF075
:10351000B6FE0B9B20463246019329460A9B009338
:10352000029BD3F828803B46C047044603980FF01F
:10353000A8FE204604B0BDE8F0810923044A15F036
:103540000FFC4FF0FF341350F3E75F23F6E700BFA3
:103550000C0000002DE9FF410D46164602A903AA02
:103560001F46FDF7CBFE0446D8B1029BDB6A03B3CE
:103570004FF0FF324FF0FF3303980FF080FE0A9BAD
:103580002046324600932946029BD3F82C803B46C6
:10359000C047044603980FF074FE204604B0BDE80F
:1035A000F0810923044A15F0DBFB4FF0FF34135080
:1035B000F3E75F23F6E700BF0C0000002DE9FF41B1
:1035C0000D46164602A903AA1F46FDF797FE0446BC
:1035D000D8B1029B1B6B03B34FF0FF324FF0FF33A8
:1035E00003980FF04CFE0A9B204632460093294672
:1035F000029BD3F830803B46C047044603980FF047
:1036000040FE204604B0BDE8F0810923044A15F0CD
:10361000A7FB4FF0FF341350F3E75F23F6E700BF3B
:103620000C00000010B5044609B10C2A07D016237F
:103630000F4A15F095FB13504FF0FF3010BD0B688B
:10364000002BF4D0886860B10FF025FE38B994F9EA
:103650008E00002809DC02F03DF90028E7D058234D
:10366000E6E7081D10F0C5FDEEE70FF014FEF4E7E5
:103670000C000000F7B507460E461446FDF758FE4D
:10368000051E18DB3CB97B1E012B04D8022E17D077
:10369000012E08BF0624F1B201ABA2B2B8B203F00A
:1036A000E9FA061E0EDA284676420EF051FF114B5B
:1036B00015F056FB1E504FF0FF35284603B0F0BD05
:1036C0001124E8E7019800234360C365603014F0DB
:1036D00088FC0198783014F0DEFD062C02D10198A8
:1036E00010F0EBFF4FF44043034A01992846FDF7E1
:1036F00065FEE2E70C000000E899010837B5069D79
:103700000446E3B90093002200230E4903F0DCFDD8
:1037100004F1600014F065FC04F1780014F0BBFDC6
:10372000214605F1600014F099FC204610F0C5FF19
:1037300005F1780003B0BDE830400CF0E3BA03B007
:1037400030BD00BFAD3201082DE9F04188B00C4614
:103750000546109EDDE90E8757EA080113D014F1E3
:10376000690F02D014F10B0F0DD1684614F01DFF44
:10377000DDE9002313430ED114F1690F0CBF6FF084
:103780000B046FF0680464422D4B15F0E9FA1C50ED
:103790004FF0FF304AE0B7F1FF3F08BFB8F1FF3FFD
:1037A0000BD00A22002340463946AFB9FCF760FD32
:1037B0003368834294BF33603060D5F8800008B12D
:1037C0000BF0DEFF14F1690F09D130680A21A0FB6C
:1037D000010114F01BFE1FE0FCF79AFDE8E70B3433
:1037E0001AD1B5F88C40C4F38114012CEDD195F9B0
:1037F0008E000FF050FD284612F085FD0022034692
:10380000022103A815F00AF832680A23A2FB032359
:10381000214603A80DF094F933685B00642B28BFA0
:1038200064233360D5F8800018B9002008B0BDE8E3
:10383000F0814FF0FF324FF0FF330BF029FFF4E738
:103840000C000000F8B540F203130446994200F062
:103850008E80B1F5827F0ED2042923D0B1F5817F0D
:103860002BD0032919D06F4B5F2215F079FA1A502B
:103870004FF0FF3015E045F21B43994200F0C48041
:1038800045F22143994200F0BD8040F20513994270
:10389000E9D11368C0F880300DE0C06DC0F340007E
:1038A0008003F8BD1268C36D550423F0020301D5EF
:1038B00043F00203E3650020F3E7D2E900159768BF
:1038C0008B88D8071BD52B689F4202D16FF00B0065
:1038D000E7E704F1600204201A612B685A7B60F369
:1038E00005025A732B689A7B6FF345129A732B6803
:1038F000DA686FF39432DA602B6814332B608B88AC
:103900005A072CD5B4F88C30C3F38113012B02D0A5
:103910006FF07700C5E794F98E000FF0BCFC2E68BD
:10392000B742D3D0B4F88C302046C3F34103012B07
:103930001AD112F0EBFC306102212B685A7B61F343
:1039400005025A732B689A7B6FF345129A732B68A2
:10395000DA686FF39432DA602B6814332B60E36D0E
:1039600013F0050FA7D0D3E712F0CDFCE3E7D2E9BF
:103970000056AB88DB070ED53368DB6813F4EE1F07
:1039800002D1C36DDF0703D5EB8843F00103EB8061
:10399000336814333360AB8858071ED5B4F88C30C5
:1039A000C3F38113012B28D194F98E000FF073FC1F
:1039B0003368DB6813F4FE1F0CD0E36DD90709D41C
:1039C000B4F88C30C3F34103022B02BFEB8843F001
:1039D0000403EB80336814333360E36D5A0742BF4E
:1039E000EB8843F00803EB80E36DDB077FF563AF03
:1039F000EB8843F01003EB805DE7EB8843F00403B2
:103A0000EB80EAE7C36D53E70023146819461A46B2
:103A10000FF0B0FC6FF00043984294BF2060236029
:103A200049E700BF0C00000013B5B0F88C3000214E
:103A300004460022C3F341030091032B4FF000031F
:103A400019D110F054FF042320466360E36D43F066
:103A50000403E3650FF06BFC204603F0D1F9031E6D
:103A600006DA5B42054A15F07BF913504FF0FF333D
:103A7000184602B010BD03F027FCE4E70C0000007C
:103A800037B505460C4611BBB0F88C3000220091CA
:103A9000C3F34103032B4FF000030DD110F027FFB8
:103AA000031E0CDA5B420F4A15F05AF913504FF01F
:103AB000FF34204603B030BD03F006FCF0E7EB6DA9
:103AC000284643F00103EB650FF031FCF1E74C1E93
:103AD00015F046F9034B012C94BF862216221A508A
:103AE000E5E700BF0C00000013B5044603F0B0F991
:103AF000031E07DA5B420E4A15F032F913504FF0FD
:103B0000FF3007E0B4F88C30C3F38113023B012B84
:103B100002D9002002B010BD63680022054920468A
:103B20000093002303F0D0FB031EF2DAE2E700BFAC
:103B30000C000000AD3201082DE9F043B0F88C30E4
:103B4000914685B00446C3F381128846032A09D101
:103B50002B4B5F2215F004F91A504FF0FF3005B0DF
:103B6000BDE8F083C3F34103022B2FD0012BC56DB9
:103B700009D115F0F5F815F0040F214B01D062685A
:103B8000EAE77822E8E715F0020543681DBF002642
:103B900000271C4D47F2305608BF0027012A17D1D5
:103BA000009300220023184903F08EFB002801DA5D
:103BB000434217E063684A464146204602932B463B
:103BC000CDE9006710F0F8FD0028F1DB0020C6E722
:103BD00002934A462B46CDE9006710F0EDFD031E27
:103BE00005DA5B42064A15F0BBF81350B5E7636887
:103BF0000022054920460093002303F065FBE3E71C
:103C00000C0000009B320108AD32010813B5B0F87A
:103C10008C300446C3F38113032B0CD010F0ABFDA2
:103C2000031E0ADA5B420B4A15F09AF813504FF064
:103C3000FF3002B010BD5F23F5E7002200230649E4
:103C40002046009410F053FE002801DA4342EAE7D0
:103C50000020EEE70C000000FD3600082DE9F04FD3
:103C60005B068FB016464FF0FF384FF0FF394FF02C
:103C70000A0204460D46189F0B92CDE90C8903D425
:103C8000C36D13F002034BD000220023CDE90C23B7
:103C900008A814F066FC08A8DDE90C23DDE9088912
:103CA00014F05FFC2C492046DDE90823CDE906230A
:103CB000636800220093002303F006FB031E36DB3B
:103CC0004FF0000A0DF12C0B6168DDE90C23002F89
:103CD00037D0049120462946CDF804A0CDE902232F
:103CE000199B324600933B4610F090FE002825DADF
:103CF0000146CDF808B02046DDE90C23CDE90023CC
:103D000042464B46FFF720FD002817DB08A8DDE9F7
:103D1000062314F04AFCDDE90823CDE90C23D3E7A0
:103D20000CAA052103F014FC0C4A0023B0E75B4207
:103D30000B4A15F015F813504FF0FF300FB0BDE8E7
:103D4000F08FCDE9002302913B46324629462046BA
:103D500010F0FEFDCAE700BFAD320108A0860100E9
:103D60000C0000002DE9F0474FF0FF338CB01546F2
:103D70004FF0FF3204460E46CDE90A230A23099389
:103D80006B0603D4C36D13F0020339D00022002365
:103D9000CDE90A2306A8002714F0E3FB06A80DF1DD
:103DA000240ADDE90A23DDE9068914F0DAFBDDE9FE
:103DB0000623CDE90423DDE90A2331462046029794
:103DC000CDE9002300232A4610F0FBFD00281EDA6F
:103DD0000146CDF808A02046DDE90A23CDE90023FD
:103DE00042464B46FFF7B0FC002810DB06A8DDE991
:103DF000042314F0DAFBDDE90623CDE90A23DAE730
:103E00000AAA052103F0A4FB024A0023C2E70CB072
:103E1000BDE8F087A0860100B0B5D0F8803000AFD3
:103E200004460A4693B96D4688B06A461149C2E90C
:103E30000510032142F8101F0F484FF4C451FDF73D
:103E4000CFFD6FF01500AD46BD46B0BD036E0BB1A2
:103E50000020F9E7D0F88010D2E9002378300BF089
:103E6000AFFF0028F0DBE36D5B07F1D560684042EF
:103E7000EAE700BF19A80108CC950108F7B5B0F82A
:103E80008C3004460F461646C3F38113032B05D12D
:103E9000434B5F2214F064FF1A5012E0C36D9D077C
:103EA00014D44FF0FF334FF0FF326946CDE90023C1
:103EB000FFF7B2FF031E09DA5B42394A14F050FFE4
:103EC00013504FF0FF35284603B0F0BD002204F137
:103ED000600000230BF0A4FC044620B9304B0B22F9
:103EE00014F03EFFD8E7FDF723FA051E06DA204658
:103EF0000FF01DFA204602F083FFE2E704F16000B4
:103F000014F0D4F8A8B190F83730990711D5E36DC3
:103F1000284643F00103E3650EF01AFB20460FF03C
:103F200006FA204602F06CFF1D4B712214F018FFB8
:103F3000B2E7B4F88C305A0508D5194B712214F049
:103F40000FFF1A5028460EF003FBD0E723F400734E
:103F5000A4F88C3077B16EB1326804F1280138468C
:103F6000082A28BF082214F004FE238D012B09D152
:103F7000082333604FF440430A4A21462846FDF7A0
:103F80001DFAA0E7022B01D11823F2E728460EF014
:103F9000DFFA034B862214F0E3FE1A50A7E700BFB6
:103FA0000C000000E89901082DE9F04F8FB01F4682
:103FB0004FF0FF330C4603924FF0FF320646CDE937
:103FC0000423189B5906DDE9195A03D4C36D13F075
:103FD000020330D000220023CDE90423189B06F110
:103FE000600B13F00203DDE90489019337D010223E
:103FF000002109A814F0E5FD0423CDF834B08DF8B4
:10400000313001214B46424609A80CF099FD00F1E0
:104010000B0103460B2918D88C4A0A41D20714D445
:10402000584614F03FF88046F8B9894B0B2214F03B
:1040300097FE1A500EE004AA042103F089FA04A99D
:104040003046FFF7E9FE031EC8DA5B42804A14F0EF
:1040500087FE13504FF0FF300FB0BDE8F08F42469F
:104060004B4658460BF0DCFBDDE7D0E903930093A9
:10407000002D50D0BAF1000F4DD0B6F88A30DAF8E2
:1040800000B0029310F0C4FF98F83720C2F3021278
:104090002A8098F83720C2F30212012A61D1002346
:1040A0001422BBF1070FCDE909323FD90DF1240BE2
:1040B0004046594603F088FC064610B96FF0680286
:1040C00036E00A99404610F0F2FF0028F6D198F841
:1040D0003A10404610F0EBFF0028EFD1F1689DF850
:1040E00008206960112A34D107AA5946099208228A
:1040F0000A92404603F068FC0028DFD00288009B4B
:104100006A80C8F80C90C8F810302A88012A2BD190
:104110000822CAF80020002C62D0E2680AB1A26826
:1041200032BB4B4B0C2214F01BFE82E76FF01502E2
:10413000009B5242C8F80C90C8F81030444914F063
:104140000FFE019B0A50002B84D1404610F0C9FE9F
:1041500080E7062A05D1142207A9CDF81CB00892E1
:10416000C7E76FF08502E3E7022A6DD11822D0E796
:1041700040464FF0000B11F01AF8B842824605464F
:1041800028BFBA46564676B9BD4203D9A26942F065
:104190002002A2612269002A4ED0606978B30F28FC
:1041A00048D866612BE0A26852F80B1002EB0B00B6
:1041B00021B9274B162214F0D3FD3AE74268404656
:1041C000B24228BF3246029210F087FF029A08B12D
:1041D0006922B3E7B2420BF1080BEAD8B61AD2E76C
:1041E000404610F0E4FF87420546039928BF074682
:1041F00040463A46BA4610F070FF0028E8D1019BCD
:10420000E3B9404610F06DFE189B13F0200F0CBF71
:104210005046284620E70E44073121F007071037A3
:1042200017448742BDD821F007010A4411680029CC
:10423000F1D1B6E71044F9E76261E0E7009BC8F806
:104240000C90C8F81030DFE7862277E77EF7FFFF93
:104250000C0000002DE9F04F17468DB01E464FF0C0
:10426000FF324FF0FF330D460446DDF85880CDE9AC
:104270000823B0F88C30D90740F1A880C3F341037C
:10428000022B40F0A58018F0400F02D1C36D9A07B1
:104290001BD500220023CDE90823002E40D008F4CE
:1042A000807BDDE90823CDE90576CDE90A23CDB190
:1042B000C7B9EB688BB96FF015004342454A14F05B
:1042C0004FFD4FF0FF3613502AE013F00503E4D101
:1042D00008AA042103F03CF9DFE7AB681A685B68C1
:1042E00005920793002702A8DDE90A2314F039F9A3
:1042F0003E46DDE90223CDE90023069B63B3E36D6F
:1043000013F0040010D060684042002820EAE076F4
:10431000D3DB18F0020F03D13146204610F0A0FB8A
:1043200030460DB0BDE8F08FDB07EED4DDE90AA919
:104330005AEA090312D1C5B9434606AA05A920467F
:104340000FF018F8831950EA03063DD15AEA09091B
:1043500018D0BBF1000F31D13046D6E70AA920466C
:10436000FFF75AFD0028E6DACFE7434607AA05A97A
:1043700020460EF0FFFF064450EA060305D15AEA34
:10438000090302D16FF00A0097E7AA68FB0052F810
:104390003710014405910699091A069107990029D9
:1043A000D7D10137E9688F42D6D00833D118D25817
:1043B0004B68059207930AB1002BD6D10AA8DDE914
:1043C000002314F0F2F898E71E46C2E7092375E7C8
:1043D000802373E70C000000F0B585B01C4613463F
:1043E000DDE90A670AB3B0F88C20C2F38112951E8A
:1043F000012D08D80A4600940021CDE90167FFF796
:10440000D3FD05B0F0BD012A07D10A4600210A9468
:1044100005B0BDE8F040FFF71DBF054B862214F044
:104420009FFC1A504FF0FF30EBE71046E9E700BF62
:104430000C000000F0B5B0F88C3085B0C3F3811CDF
:10444000644699B18E68D6B10023CF6804361D4604
:10445000AF4218D1023C012C1AD80C1D02940C68F2
:10446000CDE900240022FFF79FFD06E016230C4A49
:1044700014F076FC13504FF0FF3005B0F0BD0C2364
:10448000F5E78623F3E756F835E001357344DFE7B7
:10449000BCF1010FF5D100920022FFF7DBFEECE743
:1044A0000C00000073B50D461C461146069B062DF8
:1044B0004BD005DC002D50D0012D12D06D2360E0D3
:1044C000292DFBD1132A00F09F8000F39880102A39
:1044D00000F09780A2F111010129EFD822460E21A8
:1044E0000AE00F2A2ED00DDC032A1DD0042A15D095
:1044F000022AE3D12246092103F02AF800281BDA18
:1045000043423EE0262A1AD0272AD7D11B68042B23
:1045100036D1B0F88C30C3F3C20303E01B68042B20
:104520002ED14368236007E0B0F88C20C2F38112DB
:104530001B68042B24D12260002002B070BDB0F8AB
:104540008A20F5E722460A21D6E7012AB6D122467B
:1045500002B0BDE8704011F0AFBE202A1DD008DCCB
:10456000022A17D00E2A47D0012AA7D122460821B5
:10457000C2E7212A3DD0222AA0D122461721BBE73B
:104580001623234A14F0ECFB13504FF0FF30D4E70E
:104590006A23F6E722461021AEE7B0F88C20C2F37A
:1045A000C202012AF4D104221B68019294B1934201
:1045B00010D10DEB020313216A4602F0C9FF002857
:1045C0000CDA4342124A4FF0FF3514F0C9FB135086
:1045D0002846B2E71623F5E70223F3E7009808B967
:1045E0002560F5E70FF0FCFC0028F5D04368236058
:1045F000EEE722460D217FE7224614217CE7432A7D
:10460000B3E722460F2177E72246162174E700BF61
:104610000C000000F7B50F461C4606461146062F53
:10462000089B74D005DC002F79D0012F26D06D2394
:1046300057E0292FFBD11A2A00F3C3800F2AF6DD99
:10464000A2F110010A29F2D801A252F821F000BF0C
:10465000CF470008D5470008DB470008E1470008BE
:104660002F4600082F4600082F4600082F46000856
:104670002F4600082F4600088B4600080F2A24D03A
:1046800006DC022A19D00D2AD1D1002003B0F0BDDA
:10469000192ACCD1B0F88C20C2F3C201013901290A
:1046A00000F2A18023B1002C00F09F80217879B91D
:1046B00022F40062A6F88C20E7E72246092102F0E6
:1046C000A9FE0028E1DA43420BE022460A21F6E780
:1046D000082B40F08A80204601F092FD031E07DA85
:1046E0005B42444A14F03CFB13504FF0FF30CDE7DF
:1046F0000EF0D1FD00287AD0B6F88C3043F4006378
:10470000A6F88C3001F0F8FA86F88E00BDE7012A91
:104710008DD1224603B0BDE8F04011F0A1BD242A9E
:1047200085DC1F2A07DC012A4ED0022A7FF47FAFE6
:1047300022461021C3E7A2F12105032D03D8DFE8AB
:1047400005F0323D3636002200921CB10C2B03D00E
:10475000082B16D016231EE0A06890B10EF09BFD2A
:104760000090009808B101F0C7FA042301901321CA
:1047700030460DEB030202F04DFE002811DA4342F1
:1047800009E06368002BECD06946201D01F084F934
:104790000028E6D10223174A4FF0FF3714F0E0FA61
:1047A0001350384672E722460D21304687E71A46F5
:1047B000214603B0BDE8F040FEF734BF2246172182
:1047C000F3E7432A7FF433AF2246082177E72246F6
:1047D0000F21EAE722461321E7E722460E21E4E70C
:1047E00022461621E1E76A237BE7162379E71323A4
:1047F00077E700BF0C000000034613B51446B3F87A
:104800008C200846C2F38111032903D000B164B99A
:10481000162300E05F23144A14F0A2FA13504FF05D
:10482000FF3002B010BD8023F5E712F4807FFAD08C
:10483000012903D1C2F34102022AF4D11A8D012ABF
:10484000E6D1ADF8002069465A8DDB6AADF802204A
:1048500022680193082A28BF082214F08AF9082345
:1048600000202360DDE700BF0C000000F0B5154616
:10487000028C85B00E46012A4FF0000423D1436A12
:10488000CDE90244EBB1082301AA0DEB030101932A
:1048900010F0FCF8031E07DA5B420E4A14F060FACF
:1048A00013504FF0FF300AE0019F02A92A683046FA
:1048B000BA4228BF3A4614F05CF920462F6005B092
:1048C000F0BD1623E9E7034B162214F049FA1A50FB
:1048D000E7E700BF0C0000002DE9F843044600AFF5
:1048E0008846164699464FF0FF334FF0FF32354861
:1048F0000AF0CEFE344B1B7803BB4FF0FF324FF073
:10490000FF33304931480BF05BFA314B9C4252D3B4
:10491000304B9C424FD2002314214FF0FF301D46F4
:104920006268934225DBB8F1000F2CD12A4901229D
:10493000002300240868FEF7B3FB13E0032BE4D048
:104940006D4688B06A46254BC2E90534032342F818
:10495000103F00234FF4C25121486FF00404FDF7CB
:104960003FF8AD4617480AF00BFF2046BD46BDE8AC
:10497000F88301FB03FC2268013362445060226823
:1049800062441581CCE7964218DC00234FF0140CEA
:104990009E42CBDD0CFB03FE256808EBC30201330E
:1049A000754492E80300043585E8030022687244E8
:1049B000C2F80C90ECE76FF00104D3E76FF00B0442
:1049C000D0E700BF980A01202D240120B00B012060
:1049D000D0940108DC940108B01A01203CA8010819
:1049E000DC9501082DE9F04F6D4B87B0DFF8B491ED
:1049F00002AFA9EB03020B2A35D86B4A03216B489F
:104A00000EF02BFA6A4B01221A706A480BF0A0F9DB
:104A100041E09A680C33166053F8082C90444B45DB
:104A200008F10106F5D3032E20D90323624A0121A0
:104A30005E48009333460EF023FA6C468AB002AA11
:104A40005E4B53615E4BC2E906364FF4007313842C
:104A50005C4B42F8103F00234FF411515348FCF7D0
:104A6000BFFFA546CEE74FF00008D8E70021564D1E
:104A70000846AE61FEF7A6FA041E10DA534B14F096
:104A80006FF91B585B42524A012148480EF0EEF97B
:104A90000223474A13701437BD46BDE8F08F032345
:104AA000434A137043484FF0140A0BF051F90123A5
:104AB0002C60AB804FF0FF334FF0FF3245480AF0D7
:104AC000E7FD374B4B4514D2D3F804C000240CE06B
:104AD0009A68186812680AFB04002244013405EB46
:104AE000C202D0E9010182E80300A445F0DC0C33E6
:104AF000E8E738480AF044FE4FF0FF3231463248CA
:104B00000EF0B3FB002806DA304B14F029F91B58DD
:104B10005B42314AB8E7BBD02B4C4FF0010BC34589
:104B20000DDD0028E8D0B5F90630002BE4D007F100
:104B300008012868FEF79EFA0023EB80BAE7D4F854
:104B400008C0BCF1000F26DBB4F90E30002B22DDCB
:104B5000134B0AE01A680AFB0022D2F804E0F4457D
:104B600008D001308842F5DB0C334B45A2D259689E
:104B70000020F7E71361131DD4E9020183E8030065
:104B80004FF0FF31A3681046A1607B600EF09CFCE3
:104B90007B680020A3600BF1010B0834BFE700BF66
:104BA000D0940108DC9401087AA80108DC9501087A
:104BB0002D240120B00B0120A6A80108E7A80108B8
:104BC00012A9010804000001B01A01200C00000025
:104BD00027A90108980A012040A9010800B589B059
:104BE000002200230A490B48CDE9062300230E22A8
:104BF000CDE90133CDE9032300934FF49862064BCE
:104C00000BF052F9054909B05DF804EB13F04DBB08
:104C10000028012048120120E549000851A9010897
:104C20002DE9F041D1F8088005460C46D8F80C3043
:104C300013B90220BDE8F081B8F810200D2AF8D988
:104C4000D3F806104FF0030C9E890620C4F82610F6
:104C5000598972BA84F82500618504F12E0184F81F
:104C600024C097B2D3F800E0C4F82EE09B8884F803
:104C70002D000846638684F82CC0A2860EF06FFCD7
:104C800094F82E3003F0010385B1D5F800C0BCF1D3
:104C9000000F0BD09CF81120062A07D148B943B960
:104CA0000CF1120013F0F7FD18B1C2E708B9002BA0
:104CB000BFD00E2108F10C000EF04BFAA3688BB99F
:104CC000214B224A22499342B3D29889B84207D154
:104CD0005868884204D1D3F80880B8F1000F03D196
:104CE0001033F0E75B68EAE7224639462846C047BA
:104CF00000289FD002289CD048F688639E4299D015
:104D000094F83730C3F30213012B13D1A368DB6887
:104D10005B885BBA9BB22D2B8CD8A268002A89D005
:104D2000118A994232BF5B1A13820023526838BF3E
:104D30009BB2F3E7022B7FF47DAFA368DB689B880F
:104D40005BBA2833E6E700BFA0940108C0940108CD
:104D5000440D012000487047A6A90108F0B58DB0A8
:104D6000154604460E4630220021684613F029FFFE
:104D7000012320468DF807508DF800300EF0BEFB61
:104D800005468768CCB12368BBB15A680C4B9A4280
:104D900013D120460EF0B7FBC3040ED56FB13C69AA
:104DA0005CB13388012B08D10DF10101301D0EF0EB
:104DB00036FC6A460A212846A0470DB0F0BD00BF68
:104DC000440D01202DE9F04F83B081460E4600AF1F
:104DD0000EF094FB8A8ED0F808A092FA92F81FFA8F
:104DE00088F8BAF1000F00F0C480DAF81C30002B0C
:104DF0006DD091F83730C3F30213012B75D1B2F5A2
:104E0000006F72D18B688D69DC6801F0EFFC03687C
:104E100022699A4213D004F11001284600F0C2FD25
:104E200068B9B368D968103108460EF05AFB0246DB
:104E300028B93B1D304600F039F9054640BB3446E1
:104E40004FF0080894F82D304BB94B4B1A68C4F852
:104E50002D209A889B79A4F8312084F833304FF4C0
:104E60007A7200230E21204602F04AFC8346002875
:104E70003DD16FF00B05B8F5C16F31D1304610F060
:104E800010F8A3684846D968103100F087FB62E04B
:104E900001281FD1304610F024F87C68B4F8348023
:104EA00098FA98F81FFA88F8B8F1000FCAD16D4641
:104EB00088B06A46314BC2E90534032342F8103FFB
:104EC0004FF4C25143462E48FCF78AFDAD466FF0C1
:104ED000850505E0022803D10025304610F001F8D1
:104EE00028460C37BD46BDE8F08F3446DCE750F865
:104EF0000C5F0E210EF014F9B8F5C16F2FD094F8A5
:104F00003730C3F30213012B29D1A368DA681032BA
:104F100010460EF0E6FA10B3294610460EF07FFB5D
:104F2000D4F8263059462046C5F80630638DA5F8DA
:104F30000C806B810FF0FCFF204610F069F84846AA
:104F4000DAF81C3021460EF0D9FA984705460028B9
:104F500091D1A3684BB920460FF0C3FFC0E7D4F846
:104F60002E302B60638EAB80DAE71A8A5B681544BB
:104F7000F0E76FF00105B3E78CA9010871A90108FA
:104F80006C95010838B50123054611490EF0B1FAB8
:104F9000037604464561043013F00EF928460EF0FE
:104FA000B2FA4205284642BF237E43F0040323762B
:104FB0000EF0A9FAC30404D5064A0021064800F001
:104FC0009BFC00F0FFFA637E43F00203637638BD7A
:104FD000ED3501085D4D0008CC1A012008B5084BDD
:104FE0005A683AB11B68002123B19A4204D104489F
:104FF0000EF05AFB104608BD19461B68F4E700BFC7
:10500000EC1A01202DE9F8430EF077FB4FF0FF3347
:1050100006464FF0FF3221480EF099FB204B1C68EA
:105020005CB12568C6F5FA69DFF874801D4F34B9A4
:105030001A48BDE8F8430EF0B7BB2546F2E76268B0
:1050400009EB0203002B21DC012120460EF0BAFB04
:105050002246002140460EF027FB002323607B6898
:1050600033B9C7E9004435B12B682C461D46DEE74D
:105070001C607C60F7E72B46F7E702F5FA620A232B
:10508000A2FB032308480AF037FED1E7921B12F572
:10509000FA6FF2D100221346F4E700BFD81A0120BC
:1050A000F41A0120FC1A0120C81201202DE9F04F4A
:1050B00089B00C469146054602AFBB6040B3836899
:1050C00033B35ABB80690EF066FF38BBA8698368AA
:1050D00023B3DE6B03F13C0B0EBB00F00DFE21464B
:1050E0000546012001F090FA6C468AB002AA944B62
:1050F000D061C2E9053540F201331384914B42F887
:10510000103F4FF4115133468F48FCF769FCA54618
:105110006FF015001C37BD46BDE8F08FA3468B4EDF
:105120004FF0FF324FF0FF3389480EF010FB0023A1
:10513000D6F800805A467B6107F11403A9694046FE
:105140000EF024FB0446002832D1DFF808A2034603
:10515000DAF800000EF01AFB0646002849D17E4816
:105160000468002C41D0224631460EF09DFAAB690E
:10517000FB60B9F1000F4FD14FF47A7200231C216C
:10518000CDE90023F8684B464A4602F0F9FB064693
:10519000002842D11CB121466F480EF07EFA6C48BF
:1051A0000EF002FB0023BA686FF00B001360B1E74A
:1051B000404507D00246796930460EF075FA21461F
:1051C0000EF06BFA62480EF0EFFAA0680EF07CFA6F
:1051D000811C05F124000EF0BCFA05F12C0004F14D
:1051E00010010EF0B6FA002094E7FFF7F7FE044630
:1051F000BDE728460FF055FE0546014606F11800AA
:1052000012F041FF20B152480EF0CEFA022081E7A1
:1052100028460FF066FEAAE72E4640F60603012256
:10522000B0681C21B38696F837300C3062F3061351
:1052300086F837300DF074FFB368D3F80C8006F1B0
:1052400024037B60002C67D028460FF02AFE2946F5
:1052500004F1180012F002FFB369A360DBF800301C
:10526000E360A0680EF030FA811C06F124000EF015
:1052700070FA00232360DAF80430002B48D1CAE921
:1052800000440EF03AFA6060344813F048F90843DD
:1052900005D144F62062002331480AF02DFDFFF7C6
:1052A00059FD014606F12C0001220EF052FA0821A8
:1052B000002388F8012088F80210062188F80030C1
:1052C00088F80410042188F8033088F8051088F85D
:1052D000063088F80720C8F81230A8F81630DBF836
:1052E0000030C8F81830D6F82630C8F80830738D6A
:1052F000A8F80C30CCB9AB68D8680C300368C8F893
:105300000E3013480EF050FABB6801201E6001E712
:105310001C60CAF80440B4E7F8680EF0D5F9811CA7
:1053200006F124000EF015FAB9E7A368494698681B
:105330000EF018FA0028E1D1C8F80E00E1E700BF2E
:10534000ACA90108040000011C950108EC1A012019
:10535000D81A0120F41A0120FC1A0120D8120120C9
:10536000C81201202DE9F74F05460F46164698460C
:105370009DF830900EF0E0F938B94FF0FF324FF061
:10538000FF3305F174000EF0E2F9DFF82CA14FF0C5
:10539000FF324FF0FF3349480EF0D9F90023DAF815
:1053A00000B03A460193294601AB58460EF0EEF99B
:1053B000044680BBBBF1000F02D1414812F04BFF05
:1053C000B8F1000F0BD03F4801AB3A4629460068C0
:1053D0000EF0DCF918B133680361B3888382B9F148
:1053E000000F0FD00023374829463A46019301ABFE
:1053F00000680EF0CBF9014600283FD03368036106
:10540000B38883822D480EF0CFF9284603B0BDE85B
:10541000F04F0EF0CBB90246019950460EF044F918
:10542000DAF8003013B9264812F015FF336804F19A
:105430001807214623482361B388A3820EF02DF973
:10544000A369002BDED04FF0FF334FF0FF32384618
:105450000AF0E6F9836806462C30D9680EF079F92F
:105460003DB32B682BB35B68314628465B68984791
:105470000028E5DA30460FF034FDE1E71248046811
:105480008CB122460EF010F90EF037F9C4E901058F
:105490003B68E360336821460A482361B388A382EE
:1054A0000EF0FBF8AEE7FFF799FD04460028EBD1BC
:1054B000A8E700235B68FFDEF41A0120D81A012058
:1054C000C8120120EC1A0120FC1A01202DE9F84332
:1054D000DFF8B48005464FF0FF324FF0FF332B4822
:1054E0000EF035F9D8F8004024B126680027DFF81F
:1054F000A09094B9274F3C682CB126684FF0000863
:10550000DFF88C9024BB3B6813B9234812F0A3FE4C
:105510001E48BDE8F8430EF047B9234615B1A2680E
:10552000AA420DD1002120460EF04CF939464046E2
:1055300022460EF0B9F8214648460EF0AEF83B463A
:1055400026B1326834461F461646D2E73246F9E79E
:10555000234615B1A26895420DD1012120460EF0D7
:1055600031F94146384622460EF09EF8214648461B
:105570000EF093F8434626B13268344698461646F4
:10558000C0E73246F9E700BFEC1A0120D81A012023
:10559000FC1A0120F41A0120C81201200A46014613
:1055A000074808B5002300680EF0F0F820B101218B
:1055B0000EF008F9002008BD6FF00100FBE700BF06
:1055C000F41A012038B5124D2B7803BB114A124C46
:1055D000C2E90033114AC4E90033C2E9003310487C
:1055E00012F0FFFC0F4920460EF057F801F1480079
:1055F00012F0F7FC20460C490EF04FF80B490C480E
:1056000012F01BFE0B4812F05BFC01232B7038BD1F
:105610002E240120F41A0120FC1A0120EC1A01208A
:105620001C1B0120041B0120341B01200550000815
:10563000C8120120D81A0120036804481BBA1B0CA9
:105640001B041B1A58425841704700BF0000FEA9B6
:10565000174B70B58CB005460EF06BFB83420C46C1
:10566000164602D001200CB070BD28460EF066FB35
:105670008368002BF6D0DB68002BF3D098470442F8
:10568000F0D02846C4F110010EF058FB8368C9B26F
:105690005B690BB90020E6E76A4698470028F9D114
:1056A000009B36EA030314BF01200020DBE700BFA4
:1056B000440D01204FF0FF334FF0FF3270B5054627
:1056C00018480EF092FB184B196879B10A684FF030
:1056D000FF334FF47A7659B95A1C1BD1134812F094
:1056E000BAFD1048BDE870400EF088BB0A46EEE7F0
:1056F000CC69098C641B06FB0141002909DD8B4242
:1057000028BF0B461AB1106811460246E3E710465F
:10571000FAE700230A220548A3FB02230AF0ECFA69
:10572000DFE700BFAC0A0120C81B0120F8120120EE
:105730002DE9F341044615460E4698460EF057FBF8
:10574000A26882B9002732E051400E062BD403F143
:105750000802D2B201334900DBB2C9B2934222D06F
:10576000080620D4F6E7936915491940154B99426C
:10577000E8D11388012BE5D1171D3846FFF75CFFF0
:105780004045DFD15368013ED26901A8134001931F
:10579000002316F8011F10F8012B9142D4D10833D1
:1057A000DBB2202BF5D12A789A42CBD82B7004F1AA
:1057B00060000EF023FB384602B0BDE8F08100BF68
:1057C00000FF0200000102002DE9F047254E0EF017
:1057D000DDFA4FF0FF3280464FF0FF3322480EF0E3
:1057E00004FB34682CB1002527684FF47A7AA94667
:1057F0003CB94046FFF75EFF1B48BDE8F0470EF09E
:10580000FDBAE3692246218CA3EB08030AFB0133AE
:10581000002B19DCA388012B06D1102304F1080208
:10582000A169124801F0F8F823689DB972683360E5
:10583000944200D1736094F822302A46C4F8009054
:1058400069F3000384F8223057B13B683C461546A3
:105850001F46CDE72B6073689C4208BF7560EAE77E
:105860003B46F3E7C81B0120AC0A0120060003E019
:1058700008B5034A022103480DF0EFFA002008BDE5
:1058800001AA010884950108002809DD431E902221
:10589000044802FB0300044B984228BF00207047D5
:1058A00000207047980C0120280D012008B5024601
:1058B000064B07498B4202D30023184608BD184601
:1058C0000EF03CFA8242F8D09033F3E7980C0120B6
:1058D000280D0120054B064A934201D1FFF7C8BFAE
:1058E000044A1068002808BF18467047980C012029
:1058F000280D0120D01B0120F8B504460D4D4FF0B6
:10590000FF330D4816464FF0FF320F460EF06DFA8A
:10591000214628460EF0F2F92B6823606B682C6054
:1059200003B96C600448C4E90176BDE8F8400EF0A4
:1059300065BA00BF701B0120AC0A012038B50446CF
:105940000D460EF054FA062120460EF013FA10B35D
:10595000A36843B105B12B60002504F160000EF08F
:105960004DFA284638BD4FF0FF324FF0FF330B4859
:105970000EF03BFA0A4B5A6C3AB9A3605C6405B16D
:105980002B6006480EF03AFAE6E704486FF002058D
:105990000EF034FAE1E76FF08505DEE7AC0A01208E
:1059A000801B012070B50D4668B1BDE870400EF057
:1059B00073BA294620460EF06FFA18B99034B442F3
:1059C000F7D3002070BD014C014EF8E7980C012080
:1059D000280D012000232DE9F34105460E468DF8E0
:1059E000073000294ED00846FFF726FE034628BBA5
:1059F000FDB10DF107022846FFF79AFE04460CE0C0
:105A0000384600230DF107023146FFF791FE90372B
:105A1000002818BF04464745F2D3A4BB01212846FD
:105A20000EF0DBFA044670BB02B0BDE8F04100F0B6
:105A3000D9BE2C46164FDFF85C80ECE7EDB10121B2
:105A400028460EF0C7FAD9E7204601230DF10702D8
:105A50003146FFF76DFE9034002818BF07464445D5
:105A6000F2D3FFF737FF01230DF107023146FFF7AD
:105A70005FFE044638B93C46CFE72F46044CDFF8BA
:105A80001480ECE70C46204602B0BDE8F08100BF70
:105A9000980C0120280D0120F8B506460D46114C42
:105AA000114FBC4201D3002419E020460EF09FF9AB
:105AB000A36804F160001BB990340EF09FF9F0E781
:105AC0009A7E9207F8D51A88012AF5D1326859686A
:105AD0009142F1D105B12C601C460EF08FF92046A1
