:020000040800F2
:10000000003A0120BD44000805400008A94400084A
:10001000A9440008A9440008A94400080000000001
:100020000000000000000000000000007145000812
:10003000A9440008000000001D450008957A00084A
:10004000E1460008E1460008E1460008E1460008F4
:10005000E1460008E1460008E1460008E1460008E4
:10006000E1460008E1460008E1460008E1460008D4
:10007000E1460008E1460008E1460008E1460008C4
:10008000E1460008E1460008E1460008E1460008B4
:10009000E1460008E1460008E1460008E1460008A4
:1000A000E1460008E1460008E1460008E146000894
:1000B000E1460008E1460008E1460008E146000884
:1000C000E1460008E1460008E1460008E146000874
:1000D000E1460008E1460008E1460008E146000864
:1000E000E1460008E1460008E1460008E146000854
:1000F000E1460008E1460008E1460008E146000844
:10010000E1460008E1460008E1460008E146000833
:10011000E1460008E1460008E1460008E146000823
:10012000E1460008E1460008E1460008E146000813
:10013000E1460008E1460008E1460008E146000803
:10014000E1460008E1460008E1460008E1460008F3
:10015000E1460008E1460008E1460008E1460008E3
:10016000E1460008E1460008E1460008E1460008D3
:10017000E1460008E1460008E1460008E1460008C3
:10018000E1460008E1460008E1460008E1460008B3
:10019000E1460008E1460008E1460008E1460008A3
:1001A000E1460008E1460008E1460008E146000893
:1001B000E1460008E1460008E1460008E146000883
:0801C000E1460008E1460008D9
:1002000090F800F06DE9024520F007016FF0000C56
:1002100010F0070491F820F040F049804FF00004FE
:100220006FF00700D1E9002391F840F000F10800D9
:1002300082FA4CF2A4FA8CF283FA4CF3A2FA8CF311
:100240004BBBD1E9022382FA4CF200F10800A4FA78
:100250008CF283FA4CF3A2FA8CF3E3B9D1E90423CC
:1002600082FA4CF200F10800A4FA8CF283FA4CF303
:10027000A2FA8CF37BB9D1E9062301F1200182FABD
:100280004CF200F10800A4FA8CF283FA4CF3A2FAC3
:100290008CF3002BC6D0002A04BF04301A4612BAD1
:1002A000B2FA82F2FDE8024500EBD2007047D1E9D4
:1002B000002304F00305C4F100004FEAC50514F063
:1002C000040F91F840F00CFA05F562EA05021CBF34
:1002D00063EA050362464FF00004A9E7000000004E
:1002E00001F0FF01102A2BDB10F0070F08D010F8E7
:1002F000013B013A8B422DD010F0070F42B3F6D1EB
:10030000F0B441EA012141EA014122F007047FF003
:1003100000070023F0E80256083C85EA010586EA5A
:10032000010685FA47F5A3FA87F586FA47F6A5FA96
:1003300087F68EB9EED1F0BC01F0FF0102F00702A2
:1003400032B110F8013B013A83EA010313B1F8D14D
:100350000020704701387047002D06BF354603382E
:10036000073815F0010F07D1013015F4807F02BF67
:10037000013015F4C03F0130F0BC0138704700BFB8
:10038000844641EA000313F003036DD1403A41D3A0
:1003900051F8043B40F8043B51F8043B40F8043B5F
:1003A00051F8043B40F8043B51F8043B40F8043B4F
:1003B00051F8043B40F8043B51F8043B40F8043B3F
:1003C00051F8043B40F8043B51F8043B40F8043B2F
:1003D00051F8043B40F8043B51F8043B40F8043B1F
:1003E00051F8043B40F8043B51F8043B40F8043B0F
:1003F00051F8043B40F8043B51F8043B40F8043BFF
:1004000051F8043B40F8043B51F8043B40F8043BEE
:10041000403ABDD2303211D351F8043B40F8043B8E
:1004200051F8043B40F8043B51F8043B40F8043BCE
:1004300051F8043B40F8043B103AEDD20C3205D39E
:1004400051F8043B40F8043B043AF9D2043208D096
:10045000D2071CBF11F8013B00F8013B01D30B8808
:1004600003806046704700BF082A13D38B078DD0E6
:1004700010F003038AD0C3F10403D21ADB071CBFB8
:1004800011F8013B00F8013B80D331F8023B20F822
:10049000023B7BE7043AD9D3013A11F8013B00F85B
:1004A000013BF9D20B7803704B7843708B788370E3
:1004B0006046704781F0004102E000BF83F00043D6
:1004C00030B54FEA41044FEA430594EA050F08BFEF
:1004D00090EA020F1FBF54EA000C55EA020C7FEAB3
:1004E000645C7FEA655C00F0E2804FEA5454D4EB30
:1004F0005555B8BF6D420CDD2C4480EA020281EAFA
:10050000030382EA000083EA010180EA020281EA31
:100510000303362D88BF30BD11F0004F4FEA013183
:100520004FF4801C4CEA113102D0404261EB410192
:1005300013F0004F4FEA03334CEA133302D0524218
:1005400063EB430394EA050F00F0A780A4F10104D4
:10055000D5F1200E0DDB02FA0EFC22FA05F280180E
:1005600041F1000103FA0EF2801843FA05F35941F4
:100570000EE0A5F120050EF1200E012A03FA0EFC73
:1005800028BF4CF0020C43FA05F3C01851EBE3719D
:1005900001F0004507D54FF0000EDCF1000C7EEBBA
:1005A00000006EEB0101B1F5801F1BD3B1F5001FF8
:1005B0000CD349085FEA30004FEA3C0C04F1010417
:1005C0004FEA445212F5800F80F09A80BCF1004F40
:1005D00008BF5FEA500C50F1000041EB045141EAC2
:1005E000050130BD5FEA4C0C404141EB0101013C8B
:1005F00028BFB1F5801FE9D291F0000F04BF01467A
:100600000020B1FA81F308BF2033A3F10B03B3F14B
:1006100020020CDA0C3208DD02F1140CC2F10C02DB
:1006200001FA0CF021FA02F10CE002F11402D8BF39
:10063000C2F1200C01FA02F120FA0CFCDCBF41EA05
:100640000C019040E41AA2BF01EB0451294330BDD4
:100650006FEA04041F3C1CDA0C340EDC04F11404B1
:10066000C4F1200220FA04F001FA02F340EA030088
:1006700021FA04F345EA030130BDC4F10C04C4F1CE
:10068000200220FA02F001FA04F340EA03002946AE
:1006900030BD21FA04F0294630BD94F0000F83F4F8
:1006A000801306BF81F480110134013D4EE77FEADB
:1006B000645C18BF7FEA655C29D094EA050F08BF27
:1006C00090EA020F05D054EA000C04BF1946104608
:1006D00030BD91EA030F1EBF0021002030BD5FEA4C
:1006E000545C05D14000494128BF41F0004130BD74
:1006F00014F580043CBF01F5801130BD01F00045C8
:1007000045F0FE4141F470014FF0000030BD7FEA3A
:10071000645C1ABF194610467FEA655C1CBF0B4635
:10072000024650EA013406BF52EA033591EA030F4C
:1007300041F4002130BD00BF90F0000F04BF002144
:10074000704730B54FF4806404F132044FF0000577
:100750004FF0000150E700BF90F0000F04BF0021F0
:10076000704730B54FF4806404F1320410F0004556
:1007700048BF40424FF000013EE700BF42004FEA51
:10078000E2014FEA31014FEA02701FBF12F07F43CE
:1007900093F07F4F81F06051704732F07F4208BF85
:1007A000704793F07F4F04BF41F40021704730B58C
:1007B0004FF4607401F0004521F000411CE700BFD8
:1007C00050EA010208BF704730B54FF000050AE05B
:1007D00050EA010208BF704730B511F0004502D55C
:1007E000404261EB41014FF4806404F132045FEA5E
:1007F000915C3FF4D8AE4FF003025FEADC0C18BF07
:1008000003325FEADC0C18BF033202EBDC02C2F1F8
:10081000200300FA03FC20FA02F001FA03FE40EA8A
:100820000E0021FA02F11444BDE600BF70B54FF08E
:10083000FF0C4CF4E06C1CEA11541DBF1CEA13556C
:1008400094EA0C0F95EA0C0F00F0DEF82C4481EAD4
:10085000030621EA4C5123EA4C5350EA013518BFF4
:1008600052EA033541F4801143F4801338D0A0FBE1
:1008700002CE4FF00005E1FB02E506F00042E0FB8E
:1008800003E54FF00006E1FB03569CF0000F18BF94
:100890004EF0010EA4F1FF04B6F5007F64F540743C
:1008A00004D25FEA4E0E6D4146EB060642EAC621CF
:1008B00041EA55514FEAC52040EA5E504FEACE2E3C
:1008C000B4F1FD0C88BFBCF5E06F1ED8BEF1004F3F
:1008D00008BF5FEA500E50F1000041EB045170BDBB
:1008E00006F0004646EA010140EA020081EA0301FF
:1008F000B4EB5C04C2BFD4EB0C0541EA045170BDFB
:1009000041F480114FF0000E013C00F3AB8014F174
:10091000360FDEBF002001F0004170BDC4F10004BD
:10092000203C35DA0C341BDC04F11404C4F120053E
:1009300000FA05F320FA04F001FA05F240EA020099
:1009400001F0004221F0004110EBD37021FA04F6CF
:1009500042EB06015EEA430E08BF20EAD37070BD89
:10096000C4F10C04C4F1200500FA04F320FA05F0E8
:1009700001FA04F240EA020001F0004110EBD370EA
:1009800041F100015EEA430E08BF20EAD37070BD5A
:10099000C4F1200500FA05F24EEA020E20FA04F333
:1009A00001FA05F243EA020321FA04F001F00041E2
:1009B00021FA04F220EA020000EBD3705EEA430E53
:1009C00008BF20EAD37070BD94F0000F0FD101F082
:1009D0000046400041EB010111F4801F08BF013CBB
:1009E000F7D041EA060195F0000F18BF704703F0F9
:1009F0000046520043EB030313F4801F08BF013D80
:100A0000F7D043EA0603704794EA0C0F0CEA13553B
:100A100018BF95EA0C0F0CD050EA410618BF52EAF5
:100A20004306D1D181EA030101F000414FF00000FB
:100A300070BD50EA410606BF1046194652EA430609
:100A400019D094EA0C0F02D150EA013613D195EA7D
:100A50000C0F05D152EA03361CBF104619460AD1C5
:100A600081EA030101F0004141F0FE4141F47001CF
:100A70004FF0000070BD41F0FE4141F4780170BDBF
:100A800070B54FF0FF0C4CF4E06C1CEA11541DBF24
:100A90001CEA135594EA0C0F95EA0C0F00F0A7F826
:100AA000A4EB050481EA030E52EA03354FEA013153
:100AB00000F088804FEA03334FF0805545EA131366
:100AC00043EA12634FEA022245EA111545EA10652E
:100AD0004FEA00260EF000419D4208BF964244F1C5
:100AE000FD0404F5407402D25B084FEA3202B61AE4
:100AF00065EB03055B084FEA32024FF480104FF4B8
:100B0000002CB6EB020E75EB030E22BFB61A75462B
:100B100040EA0C005B084FEA3202B6EB020E75EBBE
:100B2000030E22BFB61A754640EA5C005B084FEA26
:100B30003202B6EB020E75EB030E22BFB61A7546F3
:100B400040EA9C005B084FEA3202B6EB020E75EBFE
:100B5000030E22BFB61A754640EADC0055EA060EBF
:100B600018D04FEA051545EA16754FEA06164FEA02
:100B7000C30343EA52734FEAC2025FEA1C1CC0D1AE
:100B800011F4801F0BD141EA00014FF000004FF03B
:100B9000004CB6E711F4801F04BF01430020B4F1FC
:100BA000FD0C88BFBCF5E06F3FF6AFAEB5EB030CB4
:100BB00004BFB6EB020C5FEA500C50F1000041EBB1
:100BC000045170BD0EF0004E4EEA113114EB5C047E
:100BD000C2BFD4EB0C0541EA045170BD41F4801151
:100BE0004FF0000E013C90E645EA060E8DE60CEA59
:100BF000135594EA0C0F08BF95EA0C0F3FF43BAF76
:100C000094EA0C0F0AD150EA01347FF434AF95EA2C
:100C10000C0F7FF425AF104619462CE795EA0C0F10
:100C200006D152EA03353FF4FDAE1046194622E7DD
:100C300050EA410618BF52EA43067FF4C5AE50EAB7
:100C400041047FF40DAF52EA43057FF4EBAE12E7A7
:100C50004FF0FF3C06E000BF4FF0010C02E000BF88
:100C60004FF0010C4DF804CD4FEA410C7FEA6C5C6B
:100C70004FEA430C18BF7FEA6C5C1BD001B050EA0E
:100C8000410C0CBF52EA430C91EA030F02BF90EAF9
:100C9000020F0020704710F1000F91EA030F58BFB8
:100CA000994208BF90422CBFD8176FEAE37040F01A
:100CB000010070474FEA410C7FEA6C5C02D150EAB8
:100CC000013C07D14FEA430C7FEA6C5CD6D152EA73
:100CD000033CD3D05DF8040B704700BF8446104638
:100CE00062468C461946634600E000BF01B5FFF737
:100CF000B7FF002848BF10F1000F01BD4DF808ED07
:100D0000FFF7F4FF0CBF012000205DF808FB00BFD7
:100D10004DF808EDFFF7EAFF34BF012000205DF831
:100D200008FB00BF4DF808EDFFF7E0FF94BF01207E
:100D300000205DF808FB00BF4DF808EDFFF7CEFF7F
:100D400094BF012000205DF808FB00BF4DF808EDBE
:100D5000FFF7C4FF34BF012000205DF808FB00BF8F
:100D60004FEA410C7FEA6C5C02D150EA013C0AD1A7
:100D70004FEA430C7FEA6C5C02D152EA033C02D199
:100D80004FF0000070474FF0010070474FEA4102FA
:100D900012F5001215D211D56FF47873B3EB6252CD
:100DA00012D94FEAC12343F0004343EA505311F0F4
:100DB000004F23FA02F018BF404270474FF0000086
:100DC000704750EA013005D111F0004008BF6FF0C4
:100DD000004070474FF00000704700BF53B94AB958
:100DE000002908BF00281CBF4FF0FF314FF0FF3033
:100DF00000F00CB8ADF1080C6DE904CE00F008F875
:100E0000DDF804E0DDE9022304B07047704700BF5D
:100E10002DE9F04786468C460846089E15467446DE
:100E20001946002B40F0C2808542B2FA82F245D9C1
:100E30004AB1C2F1200300FA02FC2EFA03F39540F6
:100E400043EA0C0C94404FEA154EA8B2BCFBFEF8E6
:100E5000230C0EFB18CC08FB00F943EA0C43994520
:100E600028D9EB1808F1FF3704D2994502D9A8F127
:100E700002072B44A3EB0903A4B2B3FBFEFC0EFB59
:100E80001C330CFB00F044EA0344A04214D92C1993
:100E90000CF1FF3304D2A04202D9ACF102032C447E
:100EA000241A43EA07401EB1D44000233460736023
:100EB000BDE8F0874746DDE76346F1E792BB431B99
:100EC00001214FEA154EAFB2B3FBFEFC200C0EFB26
:100ED0001C330CFB07F840EA0343984562D9EB1832
:100EE0000CF1FF3004D2984502D9ACF102002B443A
:100EF000A3EB0803A4B2B3FBFEFC0EFB1C330CFBFC
:100F000007F744EA0344A7424ED92C190CF1FF33EA
:100F100004D2A74202D9ACF102032C44E41B43EAF9
:100F20000040C0E7C2F1200320FA03F19540904051
:100F30002EFA03F303434FEA154EAFB2B1FBFEFCAA
:100F40000EFB1C10190C0CFB07F841EA0041884508
:100F500004FA02F422D969180CF1FF3004D2884552
:100F600002D9ACF102002944A1EB08019BB2B1FB0C
:100F7000FEFC0EFB1C110CFB07F743EA01439F42EA
:100F80000ED9EB180CF1FF3104D29F4202D9ACF11B
:100F900002012B44DB1B41EA004192E76046E3E794
:100FA0006146F7E76046A3E76346B7E7834206D9A1
:100FB00016B9002108467BE7C6E900E0F9E7B3FA75
:100FC00083F78FB9834201D3724508D8BEEB020480
:100FD00060EB030301209C461EB9002168E73846F8
:100FE000FAE7C6E9004CF8E7C7F1200CBB4022FA4B
:100FF0000CF41C432EFA0CF120FA0CF3B840014318
:101000004FEA14490EFA07F5B3FBF9F81FFA84FE0C
:1010100009FB18300B0C08FB0EFA43EA00439A4513
:1010200002FA07F240D9E31808F1FF3004D29A45DA
:1010300002D9A8F102002344A3EB0A0389B2B3FB4F
:10104000F9F809FB183308FB0EFE41EA03418E450F
:101050002CD9611808F1FF3304D28E4502D9A8F1CA
:101060000203214443EA0040A0FB0298A1EB0E01D9
:101070004145CE46434602D306D14D4504D2B9EB95
:10108000020E68EB04030138002EA6D0B5EB0E0269
:1010900061EB030101FA0CFC22FA07F34CEA0303AB
:1010A000F940C6E9003198E74046C5E74346D9E72D
:1010B0002DE9F04F016C9FB016461F46CDE904673D
:1010C0002B9D039049B1426C4A6001239340044632
:1010D0008B600AF02FFC00232364B7F10009B4BF32
:1010E000012300232B60764BBCBF29F00049CDF8CB
:1010F000149033EA090300F0AA80DDE904340022E9
:10110000184621460023CDE90801FFF7F7FD804688
:1011100068B12A9A012313602C9B13B12C9A694B56
:101120001360694B0A930A981FB0BDE8F08F1CAB9F
:1011300001931DAB00930398DDE908230AF02EFF0D
:101140005FEA1955824640F09880DDE91C854544E8
:1011500005F23243202B40F38383C3F1400309FAA5
:1011600003F905F2124326FA03F349EA0300FFF7F5
:10117000E3FA0123013DA1F1F8711193534B0022D1
:10118000FFF79CF948A3D3E90023FFF74FFB48A3DF
:10119000D3E90023FFF794F9064628460F46FFF7E8
:1011A000DBFA45A3D3E90023FFF740FB02460B46D9
:1011B00030463946FFF784F906460F46FFF7E6FD4D
:1011C00000228346002330463946FFF7A1FD002860
:1011D00040F01A83A8EB0508BBF1160F08F1FF34A5
:1011E00000F28B813A4D05EBCB05D5E90023DDE913
:1011F0000801FFF78DFD002870D00023002C0BF1B3
:10120000FF3B1093C0F27E8100230B93BBF1000FD4
:101210006ADA0B9BA3EB0B030B93CBF10003CDE935
:101220000EB3289B092B4FF0000B65D8052B40F31C
:101230001C83043B28930025289B023B032B00F2D0
:101240002386DFE813F060045D04540438042A9A0E
:10125000C9F3130942F20F7359EA060913601CD14E
:101260002C9B002B00F02B861A4B0A9308332C9AE8
:101270000A9813601FB0BDE8F08FDDE90812C2F3D1
:101280001303084643F07F51CDF84480A5F2FF35A3
:10129000DDF8708041F4401170E72C9B002B40F08A
:1012A000E7830D4B0A933EE761436F63A787D23F05
:1012B000B3C8608B288AC63FFB799F501344D33F45
:1012C0000000F07FF5070108F40701080000F83F6F
:1012D000700101081808010824080108B8F1000F7E
:1012E00040F3608410900B9000230F93289BCDF85F
:1012F00038B0092B5C4499D90023CDE92833012566
:101300004FF0FF330C950693039B00215964069B15
:10131000189303980AF0E8FA0A90002800F0BD85B7
:10132000039B0A9A1A64069B0E2B00F21581002D6E
:1013300000F012810E9A002A40F33B84B24D02F075
:101340000F0305EBC303D3E9008913461511DA0532
:1013500040F1FA83AD4BDDE90801D3E90823FFF73B
:101360008FFBCDE9120105F00F0503277DB1A74ED4
:10137000EB0708D540464946D6E90023FFF756FA61
:101380000137804689466D1006F10806F0D14246C5
:101390004B46DDE91201FFF773FB80468946109B3F
:1013A00043B19B4B002240464946FFF7B1FC002861
:1013B00040F0F1843846FFF7CFF942464B46FFF73D
:1013C00035FA944B0022FFF77BF8069B0646A1F105
:1013D0005077002B00F0A9800E9B1993069B129367
:1013E0000A9B894D49464046CDE914675E1CFFF7CC
:1013F000CDFC129905EBC10353E902120746CDE972
:101400001612FFF7A9F902460B4640464946FFF778
:1014100055F889460C993037DDE916238046FFB22E
:10142000002900F053847C490020FFF729FBDDE907
:101430001423FFF743F80A9D02460B46CDE9142317
:101440002F7042464B46FFF781FC002840F09784FE
:10145000CDE91AB4CDF858A0129DDDE914AB0027F0
:101460002AE00137AF4280F2DE846C4B5046594689
:101470000022FFF7DBF9694B002282468B4640468B
:101480004946FFF7D3F989468046FFF77FFC0446BB
:10149000FFF762F902460B4640464946FFF70EF851
:1014A000303406F8014B52465B4680468946FFF7CA
:1014B0002FFC002840F0B48442464B46544900209B
:1014C000FEF7FCFF52465B46FFF722FC0028C8D01F
:1014D000199BDDF858A00A9A374603F1010802E08B
:1014E000974200F07C843E4617F8013D392BF7D037
:1014F0000133DBB23B70454675E10123002C1093AC
:10150000BFF682AEC8F101030B9300247EE6384695
:10151000FFF722F942464B46FFF788F93D4B002280
:10152000FEF7CEFF0646A1F150773D4B40464946B7
:101530000022FEF7C3FF32463B4680468946FFF74E
:1015400005FC002840F05A8440464946324607F1DF
:101550000043FFF7DDFB28BB1D9B002BC0F29280F0
:101560000E9A0E2A00F38E80274D0E9B05EBC305C5
:10157000D5E90034CDE90434299B002B19DA069B08
:10158000002B16DC0ED1264B0022DDE90401FFF70B
:101590004DF902460B46DDE90801FFF7C3FB0028C1
:1015A00000F02C844FF000090A9E4F46299BDD4332
:1015B00025E2DDE90445DDE9088922462B4640465F
:1015C0004946FFF75DFAFFF7E1FB0646FFF7C4F86F
:1015D00022462B46FFF72AF90A9F0B460246494648
:1015E0004046FEF76BFF06F1300307F8013B069B10
:1015F000012B00F012830125CDF818A09946DDE9F2
:1016000004ABA8462CE000BF7001010848010108A6
:101610000000F03F00001C400000E03F00002440BC
:101620000000144052465B4620462946FFF728FA40
:10163000FFF7ACFB0646FFF78FF852465B46FFF715
:10164000F5F808F101080B46024629462046FEF748
:1016500035FF06F13003C84507F8013B00F0DB8297
:10166000B94B0022FFF7E2F80022002304460D46A2
:10167000FFF744FB0028D5D00E9DDDF818A00135FA
:101680003E46B0E00C9A002A40F0D28000230F9D25
:101690000B9E0C931F4656B1002C08DDA6420B9AF8
:1016A0003346A8BF2346D21A0B92F61AE41A0F9BB0
:1016B00053B10C9B13B1002D40F0E88251460F9AB4
:1016C00003980AF0C7FA8246039801210AF0DEF96E
:1016D0008146BBF1000F40F0B681289B012B40F3FF
:1016E000CC810120204410F01F0000F09A80C0F14E
:1016F0002003042B40F3DA810B9BC0F11C00034450
:101700000B93064404440B9B002B05DD51460398C4
:101710001A460AF0F9FA8246002C05DD494603987C
:1017200022460AF0F1FA8146109B002B40F07081AE
:10173000069B002B40F348810C9B002B40F0A480BB
:101740000E9D0135DDF82880069CDDF80CB00126E1
:1017500007E0514600230A2258460AF0F5F8013600
:1017600082464946504609F0D9FEA64200F13003B0
:1017700008F8013BEDDB069A002AC8BF16460A9A14
:10178000D8BF012602EB060B002451460122039824
:1017900004930AF0B9FA494682460AF02DFB002864
:1017A00040F3E3810A9A02E05A4500F0E9815E467F
:1017B0000BF1FF3B16F8013C392BF5D001338BF8C8
:1017C0000030DDF80C80494640460AF0B3F857B1C6
:1017D0002CB1BC4203D0214640460AF0ABF8039836
:1017E00039460AF0A7F8039851460AF0A3F80023F7
:1017F00033702A9B1D602C9B002B3FF494AC0A98FD
:101800001E601FB0BDE8F08F5846FEF7A5FF3246B8
:101810003B46FFF773FA00287FF4DCAC0BF1FF3B8B
:10182000D8E41C230B9A1A440B921E441C446AE70A
:10183000289A012A40F3A981069A0F9B551EAB42B4
:10184000C0F26B81002AA3EB050580F2DD820B9BC1
:10185000069A9E1A039801210AF018F907461AE71A
:10186000C3F1200306FA03F081E40125E4E43946DC
:10187000002303980A220AF067F8189B002B0746FA
:1018800040F3EF820E950693002E00F33F81BBF1EB
:10189000000F40F0DF81B8460A9E069C731E1C4470
:1018A000049B0C9403F00103039C0F93494650469C
:1018B00009F034FE3946834650460AF09DFA424606
:1018C0004946054620460AF0B7FAC26801460BF1C0
:1018D0003003002A3AD1089050460B930AF08CFA54
:1018E0000899069020460AF025F8069A0B9B002AD4
:1018F0005AD1289A1AB90F9A002A00F09A82002D1C
:1019000045DB0C9AB346B2420BF8013B00F0B981BB
:10191000514600230A2220460AF016F8474582461F
:1019200039464FF000034FF00A02204636D00AF045
:101930000BF84146074600230A2220460AF004F825
:101940005E468046B2E700BF00002440039806933D
:1019500009F0F0FF002D069B06DB049A289902F09F
:1019600001020D432A432AD15146012203980493D0
:101970000AF0CAF9494682460AF03EFA0028049B5A
:1019800040F3E880392B00F02F820BF131030E9DDC
:1019900006F8013B3C460135474612E709F0D4FF03
:1019A0005E460746804681E7002DC0F27D82289979
:1019B0000D430F990D4300F07782002AA1DD392BEA
:1019C00000F012820133E2E7289B022B7FF7B4AECE
:1019D000069B002B40F01D8149460522039809F023
:1019E000B3FF0146814650460AF006FA002840F34C
:1019F00010810A9E0E9D312306F8013B01350398A4
:101A00004946013509F096FF002F7FF4E8AEEAE67B
:101A1000494650460AF0F0F90028BFF689AE514613
:101A2000002303980A2209F08FFF0E9B5D1E0C9B7A
:101A30008246002B7FF41BAF189B002B40F3FF81E5
:101A40000E9D06937EE601465A4603980AF002F977
:101A5000289B012B81466CDD4FF0000BD9F810302C
:101A600009EB8303186909F0BFFFC0F1200039E6D4
:101A7000924B0A930333FFF7FABB049B002B7FF4CE
:101A800030AEDDE90412C2F31303002B7FF429AE5C
:101A90008B4B134023B10B9B01330B930134012378
:101AA000BBF1000F40F0AE819B461AE63FF42BAE2F
:101AB000C0F13C03B6E601230C93299B0E9A134414
:101AC00018930133012B1E460693B8BF0126172E2B
:101AD00040F3D581012204235B0003F11400B042DE
:101AE000114602F10102F7D9039B596411E4012365
:101AF0000C93299B002B33DD189306931E46E6E7D3
:101B000000230C93D9E700230C93F2E7394603989E
:101B100032460AF0F9F80746B9E60F9B069A0F9588
:101B2000EB1A9B440B9B1E46134414440B93002555
:101B300090E6049B002B8FD1DDE90401C1F3130370
:101B40000A46002B88D1A3E7DDE908230227CDE967
:101B500012230BE47FF41BAFDA077FF518AF11E710
:101B6000012329930693FFF7CFBB03D1049BDB0727
:101B70003FF518AE5E461BF8013D302BFAD020E64B
:101B80000A9A3123013513701BE6119A002A00F0DE
:101B9000F98003F233430B9A0F9D16461A441C44F6
:101BA0000B9257E6C8F1010304460B931090FFF720
:101BB0009BBB00F0EB800E9B424D5E4206F00F0394
:101BC00005EBC303D3E90023DDE90801FEF72EFE90
:101BD0003511CDE9120100F04D813B4E0023022763
:101BE00080468946E80709D5D6E90023404649469C
:101BF000FEF71CFE01378046894601236D1006F171
:101C00000806EFD1002B7FF4CAABDDE91289FFF79C
:101C1000C6BB0A9ECAE4DDF818A00E9D02460B461C
:101C2000FEF74EFC02460B46CDE906230135DDE901
:101C30000423A846FFF78AF840B9DDE90423DDE96B
:101C40000601FFF75BF818B1F10701D50A9A4AE4DB
:101C50003E46C8E57968039809F046FE0546002827
:101C600000F026813B6902339A0007F10C010C3029
:101C7000FEF786FB0398294601220AF045F88046C4
:101C80000AE60E9D3C46013547467EE5DDF80C80B0
:101C900039462A46404609F0DDFF524601460746CE
:101CA000404609F021FF51468246404609F042FE77
:101CB0000F9B5B1B0F933FF407ADFFE42408010863
:101CC0000000F07F7001010848010108DDE91401FE
:101CD000FEF7ACFD0A9B1F70129B012BCDE90C0196
:101CE00000F0C680129F0A9BCDF844B01F447C4B85
:101CF000002240464946FEF799FD89468046FFF797
:101D000045F88346FEF728FD0BF1300B02460B46E3
:101D100040464946FEF7D2FB06F801BBB742804673
:101D20008946E4D1DDF844B06E4B0022DDE90C01B8
:101D3000FEF7C6FB02460B4640464946FFF706F84B
:101D4000002867D1DDE90C2366490020FEF7B6FBC9
:101D500002460B4640464946FEF7DAFF48B91D9B4E
:101D6000002BFFF693AC0E9B0E2B3FF78FACFFF7CB
:101D7000FCBB3E46013F16F8013C302BF9D0199DC3
:101D8000013530E51C9BC3F1360304E7DDE9088922
:101D90000227FFF704BB069B002B3FF4B8AB189B50
:101DA000002B7FF7D9AB0E9A1293013A4C4B199244
:101DB000404600224946FEF739FD80468946781C98
:101DC000FEF7CAFC42464B46FEF730FD464B00226A
:101DD000FEF776FB0646A1F15077FFF701BB08F14D
:101DE00001083123FFF786BB0E9D0A9AB3463923BB
:101DF0003C460BF8013B01354746D8E44FF000095B
:101E00004F46F6E59B4629E60B9B1E4613441444B9
:101E10000B931FE5199B0A9A03F10108FFF763BBB7
:101E2000DDF858A0ABE7DDE91AB4DDF858A0FFF7FC
:101E300093BB392BD8D0002D3FF7A7ADA7E5289B42
:101E4000022B0ADC189B069349460E9D09F066FB9F
:101E50000A9A00F1300313708DE4189B06930E95D7
:101E6000B6E5289B022BF8DC189B0E9506930BE534
:101E7000374659E7DDE912890227FFF790BA039B3D
:101E800000215964FFF745BA039B00255D6429468C
:101E9000184609F029FD0A90A8B9144B14480022ED
:101EA0004FF4D5710AF0C8F9002A7FF770AD5BE5F1
:101EB0000E4B0F482A4640F2EA210AF0BDF90D4BBD
:101EC0000A93FFF730B9039B0A9A1A644FF0FF3365
:101ED0000122299518930C920693FFF73DBB00BF92
:101EE000000024400000E03F00001C4028080108DA
:101EF0003C080108180801080346024A022102486A
:101F00000BF0C3BF9E090108D40001082DE9F04F72
:101F1000D3B004460D461646431E00F10D014FF6A0
:101F2000FF720AAF4AF2010013F801CF4FF0080820
:101F300082EA0C0202F0010C5208BCF1000F01D041
:101F4000424092B208F1FF3818F0FF08F2D18B42FC
:101F5000EAD1E1892378914209D0654A0221654896
:101F60000BF093FF07F59277BD46BDE8F08F62490D
:101F70000A468C46107898421BD1907EC8B11C232B
:101F800003FB08C80BF079FFD8F80830C8F8040044
:101F90000133A8F80C5088F80E60C8F80830636860
:101FA000C8F81030A368C8F81430A389A8F818300E
:101FB00022E008F101081C32B8F1100FDAD100223A
:101FC000887EA8B91C214A4303210CEB02080CF8B7
:101FD00002304A4A0123C8F8080088F81A301378FA
:101FE0004448013313702378454A0BF04EFFC9E78C
:101FF00001321C31102AE3D1EA4690B0227863887E
:102000000DF128086068D4F808B0B4F80C903D4988
:10201000C8F81C30C8E90512FEF7B0FBC8E9080192
:102020005846FEF7ABFB42460B23C8F83860C8E9B8
:102030000A01C8E90C9542F8103F002345F6C0019B
:102040002C4807F1200B01F0B9FC2378D5466068D5
:102050007B6063887B61FEF791FBC7E90201A068A2
:10206000FEF78CFB8946A189804639610BF005FF9C
:102070000795CDE908603969584606914FF480719B
:10208000CDE90489D7E90223CDE902237B691E4A01
:1020900000937B6807F0E2FC88B00AAA1B4BC2E9F8
:1020A000053B4FF400739383194B42F8103F002314
:1020B0004FF4E6510F4801F081FC63881548AA21CE
:1020C0005BBA22783977D546FB8307F11C01836818
:1020D0007A7704225B689847031E04DA0E4A0221CD
:1020E00004480BF0D2FE0D4A13680133136039E740
:1020F000BA090108D400010888110120B81701208D
:10210000D7090108F30901082E0A0108970A0108F6
:1021100003000001D0FC0008A00A010848130120B8
:10212000F8B513480D4614461E469DF918700BF07D
:10213000E2FE50B101210F480BF0C4FE64200BF009
:10214000D5FE00210B480BF0BDFE102C09D16B7899
:10215000012B0BD13A4631462846BDE8F840FFF73F
:10216000D5BE2046BDE8F840FFF7C6BEF8BD00BFAB
:1021700030FC0008480201082DE9804885B0324E45
:1021800000AF47F230500BF0B1FE0BF076FE804608
:102190002E4A032130462E4D0CF068FA43462D4A54
:1021A000032130464FF000090BF06FFE2A4B2B4AFB
:1021B00003211B7830460BF068FE294B4FF00C0AC8
:1021C000284A1B68032130460BF05FFEAB7E73B3D9
:1021D0002C8B6B68FC60C7F804D090B0B5F90C404C
:1021E000A8EB03032978BC606C46AA682869D5F877
:1021F00014B0DFF874C0C4E90723C4E905C1FEF7D1
:10220000BDFAC4E90A015846FEF7B8FAFB6822464F
:10221000A363BB68C4E90C01E36342F810AF002379
:1022200046F2C001304601F0C9FBD7F804D009F1ED
:1022300001091C35B9F1100FC8D10C4A03213046F1
:102240000CF014FA9DE700BFD4000108B40A01089D
:1022500088110120CB0A0108B8170120D90A01080A
:1022600048130120EA0A0108FD0A0108430B01088E
:102270002DE9F84368480321684A0CF0F7F96848EB
:102280000BF039FE98B167480BF001FE041E0EDA20
:102290002346654A012160480BF0F7FD2346634A57
:1022A00001215D480BF0F1FD2046BDE8F8835C4854
:1022B0000BF021FE48B15E480BF0E9FD031E04DA85
:1022C0005C4A022154480BF0E0FD55480BF013FE28
:1022D00048B159480BF0DBFD031E04DA574A0221CE
:1022E0004D480BF0D2FD564A03214B480CF0BEF985
:1022F000544D28460DF077F848B96FF01204524A51
:10230000012145480CF0B2F92346504AC8E7AE68AF
:1023100028464F4933689847041E06DA23464D4A3B
:1023200001213D480BF0B1FDEEE7336900224A4937
:1023300028469847041E02DA2346484AF0E7032558
:10234000374C384E03213A4F454A33480CF08EF94A
:1023500020460BF0D0FD18B1012130460BF0B2FD44
:1023600020460BF0C8FD18B1012138460BF0AAFD3C
:1023700020460BF0C0FD18B101212F480BF0A2FD43
:10238000C8200BF0B3FD20460BF0B5FD18B10021BD
:1023900030460BF097FD20460BF0ADFD18B1002143
:1023A00038460BF08FFD20460BF0A5FD18B100213B
:1023B00021480BF087FDC8200BF098FD013DC7D1E7
:1023C000DFF8A0800321284F284A13480CF04EF96B
:1023D0004FF47A70264C0BF089FD00250BF04DFD73
:1023E000DFF834900646A37E83B1636847F230522B
:1023F000F31A93420AD923784246022148460BF049
:1024000044FD0023A3763B78013B3B7001351C342F
:10241000102DE8D1DCE700BFD4000108590B0108FA
:1024200030FC000848020108720B0108890B010802
:10243000400201089D0B010838020108B40B010895
:10244000CB0B0108D0FC0008DC0B0108480C01088C
:1024500098060120F20B010821210008090C01084F
:10246000220C0108880C0108B81701205D0C010836
:10247000881101202DE9F04F91B0840705460E46E2
:10248000009302F00403DDF868800293C2F3C203F4
:10249000039203F10103059340F0BA81041D30B1AA
:1024A000072909D86FF01B0011B0BDE8F08F01F0CB
:1024B00007063444C6F10806009B4FF000094FF0B0
:1024C000040A591E4FF0FF334F46CB460193534643
:1024D000CDF810900DB1009A22600598002800F305
:1024E000E8809848009A824203D397488242C0F01D
:1024F000E080039AA4EB050E92074FEA9E0000F1DC
:1025000003810F2F00F2B180002D00F0058107F14B
:1025100040020DEB020C019A0CF8200C0CF8102C68
:10252000049801300490E7E07A285DD84B280ED853
:10253000472859D829282DD8252852D054D82028C2
:102540007AD02338D0F1000B4BEB000B74E04C3801
:102550002E2849D8DFE800F07048484848484848E5
:10256000484848484B484848484848484859484BD4
:102570004B595959704B6D487048184B1848488250
:102580007F4B48484B487F0000204FF0000B4FF036
:10259000040A38E02A380122C0B202FA00F010EA38
:1025A0000E0F49D110F0625C2FD110EA020B43D01C
:1025B0006046013C5444B4FBFAF40AFB04F4002DD9
:1025C00061D0A3EB050CA444B4453FF66BAF0028E3
:1025D00068D1042B47D158F8043B2360043404230A
:1025E0002AE0019A013A01924FF0000B24E011F821
:1025F000010C6C2834D111F8023C00206C2B83466E
:10260000C5D14FF0080A5346D3E708F1070807344D
:1026100028F0070824F00704F8E802AB35B1069863
:102620002044B0423FF63EAFC4E900AB08344FF05F
:10263000000B4FF0080A534611F8010F002878D01C
:10264000BBF1000F7FF470AF2528F5D1019B4FF04F
:10265000010B013301934FF0040AECE7584694E76D
:1026600000208346A5E7082B02D06FF015001BE77A
:1026700008F1070828F00708F8E80223C4E9002356
:1026800008340823D8E768B9042B02D108F10408FC
:10269000A4E7082BE9D108F1070828F0070808F19A
:1026A0000808EDE7059A013A059258F8042B0092C4
:1026B00010E7039A900720D5A4EB050E4FF0010C0C
:1026C0004FEA9E00BEF5007FCFD20F2FCDD8F5B1D7
:1026D00007F14002C0B20DEB020E019A0EF8200C79
:1026E0000EF8102CBCF1000F3FF41AAF60F07F0021
:1026F00009F101090EF8200C0137C5F10802043474
:102700004FF6DA7E069297E74FF0000CDAE7BCF15D
:10271000000F01D00136EFE7029802360028EBD116
:102720000098CDE90631FDF76BFD0644DDE9063181
:10273000E2E7631BB3F5806F97D23DB9A6F10804B9
:10274000E018B1E6F0F90008F01801089B08029AB9
:1027500028602B709DF81030C2B1EB7085F80290A4
:10276000B9F1000F05D008A80022C5F1010C97426D
:102770000ED1C5F101030DF120084FF0000A0DF153
:10278000300B0193574512D1601B8DE66B70E5E766
:1027900010F8013B190608D50CEB040E03F07F037B
:1027A000B6453FF67FAE04F8013B0132DFE7B9F1F1
:1027B000000F03D098F90020002A17DB029BD3B149
:1027C0001AF80B2004F8012B0022019B1819104461
:1027D000B0423FF667AE98F80000009904F8010B8C
:1027E00020460392FDF7CCFD039A14440AF1010A36
:1027F00008F10108C6E798F8002055F82230009348
:10280000029B009845F82230FDF7FAFC421CDCE7F9
:102810006FF00D0048E600BF2DE9F04F97B0044679
:10282000894600AF90F802A0D7F880B03B62CBF3A6
:10283000C003FA62BB6141B9457800780AEB8000B9
:1028400020444D4517D8A0EB0409E378FB61BAF1A9
:10285000000F02D01BF0010F16D1FB6953BBFB6ABE
:102860001BB13A6A4946204698474D4628465C3790
:10287000BD46BDE8F08F461C09F101093046FDF761
:10288000BFFC01303044DCE72378626899007A624B
:10289000FA6A796104EB8301002A40F000814D4619
:1028A0000E4601EB0A094FF000084E454CD101EBF2
:1028B0000A0610E01BF0020FD1D023789A0004EB37
:1028C00083017A6162687A62FA6A002A77D14D469A
:1028D00001EB0A0690461BF0050F0CBF02230123F3
:1028E000FB62FB6906EB430A0BF00203BB62564531
:1028F000BCD016F8021B16F8013C54F82390994BF3
:10290000994502D3984B994536D3BB69002B40D0EB
:10291000786A0BF023FB00283BD0E9468AB06A4670
:10292000924B53617B6AC2E906314FF40073138402
:102930008F4B42F8103F00234FF412518D48023D57
:1029400001F03CF8CD46D2E716F8013BF96254F8A5
:102950002300FDF755FCD7F884300130F96A4BB1FC
:10296000D7F8883098453EBFD7F8843023F8180050
:1029700008F10108054498E7BB6923B1786A0BF0B8
:10298000EDFA0028C9D11BF0010F05D1FB6AED1A41
:10299000ADE7BB6A002BAAD04846FDF731FCD7F85B
:1029A000843053B1D7F8883098453FBF431CD7F8DF
:1029B000842022F8183008F10108054497E7BAF19D
:1029C000000F72D01BF0040672D0D046002607F12B
:1029D000480052463B61B962FDF7D2FCB96A3B69D7
:1029E00001EB0A02F969BA62FA695200FA60BA6A3E
:1029F00002EB41023A610BF00202BA603A69B96A2D
:102A00008A4257D11BF0020F62780CBF4FEA58017F
:102A100000217A621BF0010F3244D2B240F09F8055
:102A20001BF0040F14BF40460020BB616270A07011
:102A30002046E1703A6A7969FB6A9847051EFFF6FD
:102A400015AFBB6941463A6A07F1480023707B6ABB
:102A500084F802A06370FB69E370FB6A9847B0F1E9
:102A60000008C0F2BB807B69A9EB0A013A6AC91A67
:102A7000FB68C91AD7E90A0398470028C0F2B0805A
:102A8000A8444FF0000B07F1380A08EB0005B345E6
:102A900072D300213A6AFB6A08469847E6E6564632
:102AA0004FF0000807F1380093E75646D04697E705
:102AB000B04695E7BA6A12F8021B12F8015CBA62D6
:102AC00054F82500274A904202D3274A90421ED349
:102AD000BA6932B1786A7B600BF040FA7B680028F3
:102AE0008CD1BA6802BB08F1280207F1300C08F15A
:102AF000010008F10208944407F158025FFA88F8CF
:102B000052FA80F00CF8101C00F8105C76E7BA69F5
:102B10003AB1786A7B600BF021FA7B6800287FF479
:102B20006DAF1BF0010F09D006F1280207F130004C
:102B3000711C161806F8205CCEB25FE71BF0040F7C
:102B40003FF45CAF08F1280207F1300008F1010101
:102B500002EB000808F8105C5FFA81F84EE70020ED
:102B600063E700BFF0F90008F0180108B40C010891
:102B700004000001B40001081BF80A3054F8239047
:102B800087F83730D7F884302BB3D7F888309B4597
:102B900021D2D7F8843033F81B803A6A012107F13B
:102BA0003700FB6A984700281ADB0544B8F1000F8C
:102BB00006D14846FDF724FB00F101081FFA88F80A
:102BC0003A6A41464846FB6A9847002808DB0544B4
:102BD0000BF1010B5BE74FF00008DEE7454645E6E9
:102BE000054643E6014B1860704700BFA806012068
:102BF00030B5002587B0044600950595CDE9030161
:102C000003A9054800F06EF8DDE904309842B8BF2A
:102C1000255407B030BD00BFABDF0008F0B5024659
:102C20000168084E00200A270B4601311C78355DEB
:102C30006D0701D41360F0BD07FB0043A3F1300022
:102C4000F2E700BFB10601082DE9F84F15469A4694
:102C5000D3788146224A0F466F2B12F803B00BF04F
:102C6000030B2BD026D8582B0CBF10260A26DDF8D4
:102C700028803246002348463946FEF7AFF8092A35
:102C800008F1FF38D4B21ED83034B145E4B277F140
:102C9000000788F8004001D3D04511D82B789B0657
:102CA00005D5082E15D1AB7843F00803AB7040462C
:102CB000BDE8F88F03F0F703702BD5E70826D6E7B9
:102CC00081460F46D5E7BBF1010F0CBF37345734AF
:102CD000DBE7102EEBD1AB7843F01003E6E700BF43
:102CE000B10601082DE9F04F8A4697B016461C46FA
:102CF00000250390307808B9284656E325280AD0E5
:102D00005146039B98470028C0F24F83731C01353E
:102D10000493049EEEE71822002110A806F02EFE70
:102D20007378252B00F0A3800023711C98469E46E3
:102D30009C4618460F4611F8012B2B2A00F0C6803E
:102D400000F2BD80202A00F0C480232A00F0C48055
:102D50002BB19DF8483043F040038DF84830B8F16E
:102D6000000F05D09DF8483043F020038DF848301F
:102D7000BEF1000F05D09DF8483043F010038DF8E8
:102D80004830BCF1000F05D09DF8483043F00803EF
:102D90008DF8483028B19DF8483043F004038DF891
:102DA00048309DF8483003F04401442903D16FF3C3
:102DB00086138DF848309DF848302A2A099743F049
:102DC00080038DF8483040F08C809DF8493043F006
:102DD00001038DF849307B1C1A782E2A9DF8492072
:102DE0000CBF0121002161F341028DF849200CD173
:102DF0005A1C09925A782A2A40F083809DF849206B
:102E0000023342F004028DF849201A786C2A00F04F
:102E1000A48000F28680682A00F08C806A2A00F084
:102E2000A5804C2A00F0AA801A4612F8013B782BA4
:102E300004928DF84B309DF8492000F217816D2BDC
:102E400000F2A980692B00F21181572B00F2BE809D
:102E5000412B03D0453B022B00F208819DF84A30FC
:102E6000042262F302038DF84A300123CAE08DF890
:102E70004B30B31C04939DF84930D90740F1FD80D5
:102E800054F8048BB8F1000F07DA9DF84820C8F118
:102E9000000842F004028DF848205A0740F1F680FD
:102EA00054F804BBBBF1000F80F2F5809DF8493067
:102EB0006FF341038DF849304FF0FF3BEBE02D2AD3
:102EC0000DD0302A7FF444AF012333E74FF0010CDB
:102ED00030E74FF0010E2DE74FF001082AE70120FF
:102EE00028E709A8FFF79AFE099BBB423FF474AF9D
:102EF0009DF848201390C00F60F341028DF84820E0
:102F00006AE709A8FFF78AFE9DF848301490C3F3DA
:102F1000400242EAD07262F341038DF84830099BC7
:102F200073E7742A26D07A2A7FF47EAF9DF8492071
:102F300006210CE05A78682A9DF8492006D1012123
:102F400061F3C60202338DF849206DE7022161F377
:102F5000C6028DF84920013366E75A786C2A9DF83D
:102F6000492001D10421EBE70321F0E79DF8492036
:102F70000521ECE79DF849200721E8E7BDF8482046
:102F800022F4F04222F0020242F4804242F00202B5
:102F9000ADF84820DFE76E3BD9B201238B4040F209
:102FA00082410B4238D113F0240F52D1DF075DD597
:102FB0009DF84A30032161F302038DF84A3002F094
:102FC0007803A3F14000434243411BE0A3F15801C1
:102FD0000120C9B200FA01F111F4624F7FF43EAF53
:102FE00040F6010739421DD111F4043F3ED09DF84F
:102FF0004A3060F3020302F078028DF84A30402A2A
:1030000034D000239DF84820C2F340010B4363F302
:1030100041028DF848202EE79DF84A30022161F3E5
:103020000203E8E79DF84A10022002F0780260F3FC
:103030000201402A8DF84A1002BF9DF8481041F065
:1030400001018DF84810632BDBD1131E18BF01233B
:10305000D8E79DF84A30032112F0780F61F302039C
:103060008DF84A3014BF01230023CBE79DF8483088
:1030700043F001038DF84830C3E79DF94820002A4A
:10308000B4BFDDF84C804FF0FF3806E79F077FF5AF
:1030900013AFDDF850B000239DF84910CDE913338C
:1030A0009DF84A30C1F3C30103F00703012B32D16D
:1030B000CB1E042B04D8DFE803F020454520200078
:1030C000236801294FEAE372CDE910321BD19DF943
:1030D0004030DA17CDE9103204349DF8483013F04F
:1030E00003074FD0049B3246514603980AF093FFE2
:1030F0000028C0F25A8105440BE654F8043BDA1765
:10310000CDE91032E9E70229E6D11AB243F3C03320
:10311000CDE91023E0E7022B24D1CB1E042B04D8E9
:10312000DFE803F0181010181800012954F8043BC8
:103130004FF0000214D00229CDE91032CDD19BB25C
:103140001093CAE7073424F00704F4E80223CDE91A
:103150001023C2E754F8043B109300231193BCE7FB
:10316000DBB2CDE7042B08D1073424F00704D4E9FF
:1031700000230834CDE91023AFE7032BADD154F879
:10318000043BDDE79DF84B0078283FF6C2AD62288E
:103190001ED8252850D058287FF4BBAD0DF13E0332
:1031A00012AA00930AABDDE91001FFF74DFDBBF158
:1031B000000F814680F2C280B9F1000F3FF4A9AD43
:1031C0000DF13E06A6EB0903002F7BD0013379E019
:1031D000633815283FF69DAD01A252F820F000BFDC
:1031E000B332000811330008132D0008132D000816
:1031F000132D0008132D000811330008132D0008AB
:10320000132D0008132D0008132D00085F3300084C
:103210003733000871320008132D0008132D000801
:1032200049320008132D000837330008132D000819
:10323000132D0008373300085146039B9847002898
:10324000C0F2B380013564E5BBF1000FDDF84090BA
:103250000ADB5946484606F045FCB9F1000F3FF439
:1032600058AD09EB000620E04846FCF7C9FFF8E737
:103270001098002800F087800DF13E060AAB12AAD4
:1032800000210096FFF7E0FCBDF84A30BBF1000FCB
:10329000814603F0EF0343F4F04343F01003ADF82D
:1032A0004A304ADA00283FF434ADA6EB0903002780
:1032B00008E0109B00270DF129060DF128098DF873
:1032C000283001239DF84A1011F01002069260D0B8
:1032D0000233139A134405924A0644BF14995B18AB
:1032E000B8F1000F6EDDA8EB03089DF848305807D1
:1032F000C3F3800B66D459065AD53FB151463846C0
:10330000039B9847002850DB01355F46302350E08F
:103310001E0756BFC3F300132B275F01DDE91023FF
:10332000002BBFF63BAF52424FF02D0763EB430338
:10333000CDE9102332E7002730E700270DF13E03E7
:103340009DF84810A3EB09036FF386119B458DF898
:1033500048107FF631AFABEB030313932CE7109BC0
:1033600007293FF6D6ACDFE801F00C04060C08088C
:103370000C0C1D70CDE41D80CBE4EA17C3E90052AC
:10338000C7E41D60C5E4314E07460523A6F10509D3
:1033900098E7080748BF01339BE718460793514653
:1033A000039B98470028079B04DA17B0BDE8F08F0D
:1033B0002023C34659460BF1FF3B0029EDDC454471
:1033C000D8466D1A37B151463846039B98470028B6
:1033D000EBDB01359DF84A30DA0601D41B0706D530
:1033E00051463020039B98470028DEDB0135069BC1
:1033F0003BB151469DF84B00039B98470028D4DB16
:103400000135059F2F4406E051463020039B984725
:103410000028CADB01357B1B002BF5DC33464A460E
:10342000514603980AF0F7FD0028BEDB0544A84486
:10343000A8EB0503002B7FF76CAC51462020039BC3
:1034400098470028B1DB0135F2E700BF6D0D010898
:10345000034A0020536823F002035360704700BF03
:10346000002004E0064B1A6842F400721A601A68E1
:1034700042F480721A60034B034A1A60704700BF1F
:10348000003C0240740701200024F4002DE9F047BD
:10349000044607464FF00109DFF8508014B938465A
:1034A000BDE8F08794FAA4F5B5FA85F509FA05F3B5
:1034B0002E0108EB05156FEA030A24EA03042B7BAF
:1034C000002BEBD058F806301B694BB94644042258
:1034D000284607EA0A07736819680BF058F8DDE711
:1034E000284698470028D9D1F0E700BF1401010809
:1034F00030B5002289B00F490F480CF03DF9002289
:10350000002300240D4D0E4928460094CDE90623E2
:103510000E234FF44072CDE90334CDE90144094B49
:1035200005F090F8084928460BF0F9FF204609B04D
:1035300030BD00BF4D350008000F0120780A012082
:10354000001D0120693800086E0D0108014804F0D3
:1035500097BE00BFE00901202DE9F04780462048D2
:103560000F460AF0ECFF0646002832D00025284618
:10357000BDE8F087237B83B12368DB680BB120466D
:103580009847636883F8069023681B69CBB9636822
:103590000422204619680AF0FAFF01361034544517
:1035A000E8D3B8F1000FE2D0002DDFD02846FFF7B6
:1035B0006DFF0546002FF7D0002164200CF04DF878
:1035C000F2E7204698470028E1D009FA06F31D43A8
:1035D000E3E7044C0546DFF810A04FF00109DEE7F1
:1035E0005C1301201401010824010108014B53F868
:1035F000200070476402010808B5034608462BB155
:10360000044A136000F074FC002008BD6FF0150040
:10361000FBE700BFAC06012010B5044C237813B9BA
:10362000034804F02DFE0123237010BDB9170120BB
:10363000E009012010B504460B480AF080FF5CB198
:103640000A4BBFF35B8F53E8001F013943E80012B8
:10365000002AF8D1BFF35B8F05480CF099F80548B4
:10366000BDE8104004F00CBE541301205813012093
:10367000000F0120E00901200020064BBFF35B8F03
:10368000014653E8000F43E80012002AF9D1BFF3C6
:103690005B8F70475413012070B5FFF7EDFF084CA6
:1036A0000546084EB44200D370BD63685B792BB108
:1036B00023685B6813B12946204698471034F1E728
:1036C000140101082401010810B5044C04492046E6
:1036D0000AF0BBFD034B1C6010BD00BF3809012080
:1036E000500201084C13012000230D4A4FF47A7157
:1036F0000C4810B513700C4A13600C4A1360FFF7A6
:103700007BFFFFF7E1FF0A4B0A4918468B4200D3C3
:1037100010BD1A1A5C681033121101322271F5E7DC
:10372000BA17012059E5000854130120581301204D
:103730001401010824010108014600220023014868
:103740000AF0A4BD3809012001480AF03DBE00BFBF
:1037500038090120024B014618680AF089BE00BFF3
:103760004C13012001480AF0BEBE00BF38090120F9
:10377000264B70B51878002846D0FFF7E5FF0546C0
:1037800000283ED1224B234C1B68002B12DD0BF08E
:10379000F1FF0A220023FDF721FBD4E90032C01A11
:1037A00040F2E93361EB0201984271F1000101D36B
:1037B000FFF772FFD4E9003213F57A7342F1000289
:1037C000C4E90032BDE87040FFF7CCBF63685B79A5
:1037D00023B12368294620461B6898471034B44219
:1037E000F4D32846FFF7B6FF0B4BBFF35B8F53E8CC
:1037F000001F013943E80012002AF8D1BFF35B8FA4
:10380000C0E7064C064EEAE770BD00BFB9170120BD
:1038100054130120F80E012058130120140101084F
:103820002401010870B50D4D297861B90C4C0120B7
:103830000C4EFFF791FEB44206D3FFF799FF002824
:10384000FBD101232B7070BD63685B791BB12368CA
:1038500020469B6898471034EDE700BFBA17012057
:10386000140101082401010800212DE9F047084650
:10387000FFF772FE044648B34FF4FA784FF00009A0
:1038800005F0A0F91A4B186030B11A4B1B68092BD0
:1038900002DD194804F0F4FC0025184FDFF858A0A9
:1038A00044B12046FFF7F2FD044618B94FF0FF3847
:1038B0004FF0FF39FFF75CFF064628B9B5B942461D
:1038C0004B46504604F016FD3546E9E74FF0FF3809
:1038D0004FF0FF39D4E72B689B691BB100222846C3
:1038E000114698471035BD42F5D3E8E7044DFAE795
:1038F0005013012058130120E00901202401010880
:103900001401010813B518480AF019FE174B1B786B
:1039100073B1EFF31184102383F31288BFF36F8F19
:10392000FFF726FF84F31188BFF36F8F02B010BD3D
:103930000F4B1B68002BF9D050B9002200230D4813
:10394000CDE9002342F21072002305F045FCEDE7BB
:103950000928EBD107480BF01BFF074802B0BDE870
:10396000104004F08DBC00BF58130120BA1701208D
:1039700050130120000F0120E0090120064B10B573
:1039800004461B6898472146A06004480AF0FDFCE5
:10399000BDE81040FFF7B6BFAC0601203809012092
:1039A000044A054B9B1AB1EBD30F34BF52F83100D8
:1039B00000207047B4000108140101082DE9F04F00
:1039C0008FB0C1F34A280D46914604AF0C0DB86084
:1039D0007B60B8F1000F63D0002607F114034FF0AD
:1039E000040B4FF00A0AC7F80C8032467E62484644
:1039F000C7E90766019307F11C03CDF808B0CDF8BD
:103A000000A0F968FEF708FFB0F5006F03461CD36D
:103A10006C468AB0D9F8041004AB26481A46C3E9AC
:103A2000050140F2FF71D9614FF400711984224BF6
:103A300042F8103F4FF4125133462048FFF7BEFFC3
:103A4000A5462C37BD46BDE8F08FC0F30A0804F147
:103A500017003B60184468F3532520F007008008E6
:103A6000FFF76AFE044690B13B6800F11001144A6A
:103A70004846F961C7E9083607F11403CDF808B0E4
:103A8000CDE900A307F11C03F968FEF7C5FE68F352
:103A900053257B68B96820462A460AF097FDD0E78F
:103AA00004F1170020F007008008FFF745FE0446E8
:103AB000EDE700BF830D010804000001BC00010810
:103AC000A1E500082DE9F04F87B0044693469846DB
:103AD0000391DDE91279DDE9105ABFB13B46524648
:103AE00010210020CDF80090CDF81490FEF7C2FC14
:103AF000B0F5006F06460AD340F2FF73174A022161
:103B0000174807B0BDE8F04F0AF0B9BD3E4604F0D3
:103B1000070405F117000BF0070BE400304444EAFA
:103B20008B1420F0070044EA4624800844EA055438
:103B3000FFF702FE054640B13FB13B4652463146D3
:103B40001030CDF80090FEF795FC434622460399CD
:103B5000284607B0BDE8F04F0AF038BDC20D010895
:103B6000BC000108406820B1034BC01A40F3CF00ED
:103B700070474FF0FF307047B40001080EB403B532
:103B800003AB0146054853F8042B01930AF09CFD52
:103B900002B05DF804EB03B0704700BFD7E6000841
:103BA000CA0605D48B064CBF02490349FFF7E6BF9E
:103BB000704700BFFB0D0108FA0D01082DE9F04F19
:103BC00089B09A4604460D46149B90469DF84CB029
:103BD0000693159B179E0593169B0493BBF1000F4C
:103BE00000F09D8006F4807306F0020907930AF046
:103BF000CCFC024600283ED092492046FFF7BEFF8B
:103C00000746B9F1000F08D016F0440F35D12A4607
:103C10008D492046FFF7B2FF074406F0010353B178
:103C20008A4B20468A4953F82B208A4B002A08BF2A
:103C30001A46FFF7A3FF06F48073002B49D006F065
:103C40000803002B63D1B8F1000F66D042468249C9
:103C50002046FFF793FF0546069B3D44002B6DD1A0
:103C6000049B002B73D1F30700F1E5803146204619
:103C7000FFF796FFD9E00746C3E7784B186800289E
:103C8000CAD0774B4FF47A794FF03C0C1B68B5FBE8
:103C9000F3F5B5FBF0F100FB11554FF4616309FB3F
:103CA00005F5B1FBF3F2B5FBF0FE03FB121100FBCF
:103CB0001E55B1FBFCF309FB05F50CFB1311B5FB1D
:103CC000F0F5009120466749CDE901E5FFF756FF81
:103CD000A2E706F00803EBB1634B2046634953F8B3
:103CE0002B20FFF74BFF0546B8F1000F05D04246E9
:103CF00059492046FFF742FF0544BAF1000FABD007
:103D000052465B492046FFF739FF0544A4E74FF0D0
:103D1000000AE1E706F00805E6E745469CE7BAF148
:103D2000010F069B06D1002B65D1049B002B7CD094
:103D300000250CE0002BF8D04E485DE04E48069B75
:103D400022464E490AF0D9F8049B002B69D0DFF8CF
:103D50003081DFF83091049F4FF0000A3146204651
:103D6000102F28BF1027FFF71BFF554546DC059B8A
:103D70004FF0010A494620461A78FFF7FFFE1AF075
:103D8000070F03D141462046FFF7F8FE57453CD9BF
:103D9000059B4946204613F80A20FFF7EFFE0AF17B
:103DA000010ABAF1100FEAD14FF0000A3649204655
:103DB000FFF7E4FE5246059B20469A5C334B995C24
:103DC00011F0970F324908BF2E22FFF7D7FE0AF1F4
:103DD000010ABAF1100F1DD01AF0070F03D14146A6
:103DE0002046FFF7CBFE57455246E4D841462046D1
:103DF000FFF7C4FEEBE720485D46A0E741462046BA
:103E00000AF1010AFFF7BAFEAFE722492046FFF7A1
:103E1000B5FEC4E7059B3B440593049BDB1B049361
:103E200099D1BBF1000F7FF41EAF204609B0BDE869
:103E3000F04F0AF03CBC074A20460549FFF79EFEBA
:103E400014E700BF020E0108060E01087402010803
:103E50009D0A0108FD0D01082B0E010864130120C5
:103E6000601301200F0E0108880201082F0E0108BF
:103E7000350E01080DE70008D7E60008C9E600087E
:103E8000420E01083A0E0108440E0108B10601086D
:103E9000460E0108400E010842F20F73114A8B4290
:103EA00073B5044628BF0B460568052168460AF02D
:103EB0009BF8636806460B2228465B680A490AF0AD
:103EC000E8FB63683246694628465B680AF0E1FB16
:103ED00063681B2205495B6828460AF0DAFB02B0DA
:103EE00070BD00BF21140108650E0108490E0108CC
:103EF00000210123064A904206D8064A01B901234F
:103F00001360054B18607047400801215B00F2E721
:103F100040420F006013012064130120F8B50D46E4
:103F200004464618054FB44201D12846F8BD14F89E
:103F3000011BBB6801485B689847F4E790FC0008E8
:103F4000014B036001207047D00201082DE9F047C2
:103F5000064600AF0C46002936D0E9468AB0A36871
:103F60006D46D1E9001221484FF0050AA846C5E97F
:103F70000501C5E9072348F810AF002342464FF476
:103F800021511B48FFF71AFDCD466369AD46D4E9C0
:103F900003121848C5F810A0C5E90501C5E90723B3
:103FA000002342464FF421511148FFF707FDCD464B
:103FB000E369114A01210E480AF061FBA3690F4A27
:103FC00001210B480AF05BFB012E07D1EFF30583BB
:103FD0000B4A103B314606480AF051FB2146304659
:103FE00003F0E6FEBD46BDE8F08700BFC70E01083E
:103FF000E4000108F60E0108250F0108340F01083E
:10400000620F010808B5034B1B689847BDE80840DC
:1040100000F006B8B806012030BFFFF7FDBF00BFB3
:10402000054B5A699B689A4204D0044A536843F08E
:1040300080535360704700BF4C17012000ED00E033
:1040400070B5294C06460D46284829490AF0DFFB81
:10405000A36AD9043CD5254826490AF0D8FB172085
:10406000A36A1A0504D5214823490AF0D0FB182079
:104070001D4CA36A9B0512D51C4820490AF0C7FBBA
:10408000A36BA26A100409D51D4A012117480AF042
:10409000F6FA1EB1A36A23F40043A3621920124C5E
:1040A000A36A590504D5114816490AF0B0FB1A2035
:1040B000A36ADA050ED50D4813490AF0A8FB1B20A8
:1040C000094A936A43F47F43936200232B7070BDC7
:1040D0001620C5E7A36A9B04F2D504480B490AF0F1
:1040E00096FB1C20ECE700BF00ED00E0E4000108B7
:1040F000750F01088B0F01089C0F0108AF0F010815
:10410000C80F0108DD0F0108F80F010810100108A1
:1041100010B5204C204921480AF079FBA36A990187
:1041200036D51E481E490AF072FB1E20A36ADA012A
:1041300004D51A481B490AF06AFB1F20154CA36AD4
:104140001B0304D5154818490AF061FB2120A36A16
:10415000590304D5114815490AF059FB22200D4C8A
:10416000A36A9A0304D50D4811490AF050FB232095
:10417000A36ADB0304D509480E490AF048FB242052
:10418000044A936A6FEA03436FEA1343936210BDD4
:104190001D20CBE700ED00E03F100108E40001081E
:1041A000571001086A10010884100108A2100108C4
:1041B000C7100108E11001082DE9F843364D80468B
:1041C00089463648364917460AF021FBAB6ADE06B7
:1041D00027D51124334931480AF019FBAB6A1D0772
:1041E00004D5122430492D480AF011FB2A4DAB6A40
:1041F000980718D52D4929480AF009FB6E6BAB6A60
:10420000190646D52A4A3346012124480AF037FACE
:10421000B9F1000F03D0AB6A23F08003AB62132423
:1042200003E01024DAE76FF015061B4DAB6ADA07DE
:1042300004D514241F4919480AF0E9FAAB6A9B0611
:1042400004D515241C4915480AF0E1FA124B9A6A64
:10425000D50602D49A6A90070AD55B68190507D576
:104260004146304600F0FAF910B180F30988022483
:10427000094B9A6A920603D55A6A22F400525A628E
:104280009A6A204642F0FF029A6200233B70BDE822
:10429000F8836FF01506C2E700ED00E0E4000108C6
:1042A0000C110108221101089C0F01085511010889
:1042B0006D11010883110108101001082DE9F0416A
:1042C000664B8AB004460026D3F8048000AFC8F3DA
:1042D000080586F31188BFF36F8F02F07F43B3F1B7
:1042E0007F4F07D102F00C03082B12D15C495D48C7
:1042F0000AF08DFA002634460023FB71EB1E092BD1
:1043000000F28B80DFE803F00A81847D8989898946
:10431000898710074CBF0C460126EDE752495148EA
:104320000AF075FA4D4D0023FB71EB6A9A0705D52B
:104330004E494C480AF06BFA002332E0EB6A002B3E
:1043400001DA4B49F5E7EB6A5B00F5D54949454889
:104350000AF05DFA6B69A26943F480736B61BFF385
:104360004F8FBFF36F8F6B6932F8022C23F4807389
:104370006B61BFF34F8FBFF36F8F4DF602739A429D
:1043800008D0AB6ADBB27BB3FA1D01212046FFF7F0
:1043900013FF38E02368384A012132480AF06FF9E8
:1043A0002368FA79E2B907F1080504F1200C2068C6
:1043B000083454F8041C2A46644503C21546F6D155
:1043C0007A6A002E45D0C2F3080121B96FEA522261
:1043D0006FEA42227A6207F108011846FFF7B6FD3C
:1043E0002837BD46BDE8F081AB6A13F47F4F04D097
:1043F000F91D0120FFF724FE05E0AB6AB3F5803F0D
:104400009AD3FFF785FE0346CBE7FA1D0021BDE7EF
:10441000F91D0020EEE719498BE718F4F87F184AD8
:10442000E8468AB0174B18BF13466A461649103D36
:10443000C2E905134FF40073D5611384134B42F89E
:10444000103F00234FF411510648FFF7B7FAC54655
:1044500072E722F4FF7222F00102BBE700ED00E0F8
:10446000D0110108E4000108FB1101081212010833
:104470003312010841120108601201087C12010880
:10448000B7110108A2110108A012010804000001DF
:10449000044B5A6942F010025A615A6922F008022C
:1044A0005A61704700ED00E0EFF30880EFF30981F7
:1044B00001B57246FFF702FF01BD00BF0A4880F355
:1044C0000888102080F3118808484FF404614018D0
:1044D00080F30988EFF314800221084380F31488E5
:1044E000BFF36F8F00F088F8003A012040200120D0
:1044F000084B9B6883420BD1EFF3058343B1064B16
:104500005A6842F080525A605A6A22F400425A6253
:1045100004F05EBB4C17012000ED00E012498A68F0
:104520004FF030001044EFF3098C80E8F01F1020AA
:1045300080F31288BFF36F8F0C4F4FF000664A690B
:104540008A603E60906F0023936780F3118804B502
:10455000104600F0E3F8BDE8044002F1300090E8B6
:10456000F01F8CF3098870474C17012004ED00E020
:104570001EF0040F0CBFEFF30880EFF30980816990
:1045800011F8021C0229FFD001B572460AF03BF96E
:1045900001BD00BF40B2002807DB0123410900F044
:1045A0001F00024A834042F82130704700E100E0DA
:1045B00040B2013100284FEA0111C9B206DB00F117
:1045C000604000F5614080F80013704700F00F0074
:1045D000014B1954704700BF14ED00E0044B054A2D
:1045E00023F07F039360BFF34F8FBFF36F8F70474C
:1045F0000000000800ED00E008B5FFF7EFFF0B4AF0
:10460000D2F8883023F47003C2F88830EFF31483B3
:1046100023F0040383F31488BFF36F8F03F0B4FC1B
:1046200004F00AFC00F050F803F0FCFC00ED00E0A0
:1046300042F8203C203A009B07495360019B21F03F
:1046400001019360029B9161D3604FF08073D3614D
:10465000002302658367704703E00008094A0346A8
:10466000906870B113F1160F806E05D0A0F1400272
:104670009A4205D8834203D2814228BF0020704766
:10468000002070474C17012008B5094B0E4615460F
:10469000986000F043F82C4686F309880020054B0B
:1046A00098472046002100220023034C204700BFEA
:1046B0004C1701201FE8000803E00008014B1022FE
:1046C0001A61704700ED00E0002304481021C21871
:1046D0000133622B82F80013F9D1704700E100E04A
:1046E00008B5EFF30583064A103B02EBC30152F80D
:1046F000330049688847BDE80840FFF791BC00BF18
:10470000F0FC0008024B0121024A034800F08AB87D
:104710000000052000000120E0020108826E402117
:10472000044B403A18461A60034AC3E901120121BA
:1047300000F082B89413012000000B1508B5034661
:104740001048D0F89020C2F30722013A934207D9CB
:104750000D4801210D4A09F092FF6FF0150008BDC8
:10476000C0F898300A6822F01F021A4342F0100283
:10477000C0F89C208A6842F00102C0F8A0201846C8
:10478000EDE700BF00ED00E0DC000108B712010812
:10479000F0B50E4685B01F4604460025B5420DDA39
:1047A000606810B397B1431E18420AD0104A2B46D6
:1047B0000121104809F063FF6FF01502104605B0A3
:1047C000F0BD1F28F2D921680B42EFD1236801A95F
:1047D00001930AF038F8A3680343D0B20393FFF7BC
:1047E000ADFF10F1160FE7D0421C01350C34D5E7B0
:1047F000DD120108DC000108044B0522C3F89420F7
:10480000BFF34F8FBFF36F8F704700BF00ED00E025
:10481000BFF35F8F024B0022C3F89420704700BFA4
:1048200000ED00E010B5034C01232278FFF7B0FF44
:10483000207010BDBC1701200B4A08B50023127868
:10484000FFF7A6FF10F1160F07D0084A0021D2F893
:104850009030C3F30723984200DB08BDC2F89800EC
:104860000130C2F8A010F2E7BC17012000ED00E013
:10487000584859492DE9F043D0F8903085B00D687B
:10488000C3F307239D4200F2A180FFF7C1FF4968EF
:104890000022954201F10C011AD1504C6846504F4C
:1048A0002570FFF74DFB00250646DFF83881DFF85D
:1048B0003891AE421FD1237800204649D1F890208C
:1048C000C2F3072293427BDB0020FFF795FF4CE009
:1048D000C0F8982051F80C3C23F01F031343013219
:1048E00043F01003C0F89C3051F8043C43F001033E
:1048F000C0F8A030CDE700984FEA051C00EB051189
:10490000CB683B40B3F5000F44D00AD8B3F5001F85
:104910002ED0B3F5800F34D0B3F5801F10D0013501
:10492000C7E7B3F1807F3ED0B3F1007FF7D150F8F5
:104930000C30886809F087FF4A6840F4802009E05D
:1049400050F80C30886809F07EFF40F088504A68C3
:1049500040F43020039001A92078CDE90123FFF72E
:10496000EDFE002828DA6FF0150005B0BDE8F083F1
:1049700050F80C30886809F066FF4A6840EA080081
:10498000E8E750F80C30886809F05DFF4A6840EAB3
:104990000900DFE750F80C30886809F054FF4A68D6
:1049A00040F08270D6E750F80C30886809F04BFF71
:1049B0004A6840F08870CDE7237801332370AEE772
:1049C000C1F898300133C1F8A00077E74FF0FF300D
:1049D000CBE700BF00ED00E0EC020108BC170120AE
:1049E0000000F0FF0000081100000206014B1860F3
:1049F000704700BFC0060120F8B506460D460024EA
:104A0000064FAC4208DA3B6898470A28305504F153
:104A1000010401D00D28F4D12046F8BDBC060120C8
:104A2000F8B50D46461EC0F10104084FA3199D427A
:104A300001DC2846F8BD73780A2B02D13B680D20B3
:104A400098473B6816F8010F9847EFE7C00601202A
:104A500010B5074C2368C2180648C0F1005101F593
:104A6000A0218A4236BFC0184FF0FF30226010BD2F
:104A7000A0130120804A012008B5054809F0A7FAD3
:104A8000002383F31188BFF36F8F0423184602DFDE
:104A90000F1301082DE9F041054600244FF00108ED
:104AA0000E4E0F4F2B7871691A19D2B208FA02F222
:104AB00001EA02008A4309D153FA84F3706157F87E
:104AC00033201AB107EBC3035968904701346A7861
:104AD000E3B29A42E6D2BDE8F08100BF003C01405B
:104AE000A4130120044B18440023013300F8012BC8
:104AF0009942FADC704700BF0409012007B506227D
:104B000001210020FFF7EEFF002206201146FFF7EB
:104B10004FFD012107220846FFF7E4FF002207208E
:104B20001146FFF745FD082201210220FFF7DAFFB9
:104B3000002208201146FFF73BFD09220121032036
:104B4000FFF7D0FF002209201146FFF731FD0A22AE
:104B500001210420FFF7C6FF00220A201146FFF7BB
:104B600027FD052117220846FFF7BCFF002217206A
:104B70001146FFF71DFD282206210A20FFF7B2FF8C
:104B8000002228201146FFF713FD4FF480434422F2
:104B90000648CDE9002383681B6823B1694698471E
:104BA00003B05DF804FB6FF05700F9E7B0FA0008B6
:104BB000034660B1B0FA80F2C2F11F02D2B20549D9
:104BC0008856054A11680B431360FFF7E3BCFF22C8
:104BD000F5E700BF04090120003C0140024A1368C8
:104BE00023EA000313607047003C0140032921D8E9
:104BF000DFE801F0020C10190F4B9A6822EA00025C
:104C00009A60DA6822EA0002DA6070470A4B9A6812
:104C10000243F5E7084BDA680243DA609A6822EA51
:104C200000029A607047044B9A6802439A60DA68FF
:104C30001043D860704700BF003C014030B5B0B1B0
:104C4000B0FA80F3C3F11F03DBB20B4850F83340D6
:104C50008C4204D100EBC3056D68954205D044B980
:104C600040F8331000EBC3004260002030BDFF234A
:104C7000EBE76FF00F00F9E7A413012060B1B0FA81
:104C800080F3C3F11F03DBB2044A002142F8331062
:104C900002EBC30251607047FF23F5E7A413012024
:104CA00000F003020F23043292009340074A43EAC4
:104CB0009000C3B2023352F82320030C93FAA3F3FB
:104CC00002EA1040B3FA83F3D8407047003801403D
:104CD00038B5244B14460D4618680B88C3F30B02F5
:104CE000092A1DD0072A134611D8CAB1931E052BD5
:104CF00006D8DFE803F02E032E2C1E254FF4FA40D1
:104D000020602B68B3F5805F25D2002038BD402A93
:104D10000DD008D822F00402302AF1D0382BEFD081
:104D20006FF08500F2E7442A08D0A82AF7E7800848
:104D3000E6E700F0ADF8C023800858434008DFE7FD
:104D400000F0A6F8C02380085843C008D8E70648FA
:104D5000D6E70020D4E7C3F313330133B0FBF3F0FD
:104D60002060D2E77407012000127A0070B5444D2C
:104D700000F0C2F8434C284609F053FE02F06AFFE7
:104D8000A368414AC3F30313D35C20FA03F61378F4
:104D90001D41AE4202D2284602F08AFF236843F446
:104DA00080232360236843F480332360354B1A68E3
:104DB0009103FCD55A6F42F001025A675A6F92076D
:104DC000FCD59A6802F00C02082A17D11A689407D9
:104DD00007D41A6842F001021A602A4A1368980739
:104DE000FCD5284B9A6822F003029A609A6812F068
:104DF0000C0FFBD19A6822F0F0029A60214C2368D4
:104E000023F08073236023689901FCD4636823F442
:104E100040336360636823F0706343F00063636052
:104E200000F03AF8236843F080732360154B1A684A
:104E30009201FCD59A6822F0F0029A609A6822F0FA
:104E4000030242F002029A609A6802F00C02082AF9
:104E5000FAD1AE4202D3284602F02AFF0B4B0020C3
:104E6000074A1A60074A936823F4E05343F4A053B7
:104E70009360936823F4604343F40043936070BDF0
:104E800000B0710B00380240C117010874070120FF
:104E90000048704700127A00114B12495A681140BD
:104EA000114A0A4311495A605A681140104A0A438C
:104EB0005A601A6842F080721A60A3F5E4331A68E7
:104EC00042F480321A605A68D203FCD51A6842F460
:104ED00000321A60074A53689B03FCD5704700BF35
:104EE000003802400080BCFF043040000080BFF06A
:104EF0000430400800700040064B82B01A6C42F04B
:104F000080521A641B6C03F080530193019B02B022
:104F1000704700BF0038024008B507480AF063FA3E
:104F200038B10648FFF762FD0448FDF75BFE00203C
:104F300008BD6FF01200FBE790FC0008414F00082D
:104F40000A2838B50446074D04D1AB680D21284620
:104F50005B689847AB68E1B202485B6898472046B7
:104F600038BD00BF90FC00082DE9F843D0F804805C
:104F70001746D0F810900D46D8F808001E4609F0E4
:104F8000A4FCB7F5001F044616D1D8F808402846FF
:104F9000FFF786FE84420CD1294609F096FC0446B0
:104FA000FFF71CFE2046FFF769FE00212046FFF7B1
:104FB0001DFE0020BDE8F883B7F5800F20D0B6F1C4
:104FC000806F19D0B6F1C06F18D0B6F1007F1AD13A
:104FD00002264A460F492046FFF730FEB0B9D8F8FE
:104FE0000810284609F074FC20463146FFF7FEFD04
:104FF0002046FFF7DDFDDCE70126EAE70326E8E7C8
:105000006FF08500D6E76FF01500D3E76FF00F0063
:10501000D0E700BFA5EC000838B503690446586026
:105020000A4D28460AF0DFF960B1AB6861681B6879
:105030000C3123B12846984700EAE07038BD6FF084
:105040005700F9E76FF01200F8E700BFB0FA000868
:10505000014803F073BA00BFC406012008B509F087
:1050600051FE024B1B68C01A08BD00BF001501208D
:1050700001480AF08DBB00BF800901200A2307B553
:10508000A0FB032300210020CDE90001024804F029
:10509000A3F803B05DF804FB8009012008B509F00E
:1050A00031FE014B186008BD00150120014B186846
:1050B000704700BF0015012010B5BFF35B8F114C86
:1050C000022354E8002F012A03D144E800310029CB
:1050D000F7D10CBF01200020BFF35B8F10D10A4B2A
:1050E000DB6A9847002344F8403CBFF35B8F54E8E9
:1050F000002F44E800310029F9D10120BFF35B8F74
:1051000010BD00BF48150120E8030108064B10B58B
:105110005C68FFF7D1FF30B12CB100212046BDE81B
:10512000104004F01BB910BD041501200D4B13B540
:10513000D3E901433BB10C4B00205B6B019302B000
:10514000BDE810401847FFF7B7FF40B13CB16FF022
:105150000401204602B0BDE8104004F0FFB802B0E0
:1051600010BD00BF04150120E80301082DE9F34735
:10517000284C9A4607460D461646D4E9019383B15A
:10518000254B00205B6B9847E3682A463946CDE9FA
:1051900000A33346D4F808802068C04702B0BDE8B9
:1051A000F08704F144020223BFF35B8F52E8001F33
:1051B000012903D142E800300028F7D19046BFF31F
:1051C0005B8FEBD1E36C39461A78AA4288BF1D7019
:1051D000E36CA06C1A78FBF7D3F8236D03B11E8043
:1051E000636D0BB183F800A00B4BDB6A984700217D
:1051F0006160BFF35B8F58E8003F48E80012002A67
:10520000F9D1BFF35B8F484602B0BDE8F04704F028
:10521000A5B800BF04150120E8030108F8B504464D
:1052200000AF0D4600680AF0DEF803462068BBB9FF
:105230006C4688B001686A462748C2E905014FF408
:1052400000719183254942F8101F4FF4E251244820
:10525000FEF7B4FB6FF01205A5462846BD46F8BD23
:10526000E38821792B43DD02D0F808E0D0F810C0A4
:1052700006D513F4402F03D0DA0748BF83F4402348
:105280000126DCF8005023F48012DB0706FA01F651
:105290004CBF3543B543CCF80050DEF8003098479A
:1052A00005460028D9D02368196823796C468AB04E
:1052B0006A46C2E907354FF400730A4893840A4BE3
:1052C000C2E9050142F8103F00234FF43151044870
:1052D000FEF774FBA546C0E7EB13010803000001CD
:1052E00004010108041401080500000170B5BFF3B2
:1052F0005B8F0D4601200E4951E8004F002C03D171
:1053000041E80006002EF7D1BFF35B8F0CD1D4B279
:10531000084E41F8403C736D214698472846B36AD1
:1053200021469847002070BD6FF00F00FBE700BFDB
:1053300048150120E80301082DE9F0478EB04FF031
:1053400000080125814605AC8A46164641461022D2
:1053500009A8234FCDE90544CDE9078804F00EFBE9
:105360008DF831507B6B0D94002B35D0234632469F
:1053700051464846FFF7BAFF041E29DBF6B20395F3
:10538000184C2846CDE90186BB8F646A009397F8D4
:105390003A3097F8392097F83810A0470A23A840E8
:1053A000A0FB0323294609A803F080FF041E0FDA9F
:1053B0000D4A29460D4809F059F9FFF77DFE38B925
:1053C0004FF0FF324FF0FF33294609A803F06EFF7C
:1053D00020460EB0BDE8F0876FF01504F8E700BF77
:1053E00004150120E8030108241401080401010840
:1053F000F0B58DB000240F46012503AE8DF80720CF
:105400002146102207A8CDE90366CDE9054404F042
:10541000B5FA274B8DF829500B96BFF35B8F53E8F5
:10542000002FA24203D143E800510029F7D1BFF376
:105430005B8F39D10DF10702FF2128465F609A602A
:10544000149A43E91064DA601A4E159A1A61736D62
:105450009847736B20469847DDE91223294607A831
:1054600003F024FF041E15DAFFF726FE50B94FF0B3
:10547000FF324FF0FF33294607A803F017FF9DF8CE
:10548000074004E00C4A03210C4809F0EFF82046DD
:105490000DB0F0BD069B002BF1DA094A29460748FA
:1054A00009F0E4F8069CF2E76FF00F04EFE700BFA5
:1054B00048150120E803010840140108040101080F
:1054C0005014010810B529B9FFF7F6FDD8B96FF0EF
:1054D000150010BD0E4B0120BFF35B8F53E8004F4A
:1054E000002C04D143E8000CBCF1000FF6D1BFF34F
:1054F0005B8F0AD1074C43E90F12636DFF21984778
:10550000636B002098470020E3E76FF00F00E0E7AF
:1055100048150120E8030108F0B5BFF35B8F8BB09D
:105520000C462A4D012755E8003F002B03D145E8E2
:105530000072002AF7D1BFF35B8F44D1244E20685C
:10554000F3689847E37A53B32346103D04F11007FC
:105550001868083353F8041C2A46BB4203C2154698
:10556000F6D14FF47A6300220120F5690893237B7A
:10557000CDE905220793CDE9032023890293A3797E
:10558000019363790093237994F90A10A847B36DC6
:10559000607B9847FFF790FD00200BB0F0BD0997A6
:1055A0003846227BB569CDE907320A22CDE90533B9
:1055B000CDE9033302922289CDE90032A3796279E1
:1055C0002179A847E3E76FF00F00E6E748150120CF
:1055D000E803010838B5BFF35B8F08460124114684
:1055E0001A460A4B53E8005F002D04D143E8004CF3
:1055F000BCF1000FF6D1BFF35B8F04D1044BDB6B22
:105600009847002038BD6FF00F00FBE748150120D8
:10561000E803010838B5BFF35B8F104B002453E853
:10562000002F43E800410029F9D10D49BFF35B8FFA
:105630000C4D43F8341C0C492A6843F82C1C0B49C8
:1056400043F8440CA3F1340043F8241C084943F800
:10565000301C9047EB6A9847204638BD481501201A
:105660000D510008E80301086D5100082D51000894
:1056700049ED0008034BC01A034B001153F82030CA
:105680000020184780150120D4060120002A38B5D3
:1056900092FAA2F3104A0446104DB3FA83F308BFFE
:1056A0004FF0FF3390420BD1032B11D10C4802F085
:1056B00045FFAC420ED10B48BDE8384002F03EBF7A
:1056C000A84207D1032BF6D0052B03D10648F3E7F8
:1056D000A842F9D038BD00BF10FC0008B0FB00089C
:1056E0008015012090150120A01501200346024AD3
:1056F0000121024808F0C3BF6C140108FC00010836
:105700000346024A0121024808F0B9BF8914010882
:10571000FC00010818B10021014809F019BB7047CD
:1057200074040108032803480CBF0121002109F07B
:105730000FBB00BF7404010810B5094C01212046BD
:1057400009F006FB00210A2009F087FF002120460E
:1057500009F0FEFA3C200021BDE8104009F07DBFB1
:105760006C0401082DE9F04F83B08146404E0025BE
:10577000404C00AF59F82530002B72D0206809F05A
:1057800032FE0346C8B93B4A6C4688B052F8352011
:1057900011686A463848C2E905014FF400719183E7
:1057A000364942F8101F4FF4E2513548FEF706F92A
:1057B000A5460C37BD46BDE8F08F324B324903EBAE
:1057C000051009F07AFEE3882068217943F48032DD
:1057D00013F0010FD0F810E04FF00103D0F808806B
:1057E000DEF800C003FA01F314BF43EA0C032CEA0D
:1057F0000303CEF80030D8F80030984794F804B08E
:1058000001222249D4F8008002FA0BF3C6E9011301
:10581000D8F80810D1F81CA0BAF1000F05D11C4A25
:105820000121174808F022FFC3E7314640467B605C
:10583000D0470028F3DBD8F80810D8F81020D1F8AA
:1058400018A0BAF1000F0CD07B6859461268404688
:1058500013424FF0A07214BF4FF000734FF08063FB
:10586000D04701350C360834032D83D1A1E700BFA2
:105870005C1501207C040108A71401080300000145
:10588000FC00010880150120755600088D5600089F
:10589000BE14010810B58AB00DF10703099206AADB
:1058A0008DF80700069301230292CDE90731022308
:1058B000CDE903320593044802AA044983681C68B1
:1058C00004ABA0470AB010BDB0FC000858040108A2
:1058D00013B5044600214FF47A7009F0BEFE002192
:1058E0001B4809F035FA00214FF47A7009F0B5FE33
:1058F00001220DF107014220FFF7CCFF002809DA51
:10590000144A6FF004040121134808F0AFFE20464A
:1059100002B010BD9DF80730104A03210E4808F070
:10592000AEFE4FF4B0110E48FFF778FC002801DA04
:105930000C4AE6E72046FFF76DFE041E05DA0A4A28
:105940000121054808F092FEE1E70024DFE700BFEF
:105950006C040108DB140108FC000108F7140108BD
:1059600074040108131501082F15010810B5044629
:105970000D4809F038FD70B10C4809F034FD50B104
:105980004FF4D0110A48FFF749FC58B92046BDE84A
:105990001040FFF79DBF07480121074A08F066FE47
:1059A0006FF0120010BD00BFB0FC0008B0FB000893
:1059B0006C040108FC0001085215010810B588B0FC
:1059C00060F07F000DF107038DF807000792049344
:1059D0000123CDE9053104AB02930223039304486C
:1059E00002AA044983681C680023A04708B010BDC0
:1059F000B0FC0008580401080023012213B5044636
:105A00000DF107014D208DF806308DF80730FFF7B6
:105A100041FF002806DA1D4A01211D4808F026FE34
:105A200002B010BD142C22469DF806304FF009003C
:105A3000A8BF14229DF8071043F08003022A01F04A
:105A4000F801B8BF0222112CD2B2CBBF41F007013E
:105A500041F00401053A023A8DF807100DF10601F4
:105A600013430122DBB28DF80630FFF7A7FF0028B1
:105A700001DA084AD0E701220DF107014D20FFF7B6
:105A80009DFF0028CCDA044AC6E700BF671501086D
:105A9000FC0001087D1501089715010813B5094898
:105AA0000469836801A95B68984720B92368019855
:105AB0005840C0F3C0000028D4BF0020012002B02D
:105AC00010BD00BFB0FB0008044A13680BB10021F1
:105AD00059724361106009F076B900BFB01501201A
:105AE00037B5044601A809F020F96CB1174D2A68B2
:105AF000134673B963682360012323816AB9FFF7F2
:105B0000CDFA2046FFF7E0FF01A809F017F903B02E
