:020000040800F2
:10000000804F012049230008511E000835230008B5
:1000100035230008352300083523000800000000C0
:10002000000000000000000000000000092400089B
:100030003523000800000000A923000805CE0008B1
:10004000C5250008C5250008C5250008C5250008E8
:10005000C5250008C5250008C5250008C5250008D8
:10006000C5250008C5250008C5250008C5250008C8
:10007000C5250008C5250008C5250008C5250008B8
:10008000C5250008C5250008C5250008C5250008A8
:10009000C5250008C5250008C5250008C525000898
:1000A000C5250008C5250008C5250008C525000888
:1000B000C5250008C5250008C5250008C525000878
:1000C000C5250008C5250008C5250008C525000868
:1000D000C5250008C5250008C5250008C525000858
:1000E000C5250008C5250008C5250008C525000848
:1000F000C5250008C5250008C5250008C525000838
:10010000C5250008C5250008C5250008C525000827
:10011000C5250008C5250008C5250008C525000817
:10012000C5250008C5250008C5250008C525000807
:10013000C5250008C5250008C5250008C5250008F7
:10014000C5250008C5250008C5250008C5250008E7
:10015000C5250008C5250008C5250008C5250008D7
:10016000C5250008C5250008C5250008C5250008C7
:10017000C5250008C5250008C5250008C5250008B7
:10018000C5250008C5250008C5250008C5250008A7
:10019000C5250008C5250008C5250008C525000897
:1001A000C5250008C5250008C5250008C525000887
:1001B000C5250008C5250008C5250008C525000877
:0801C000C5250008C525000853
:1001C8007BB972B90029BEBF00204FF0004106E09C
:1001D80008BF00281CBF6FF000414FF0FF3000F04F
:1001E80057B8ADF1080C6DE904CE002909DB002BE6
:1001F8001ADB00F05FF8DDF804E0DDE9022304B063
:100208007047404261EB4101002B1BDB00F052F8C4
:10021800DDF804E0DDE9022304B0404261EB41016E
:10022800524263EB43037047524263EB430300F0CF
:1002380041F8DDF804E0DDE9022304B0404261EB57
:1002480041017047524263EB430300F033F8DDF895
:1002580004E0DDE9022304B0524263EB4303704734
:1002680053B94AB9002908BF00281CBF4FF0FF3115
:100278004FF0FF3000F00CB8ADF1080C6DE904CE7A
:1002880000F018F8DDF804E0DDE9022304B0704757
:10029800704700BF034611F8012B03F8012B002A11
:1002A800F9D17047034613F8012B002AFBD1181A1D
:1002B800013870472DE9F04786468C460846089E67
:1002C800154674461946002B40F0C2808542B2FAA2
:1002D80082F245D94AB1C2F1200300FA02FC2EFA93
:1002E80003F3954043EA0C0C94404FEA154EA8B22C
:1002F800BCFBFEF8230C0EFB18CC08FB00F943EA04
:100308000C43994528D9EB1808F1FF3704D29945D1
:1003180002D9A8F102072B44A3EB0903A4B2B3FB4B
:10032800FEFC0EFB1C330CFB00F044EA0344A04225
:1003380014D92C190CF1FF3304D2A04202D9ACF124
:1003480002032C44241A43EA07401EB1D440002378
:1003580034607360BDE8F0874746DDE76346F1E740
:1003680092BB431B01214FEA154EAFB2B3FBFEFC13
:10037800200C0EFB1C330CFB07F840EA034398459E
:1003880062D9EB180CF1FF3004D2984502D9ACF1D0
:1003980002002B44A3EB0803A4B2B3FBFEFC0EFB44
:1003A8001C330CFB07F744EA0344A7424ED92C1927
:1003B8000CF1FF3304D2A74202D9ACF102032C445A
:1003C800E41B43EA0040C0E7C2F1200320FA03F12E
:1003D800954090402EFA03F303434FEA154EAFB20F
:1003E800B1FBFEFC0EFB1C10190C0CFB07F841EAD4
:1003F8000041884504FA02F422D969180CF1FF304B
:1004080004D2884502D9ACF102002944A1EB0801C5
:100418009BB2B1FBFEFC0EFB1C110CFB07F743EA79
:1004280001439F420ED9EB180CF1FF3104D29F42D1
:1004380002D9ACF102012B44DB1B41EA004192E7EF
:100448006046E3E76146F7E76046A3E76346B7E738
:10045800834206D916B9002108467BE7C6E900E0C1
:10046800F9E7B3FA83F78FB9834201D3724508D805
:10047800BEEB020460EB030301209C461EB9002179
:1004880068E73846FAE7C6E9004CF8E7C7F1200CF8
:10049800BB4022FA0CF41C432EFA0CF120FA0CF3A0
:1004A800B84001434FEA14490EFA07F5B3FBF9F8CF
:1004B8001FFA84FE09FB18300B0C08FB0EFA43EAFE
:1004C80000439A4502FA07F240D9E31808F1FF30D1
:1004D80004D29A4502D9A8F102002344A3EB0A03E7
:1004E80089B2B3FBF9F809FB183308FB0EFE41EAA1
:1004F80003418E452CD9611808F1FF3304D28E458B
:1005080002D9A8F10203214443EA0040A0FB029863
:10051800A1EB0E014145CE46434602D306D14D45D7
:1005280004D2B9EB020E68EB04030138002EA6D002
:10053800B5EB0E0261EB030101FA0CFC22FA07F39A
:100548004CEA0303F940C6E9003198E74046C5E79D
:100558004346D9E708B5044A032104480FF083FE4F
:10056800034B01221A7008BD9E5E0108205901083C
:10057800BC1F0120024B994201D1FFF7EBBF704726
:10058800080003E0F0B5ADF60C0D054602AF0024F7
:1005980040F2FF3239462346CDE9004402F0B8FB69
:1005A80000280FDA294B14F0FBFD1B58284A0121BB
:1005B80028480FF061FE28460FF0E2FF07F604070F
:1005C800BD46F0BD3C54244A032122486E460FF034
:1005D8004AFE8AB002AA214B5361214BC2E9063771
:1005E80040F2013313841F4B42F8103F4FF414516B
:1005F8002346184801F008F94FF480611A4BB546B4
:100608001A4A78180EF09AFEB0F5806F05D3184A8A
:10061800012110480FF027FECDE707F58060FFF7AE
:1006280041FE0246234607F580612846CDE900448D
:1006380002F038FB002805DA044B14F0B1FD1B5812
:100648000C4AB4E70C4A0321E3E700BF0C000000A2
:10065800BF5E010820590108DA5E0108FC5E010846
:10066800E760010804000001AC1F0120F5600108E3
:100678000C5F0108275F0108435F01082DE9F04F6F
:100688008DB002AF734A032173480FF0ECFD04F0FC
:1006980049FB044650B970480121704A0FF0E3FD48
:1006A8004FF0FF302C37BD46BDE8F08F6C486D4BDE
:1006B80043606D4B836005F0DFFA204612F09AFF25
:1006C8006A4A032164480FF0CEFD694C01233B6060
:1006D8002378002B32D0674D04F024FB6649284666
:1006E800FFF7D8FD654A03215B486C460FF0BBFD58
:1006F8008AB002AA624BC2E905355023D3614FF490
:10070800007313845F4B42F8103F00234FF41351DA
:10071800514801F079F8A54601210622084602F061
:100728000DFA041E10DA584B14F03AFD1B58574ABC
:10073800012149480FF0A0FD0020B3E700214FF444
:100748007A7014F032FAC3E70423022201210093DD
:100758003B4602F013FB002808DA4B4B14F020FD4F
:100768001B584B4A02213C480FF086FD494B002696
:10077800C7E9023608222046B91802F011FAB04239
:100788000CDA414B14F00CFD1B58434A0121324846
:100798000FF072FD20460FF0F3FECDE7052120464D
:1007A80002F02AFA002805DA374B14F0F9FC1B5836
:1007B8003A4AEBE750233A4A032127480FF05CFDF9
:1007C800E94688B002AA374BDFF8DC80C2E9053574
:1007D8004FF40073938342F8108F4FF4E651334679
:1007E8001D4801F011F8DFF8C4A01B4ECD460823C0
:1007F8007B603A1D07F11001204602F027FA051E1A
:1008080009DA214B14F0CCFC1B58294A0121304647
:100818000FF032FDEBE707F1180B102307F1140175
:1008280001205A46E94605F045F888B002AB4FF476
:1008380000729A831A46C3E905AB42F8108F002369
:1008480030464FF4E65100F0DFFF2846CD46FFF76B
:1008580099FECCE7635F010820590108865F01080B
:10086800681601207D050008080003E0A15F010863
:10087800BC1F0120AC1F0120B55F0108C35F010840
:10088800E25F0108040000010C000000006001089C
:100898001C600108010000503B6001085560010818
:1008A8006A6001088B60010803000001CE6001083E
:1008B800AE60010830B5C0430A440C4D914201D1E5
:1008C800C04330BD11F8013B83EA000404F00F0473
:1008D80055F8244084EA101080EA131303F00F033C
:1008E80055F8233083EA1010E8E700BF205A0108C2
:1008F8002DE9F04F91B0840705460E46009302F0AB
:100908000403DDF868800293C2F3C203039203F183
:100918000103059340F0BA81041D30B1072909D8B5
:100928006FF01B0011B0BDE8F08F01F007063444EA
:10093800C6F10806009B4FF000094FF0040A591E43
:100948004FF0FF334F46CB4601935346CDF81090F6
:100958000DB1009A22600598002800F3E8809848B5
:10096800009A824203D397488242C0F0E080039AFB
:10097800A4EB050E92074FEA9E0000F103810F2FAA
:1009880000F2B180002D00F0058107F140020DEB67
:10099800020C019A0CF8200C0CF8102C0498013069
:1009A8000490E7E07A285DD84B280ED8472859D814
:1009B80029282DD8252852D054D820287AD0233851
:1009C800D0F1000B4BEB000B74E04C382E2849D8C3
:1009D800DFE800F0704848484848484848484848D0
:1009E8004B484848484848484859484B4B59595932
:1009F800704B6D487048184B184848827F4B4848E0
:100A08004B487F0000204FF0000B4FF0040A38E0FD
:100A18002A380122C0B202FA00F010EA0E0F49D1BA
:100A280010F0625C2FD110EA020B43D06046013C03
:100A38005444B4FBFAF40AFB04F4002D61D0A3EB90
:100A4800050CA444B4453FF66BAF002868D1042BCD
:100A580047D158F8043B2360043404232AE0019A60
:100A6800013A01924FF0000B24E011F8010C6C28B8
:100A780034D111F8023C00206C2B8346C5D14FF0CD
:100A8800080A5346D3E708F10708073428F007088F
:100A980024F00704F8E802AB35B106982044B042C8
:100AA8003FF63EAFC4E900AB08344FF0000B4FF0FF
:100AB800080A534611F8010F002878D0BBF1000F3F
:100AC8007FF470AF2528F5D1019B4FF0010B01335E
:100AD80001934FF0040AECE7584694E70020834658
:100AE800A5E7082B02D06FF015001BE708F10708EF
:100AF80028F00708F8E80223C4E90023083408238B
:100B0800D8E768B9042B02D108F10408A4E7082B38
:100B1800E9D108F1070828F0070808F10808EDE707
:100B2800059A013A059258F8042B009210E7039AA7
:100B3800900720D5A4EB050E4FF0010C4FEA9E005C
:100B4800BEF5007FCFD20F2FCDD8F5B107F1400207
:100B5800C0B20DEB020E019A0EF8200C0EF8102C04
:100B6800BCF1000F3FF41AAF60F07F0009F10109F2
:100B78000EF8200C0137C5F1080204344FF6DA7E6E
:100B8800069297E74FF0000CDAE7BCF1000F01D0AE
:100B98000136EFE7029802360028EBD10098CDE93C
:100BA8000631FFF77FFB0644DDE90631E2E7631B08
:100BB800B3F5806F97D23DB9A6F10804E018B1E605
:100BC800BC510108C88401089B08029A28602B7050
:100BD8009DF81030C2B1EB7085F80290B9F1000FA2
:100BE80005D008A80022C5F1010C97420ED1C5F125
:100BF80001030DF120084FF0000A0DF1300B0193AD
:100C0800574512D1601B8DE66B70E5E710F8013B84
:100C1800190608D50CEB040E03F07F03B6453FF622
:100C28007FAE04F8013B0132DFE7B9F1000F03D0D2
:100C380098F90020002A17DB029BD3B11AF80B2081
:100C480004F8012B0022019B18191044B0423FF60A
:100C580067AE98F80000009904F8010B204603924B
:100C680014F065FA039A14440AF1010A08F101081C
:100C7800C6E798F8002055F822300093029B0098A8
:100C880045F82230FFF70EFB421CDCE76FF00D0041
:100C980048E600BF2DE9F04F97B00446894600AFFB
:100CA80090F802A0D7F880B03B62CBF3C003FA6299
:100CB800BB6141B9457800780AEB800020444D4576
:100CC80017D8A0EB0409E378FB61BAF1000F02D052
:100CD8001BF0010F16D1FB6953BBFB6A1BB13A6AC3
:100CE8004946204698474D4628465C37BD46BDE8EC
:100CF800F08F461C09F101093046FFF7D3FA01309D
:100D08003044DCE72378626899007A62FA6A79618C
:100D180004EB8301002A40F000814D460E4601EBAA
:100D28000A094FF000084E454CD101EB0A0610E0C5
:100D38001BF0020FD1D023789A0004EB83017A616B
:100D480062687A62FA6A002A77D14D4601EB0A0690
:100D580090461BF0050F0CBF02230123FB62FB69C1
:100D680006EB430A0BF00203BB625645BCD016F8EB
:100D7800021B16F8013C54F82390994B994502D36D
:100D8800984B994536D3BB69002B40D0786A0EF052
:100D9800FAFE00283BD0E9468AB06A46924B536176
:100DA8007B6AC2E906314FF4007313848F4B42F813
:100DB800103F00234FF412518D48023D00F024FDEE
:100DC800CD46D2E716F8013BF96254F82300FFF745
:100DD80069FAD7F884300130F96A4BB1D7F888300E
:100DE80098453EBFD7F8843023F8180008F1010869
:100DF800054498E7BB6923B1786A0EF0C4FE002861
:100E0800C9D11BF0010F05D1FB6AED1AADE7BB6A2A
:100E1800002BAAD04846FFF745FAD7F8843053B1DB
:100E2800D7F8883098453FBF431CD7F8842022F86C
:100E3800183008F10108054497E7BAF1000F72D09D
:100E48001BF0040672D0D046002607F1480052462F
:100E58003B61B96214F06BF9B96A3B6901EB0A02AC
:100E6800F969BA62FA695200FA60BA6A02EB410299
:100E78003A610BF00202BA603A69B96A8A4257D1FC
:100E88001BF0020F62780CBF4FEA580100217A620A
:100E98001BF0010F3244D2B240F09F801BF0040FC8
:100EA80014BF40460020BB616270A0702046E1700C
:100EB8003A6A7969FB6A9847051EFFF615AFBB6960
:100EC80041463A6A07F1480023707B6A84F802A019
:100ED8006370FB69E370FB6A9847B0F10008C0F2E1
:100EE800BB807B69A9EB0A013A6AC91AFB68C91A6F
:100EF800D7E90A0398470028C0F2B080A8444FF009
:100F0800000B07F1380A08EB0005B34572D300213E
:100F18003A6AFB6A08469847E6E656464FF00008E4
:100F280007F1380093E75646D04697E7B04695E76D
:100F3800BA6A12F8021B12F8015CBA6254F825006A
:100F4800274A904202D3274A90421ED3BA6932B147
:100F5800786A7B600EF017FE7B6800288CD1BA682F
:100F680002BB08F1280207F1300C08F1010008F172
:100F78000208944407F158025FFA88F852FA80F0A0
:100F88000CF8101C00F8105C76E7BA693AB1786A78
:100F98007B600EF0F8FD7B6800287FF46DAF1BF0D6
:100FA800010F09D006F1280207F13000711C16184C
:100FB80006F8205CCEB25FE71BF0040F3FF45CAF8D
:100FC80008F1280207F1300008F1010102EB0008DE
:100FD80008F8105C5FFA81F84EE7002063E700BF6D
:100FE800BC510108C8840108E4620108040000013A
:100FF800105901081BF80A3054F8239087F8373045
:10100800D7F884302BB3D7F888309B4521D2D7F84E
:10101800843033F81B803A6A012107F13700FB6AF4
:10102800984700281ADB0544B8F1000F06D1484656
:10103800FFF738F900F101081FFA88F83A6A4146C3
:101048004846FB6A9847002808DB05440BF1010B6A
:101058005BE74FF00008DEE7454645E6054643E610
:10106800014B1860704700BFC007012080B50546D6
:101078000E46174698460DF033FDDFF820900346DC
:1010880014F08EF80446424649F800303946304696
:10109800A84754F8090001F06DF900BF08000000E6
:1010A800032800B508D90A4B092214F079F81A5018
:1010B8004FF0FF305DF804FB3023BFF35B8F5843DC
:1010C800044B1B58BFF35B8F002BECD00020F1E7DB
:1010D8000C0000007C1601203023114943430833DB
:1010E8000B4430B5BFF35B8F1A68BFF35B8FB2B1A7
:1010F800541EBFF35B8F53E8005F954204D143E869
:10110800004CBCF1000FF6D1BFF35B8FEAD1012A86
:1011180005D13023584300230A180B50536030BDC3
:101128007416012038B504461546FFF7B9FF0028A4
:101138000DDB3023074A6343D0184068086015B1B7
:101148000C3313442B6030235C43105938BD002006
:10115800FCE700BF741601204FF0FF334FF0FF3259
:101168001C4870B50EF052FD00251B4BBFF35B8F7A
:101178001A68BFF35B8F7AB101353033042DF5D18E
:10118800164B17224FF0FF3514F00AF81A50114881
:101198000EF03EFD284670BD3024BFF35B8F6C43D4
:1011A80053E8000F013043E800010029F8D10C4E44
:1011B800BFF35B8F331932515A609A6204F10C0005
:1011C800304413F04CFA04F12000304413F032FCA0
:1011D800DDE700BF640A01207C1601200C00000036
:1011E800741601202DE9F041302416460F4A444375
:1011F800101911514660C362B6B1F368A3B10C4F20
:101208000C3413F0CDFF054650F80780131930460B
:1012180040F205120EF0EBFCB8F15F0F04D0EB5969
:101228005F2B08BF45F80780BDE8F08174160120E0
:101238000C000000F8B50546FFF732FF002824DB54
:101248003024134F4FF0FF324FF0FF336C4304F15B
:101258000C063E4430460EF0D9FC3A1953689B6898
:101268008BB1D26A385912F4404F0AD029469847B0
:10127800044630460EF0CCFC2846FFF72DFF2046EA
:10128800F8BD9847F4E71C46F3E74FF0FF34F6E75C
:1012980074160120034A0020536823F002035360A8
:1012A800704700BF002004E0064B1A6842F4007241
:1012B8001A601A6842F480721A60034B034A1A6073
:1012C800704700BF003C0240680901200024F40078
:1012D8002DE9F047044607464FF00109DFF8508032
:1012E80014B93846BDE8F08794FAA4F5B5FA85F53F
:1012F80009FA05F32E0108EB05156FEA030A24EA3B
:1013080003042B7B002BEBD058F806301B694BB934
:1013180046440422284607EA0A07736819680EF04B
:1013280033FFDDE7284698470028D9D1F0E700BF0A
:10133800105A010830B5002289B00F490F4813F040
:1013480024FD0022002300240D4D0E492846009458
:10135800CDE906230E234FF44072CDE90334CDE9DD
:101368000144094B0DF0FCF80849284613F06CFBC2
:10137800204609B030BD00BF99130008D8100120DD
:10138800500C012080200120B51600089863010840
:1013980001480CF00BBE00BF200B01202DE9F047DF
:1013A800804620480F460EF0C7FE0646002832D079
:1013B80000252846BDE8F087237B83B12368DB68D6
:1013C8000BB120469847636883F8069023681B6929
:1013D800CBB963680422204619680EF0D5FE0136A1
:1013E80010345445E8D3B8F1000FE2D0002DDFD017
:1013F8002846FFF76DFF0546002FF7D0002164202F
:1014080013F0D3FBF2E7204698470028E1D009FA09
:1014180006F31D43E3E7044C0546DFF810A04FF040
:101428000109DEE744170120105A0108205A010873
:10143800014B53F820007047745A010808B5034659
:1014480008462BB1044A136000F074FC002008BD64
:101458006FF01500FBE700BFC407012010B5044C6E
:10146800237813B903480CF0A1FD0123237010BDA4
:10147800BD1F0120200B012010B504460B480EF0BB
:101488005BFE5CB10A4BBFF35B8F53E8001F013969
:1014980043E80012002AF8D1BFF35B8F054813F028
:1014A80080FC0548BDE810400CF080BD3C170120C9
:1014B80040170120D8100120200B01200020064BE6
:1014C800BFF35B8F014653E8000F43E80012002A80
:1014D800F9D1BFF35B8F70473C17012070B5FFF758
:1014E800EDFF084C0546084EB44200D370BD636852
:1014F8005B792BB123685B6813B12946204698476E
:101508001034F1E7105A0108205A010810B5044CAC
:10151800044920460EF083FC034B1C6010BD00BF3D
:10152800B8090120605A01083417012000230D4A28
:101538004FF47A710C4810B513700C4A13600C4ABA
:101548001360FFF77BFFFFF7E1FF0A4B0A491846D4
:101558008B4200D310BD1A1A5C6810331211013285
:101568002271F5E7BE1F01205B0101083C1701202D
:1015780040170120105A0108205A0108014600228C
:10158800002301480EF06CBCB809012001480EF098
:1015980005BD00BFB8090120024B014618680EF0CE
:1015A80051BD00BF3417012001480EF086BD00BFB1
:1015B800B8090120264B70B51878002846D0FFF7E7
:1015C800E5FF054600283ED1224B234C1B68002B23
:1015D80012DD13F093FB0A220023FEF741FED4E943
:1015E8000032C01A40F2E93361EB0201984271F10E
:1015F800000101D3FFF772FFD4E9003213F57A73C3
:1016080042F10002C4E90032BDE87040FFF7CCBFE8
:1016180063685B7923B12368294620461B6898478D
:101628001034B442F4D32846FFF7B6FF0B4BBFF390
:101638005B8F53E8001F013943E80012002AF8D1F4
:10164800BFF35B8FC0E7064C064EEAE770BD00BFEC
:10165800BD1F01203C170120D01001204017012098
:10166800105A0108205A010870B50D4D297861B942
:101678000C4C01200C4EFFF791FEB44206D3FFF745
:1016880099FF0028FBD101232B7070BD63685B793B
:101698001BB1236820469B6898471034EDE700BFCC
:1016A800BE1F0120105A0108205A010800212DE907
:1016B800F0470846FFF772FE044658B34FF4FA782D
:1016C8004FF000091C4B13F06BFD1C4A1B581360AC
:1016D80033B11B4B1B68092B02DD1A480CF066FC62
:1016E8000025194FDFF85CA044B12046FFF7F0FD54
:1016F800044618B94FF0FF384FF0FF39FFF75AFF8B
:10170800064628B9B5B942464B4650460CF088FC07
:101718003546E9E74FF0FF384FF0FF39D2E72B683D
:101728009B691BB100222846114698471035BD42D7
:10173800F5D3E8E7054DFAE708000000381701205F
:1017480040170120200B0120205A0108105A0108D7
:1017580013B518480EF0F0FC174B1B7873B1EFF374
:101768001184102383F31288BFF36F8FFFF722FFD2
:1017780084F31188BFF36F8F02B010BD0F4B1B6845
:10178800002BF9D050B9002200230D48CDE90023E1
:1017980042F2107200230DF0C5FCEDE70928EBD1E9
:1017A800074813F0FEFA074802B0BDE810400CF0F5
:1017B800FDBB00BF40170120BE1F012038170120C4
:1017C800D8100120200B0120064B10B504461B68D9
:1017D80098472146A06004480EF0C1FBBDE81040C0
:1017E800FFF7B6BFC4070120B8090120044A054B1A
:1017F8009B1AB1EBD30F34BF52F831000020704769
:1018080010590108105A01082DE9F04F8FB0C1F3A3
:101818004A280D46914604AF0C0DB8607B60B8F1BC
:10182800000F63D0002607F114034FF0040B4FF0AC
:101838000A0AC7F80C8032467E624846C7E907663E
:10184800019307F11C03CDF808B0CDF800A0F968A2
:10185800FFF720FAB0F5006F03461CD36C468AB038
:10186800D9F8041004AB26481A46C3E9050140F22A
:10187800FF71D9614FF400711984224B42F8103F6F
:101888004FF4125133462048FFF7BEFFA5462C37C8
:10189800BD46BDE8F08FC0F30A0804F117003B60AD
:1018A800184468F3532520F007008008FFF766FE08
:1018B800044690B13B6800F11001144A4846F961AA
:1018C800C7E9083607F11403CDF808B0CDE900A33D
:1018D80007F11C03F968FFF7DDF968F353257B6806
:1018E800B96820462A460EF06EFCD0E704F11700CE
:1018F80020F007008008FFF741FE0446EDE700BF2F
:10190800AD6301080400000128590108A30101087A
:101918002DE9F04F87B00446934698460391DDE9D8
:101928001279DDE9105ABFB13B465246102100201A
:10193800CDF80090CDF81490FEF7DAFFB0F5006FFF
:1019480006460AD340F2FF73174A0221174807B028
:10195800BDE8F04F0EF090BC3E4604F0070405F1D8
:1019680017000BF0070BE400304444EA8B1420F016
:10197800070044EA4624800844EA0554FFF7FEFDC0
:10198800054640B13FB13B46524631461030CDF88E
:101998000090FEF7ADFF434622460399284607B05C
:1019A800BDE8F04F0EF00FBCEC63010828590108A0
:1019B800406820B1034BC01A40F3CF0070474FF086
:1019C800FF307047105901080EB403B503AB014648
:1019D800054853F8042B019300F076FF02B05DF838
:1019E80004EB03B0704700BFE3020108CA0605D440
:1019F8008B064CBF02490349FFF7E6BF704700BF9B
:101A080025640108246401082DE9F04F89B09B463C
:101A180004460D46149B90469DF84CA00693159BD2
:101A2800179E0593169B0493BAF1000F00F09D8052
:101A380006F4807306F0020907930EF0A3FB024632
:101A480000283ED091492046FFF7BEFF0746B9F16E
:101A5800000F08D016F0440F35D12A468C4920468D
:101A6800FFF7B2FF074406F0010353B1894B204644
:101A7800894953F82A20894B002A08BF1A46FFF7DC
:101A8800A3FF06F48073002B49D006F00803002B4F
:101A980063D1B8F1000F66D0424681492046FFF76E
:101AA80093FF0546069B3D44002B6DD1049B002BFC
:101AB80073D1F30700F1E48031462046FFF796FF23
:101AC800D8E00746C3E7774B18680028CAD0764B9A
:101AD8004FF47A794FF03C0C1B68B5FBF3F5B5FB76
:101AE800F0F100FB11554FF4616309FB05F5B1FBFB
:101AF800F3F2B5FBF0FE03FB121100FB1E55B1FB20
:101B0800FCF309FB05F50CFB1311B5FBF0F500918F
:101B180020466649CDE901E5FFF756FFA2E706F042
:101B28000803EBB1624B2046624953F82A20FFF7BD
:101B38004BFF0546B8F1000F05D0424658492046EC
:101B4800FFF742FF0544BBF1000FABD05A465A4994
:101B58002046FFF739FF0544A4E74FF0000BE1E703
:101B680006F00805E6E745469CE7BBF1010F069B32
:101B780006D1002B64D1049B002B7BD000250CE000
:101B8800002BF8D04D485CE04D48069B22464D4955
:101B98000DF0C8FF049B002B68D0DFF82C81DFF81C
:101BA8002C91049F4FF0000B31462046102F28BF80
:101BB8001027FFF71BFF5D4545DC059B4FF0010B28
:101BC800494620461A78FFF7FFFE1BF0070F03D19E
:101BD80041462046FFF7F8FE5F453BD9059B49463D
:101BE800204613F80B20FFF7EFFE0BF1010BBBF1BA
:101BF800100FEAD14FF0000B35492046FFF7E4FEFD
:101C08005A46059B20469A5CA2F120015F2931497A
:101C180028BF2E22FFF7D8FE0BF1010BBBF1100FE6
:101C28001DD01BF0070F03D141462046FFF7CCFE1D
:101C38005F455A46E5D841462046FFF7C5FEEBE723
:101C48001F485546A1E7414620460BF1010BFFF717
:101C5800BBFEB0E720492046FFF7B6FEC5E7059B67
:101C68003B440593049BDB1B04939AD1BAF1000F04
:101C78007FF41FAF204609B0BDE8F04F0EF020BB3F
:101C8800064A20460449FFF79FFE15E72C64010821
:101C980030640108845A0108E57B010827640108BB
:101CA800556401084C1701204817012039640108C0
:101CB800985A0108596401085F640108190301086A
:101CC800E3020108D12800086C6401086464010873
:101CD8006E640108706401086A64010842F20F73B7
:101CE800114A8B4273B5044628BF0B460568052187
:101CF80068460DF023FB636806460B2228465B689E
:101D08000A490EF0CFFA63683246694628465B688E
:101D18000EF0C8FA63681B2205495B6828460EF076
:101D2800C1FA02B070BD00BFFA7101088F640108E2
:101D38007364010800210123064A904206D8064A26
:101D480001B901231360054B186070474008012151
:101D58005B00F2E740420F00481701204C170120B2
:101D6800F8B50D4604464618054FB44201D1284639
:101D7800F8BD14F8011BBB6801485B689847F4E795
:101D8800A4540108014B036001207047E05A010880
:101D98002DE9F047064600AF0C46002936D0E94643
:101DA8008AB0A3686D46D1E9001221484FF0050AB0
:101DB800A846C5E90501C5E9072348F810AF00237F
:101DC80042464FF421511B48FFF71EFDCD4663697B
:101DD800AD46D4E903121848C5F810A0C5E90501B5
:101DE800C5E90723002342464FF421511148FFF764
:101DF8000BFDCD46E369114A01210E480EF03CFA6D
:101E0800A3690F4A01210B480EF036FA012E07D1BB
:101E1800EFF305830B4A103B314606480EF02CFAC7
:101E2800214630460BF016FDBD46BDE8F08700BFE1
:101E3800ED640108F05901081C6501084B650108AB
:101E48005A6501088865010808B5034B1B6898475F
:101E5800BDE8084000F026B8D007012030BFFFF7E2
:101E6800FDBF00BF2DE9F0410B4E0546DFF82C8081
:101E7800324606EB0807CC1B0949204613F057F9F0
:101E8800A019083C4246002113F079F907F108002F
:101E98006C67BDE8F08100BF00000000080000008A
:101EA800205A0108054B5A699B689A4204D0044A93
:101EB800536843F080535360704700BF781F012078
:101EC80000ED00E070B5294C06460D462848294922
:101ED8000EF09FFAA36AD9043CD5254826490EF08E
:101EE80098FA1720A36A1A0504D5214823490EF049
:101EF80090FA18201D4CA36A9B0512D51C4820494E
:101F08000EF087FAA36BA26A100409D51D4A0121B5
:101F180017480EF0B1F91EB1A36A23F40043A36277
:101F28001920124CA36A590504D5114816490EF018
:101F380070FA1A20A36ADA050ED50D4813490EF077
:101F480068FA1B20094A936A43F47F43936200238B
:101F58002B7070BD1620C5E7A36A9B04F2D5044810
:101F68000B490EF056FA1C20ECE700BF00ED00E02C
:101F7800F05901089B650108B1650108C2650108AF
:101F8800D5650108EE650108036601081E660108AB
:101F98003666010810B5204C204921480EF039FA60
:101FA800A36A990136D51E481E490EF032FA1E2042
:101FB800A36ADA0104D51A481B490EF02AFA1F2031
:101FC800154CA36A1B0304D5154818490EF021FACD
:101FD8002120A36A590304D5114815490EF019FAAE
:101FE80022200D4CA36A9A0304D50D4811490EF01E
:101FF80010FA2320A36ADB0304D509480E490EF022
:1020080008FA2420044A936A6FEA03436FEA1343E9
:10201800936210BD1D20CBE700ED00E06566010866
:10202800F05901087D66010890660108AA66010852
:10203800C8660108ED660108076701082DE9F8433D
:10204800364D804689463648364917460EF0E1F93E
:10205800AB6ADE0627D51124334931480EF0D9F989
:10206800AB6A1D0704D5122430492D480EF0D1F96A
:102078002A4DAB6A980718D52D4929480EF0C9F999
:102088006E6BAB6A190646D52A4A334601212448A5
:102098000EF0F2F8B9F1000F03D0AB6A23F0800319
:1020A800AB62132403E01024DAE76FF015061B4D2A
:1020B800AB6ADA0704D514241F4919480EF0A9F9A8
:1020C800AB6A9B0604D515241C4915480EF0A1F9E6
:1020D800124B9A6AD50602D49A6A90070AD55B68A9
:1020E800190507D54146304600F022FA10B180F3B1
:1020F80009880224094B9A6A920603D55A6A22F47F
:1021080000525A629A6A204642F0FF029A620023FD
:102118003B70BDE8F8836FF01506C2E700ED00E0FC
:10212800F05901083267010848670108C2650108CB
:102138007B67010893670108A967010836660108EB
:102148002DE9F041664B8AB004460026D3F8048096
:1021580000AFC8F3080586F31188BFF36F8F02F04C
:102168007F43B3F17F4F07D102F00C03082B12D144
:102178005C495D480EF04DF9002634460023FB719A
:10218800EB1E092B00F28B80DFE803F00A81847DC7
:1021980089898989898710074CBF0C460126EDE794
:1021A800524951480EF035F94D4D0023FB71EB6A49
:1021B8009A0705D54E494C480EF02BF9002332E01A
:1021C800EB6A002B01DA4B49F5E7EB6A5B00F5D5C2
:1021D800494945480EF01DF96B69A26943F48073BB
:1021E8006B61BFF34F8FBFF36F8F6B6932F8022CAF
:1021F80023F480736B61BFF34F8FBFF36F8F4DF67E
:1022080002739A4208D0AB6ADBB27BB3FA1D012194
:102218002046FFF713FF38E02368384A0121324887
:102228000EF02AF82368FA79E2B907F1080504F1F3
:10223800200C2068083454F8041C2A46644503C25C
:102248001546F6D17A6A002E45D0C2F3080121B9A5
:102258006FEA52226FEA42227A6207F108011846B1
:10226800FFF796FD2837BD46BDE8F081AB6A13F449
:102278007F4F04D0F91D0120FFF724FE05E0AB6A6B
:10228800B3F5803F9AD3FFF785FE0346CBE7FA1DE7
:102298000021BDE7F91D0020EEE719498BE718F486
:1022A800F87F184AE8468AB0174B18BF13466A46A3
:1022B8001649103DC2E905134FF40073D561138424
:1022C800134B42F8103F00234FF411510648FFF713
:1022D8009BFAC54672E722F4FF7222F00102BBE7BF
:1022E80000ED00E0F6670108F059010821680108CF
:1022F8003868010859680108676801088668010894
:10230800A2680108DD670108C8670108C6680108F6
:1023180004000001044B5A6942F010025A615A69DC
:1023280022F008025A61704700ED00E0EFF30880E0
:10233800EFF3098101B57246FFF702FF01BD00BF47
:102348000A4880F30888102080F3118808484FF461
:102358000461401880F30988EFF3148002210843D0
:1023680080F31488BFF36F8F00F0B0F8804F01201E
:10237800C0350120084B9B6883420BD1EFF30583DE
:1023880043B1064B5A6842F080525A605A6A22F4A6
:1023980000425A620CF0AABB781F012000ED00E051
:1023A80014498A684FF030001044EFF3098C80E834
:1023B800F01F102080F31288BFF36F8F0E4F4FF07D
:1023C80000664A698A603E60506F0C4C2060906FCE
:1023D8000023936780F3118804B5104600F00CF9C8
:1023E800BDE8044002F1300090E8F01F8CF3098842
:1023F80070470000781F012004ED00E07C170120E1
:102408001EF0040F0CBFEFF30880EFF30980816919
:1024180011F8021C0229FFD001B572460DF0F5FF34
:1024280001BD00BF40B2002807DB0123410900F0CD
:102438001F00024A834042F82130704700E100E063
:1024480040B200280CDB4309012200F01F000549B7
:102458002033824041F82320BFF34F8FBFF36F8FA3
:10246800704700BF00E100E04209054B00F01F0083
:1024780053F82220012303FA00F01040704700BFF0
:1024880000E100E040B2013100284FEA0111C9B271
:1024980006DB00F1604000F5614080F800137047EA
:1024A80000F00F00014B1954704700BF14ED00E015
:1024B800044B054A23F07F039360BFF34F8FBFF3AC
:1024C8006F8F70470000000800ED00E008B5FFF7C7
:1024D800EFFF0B4AD2F8883023F47003C2F8883033
:1024E800EFF3148323F0040383F31488BFF36F8F8F
:1024F8000BF09CFA0CF02EFC00F054F80BF0E4FA08
:1025080000ED00E042F8203C203A009B0749536068
:10251800019B21F001019360029B9161D3604FF010
:102528008073D361002302658367704775100008C4
:10253800094A0346906870B113F1160F406E05D032
:10254800A0F140029A4205D8834203D2814228BFB3
:102558000020704700207047781F012015460A4A5E
:102568000E4608B5094B9060426F1A6000F044F8B7
:102578002C4686F309880020054B98472046002101
:1025880000220023034C2047781F01207C170120DC
:102598002B04010875100008014B10221A617047BE
:1025A80000ED00E0002304481021C2180133622B1B
:1025B80082F80013F9D1704700E100E008B5EFF3A5
:1025C8000583064A103B02EBC30152F83300496801
:1025D8008847BDE80840FFF765BC00BF24550108DF
:1025E800024B0121024A034800F08AB80000052086
:1025F80000000120F05A0108426E4021044B403A85
:1026080018461A60034AC3E90112012100F082B892
:102618008017012000000B1508B503461048D0F8B4
:102628009020C2F30722013A934207D90D480121AD
:102638000D4A0DF021FE6FF0150008BDC0F8983066
:102648000A6822F01F021A4342F01002C0F89C20C8
:102658008A6842F00102C0F8A0201846EDE700BFE2
:1026680000ED00E048590108DD680108F0B50E46A4
:1026780085B01F4604460025B5420DDA606810B3E0
:1026880097B1431E18420AD0104A2B460121104820
:102698000DF0F2FD6FF01502104605B0F0BD1F28D1
:1026A800F2D921680B42EFD1236801A901930DF0FB
:1026B800CCFEA3680343D0B20393FFF7ADFF10F13C
:1026C800160FE7D0421C01350C34D5E70369010821
:1026D80048590108044B0522C3F89420BFF34F8FD3
:1026E800BFF36F8F704700BF00ED00E0BFF35F8F4F
:1026F800024B0022C3F89420704700BF00ED00E0B1
:1027080010B5034C01232278FFF7B0FF207010BDED
:10271800C01F01200B4A08B500231278FFF7A6FF57
:1027280010F1160F07D0084A0021D2F89030C3F3F1
:102738000723984200DB08BDC2F898000130C2F8B0
:10274800A010F2E7C01F012000ED00E058485949E9
:102758002DE9F043D0F8903085B00D68C3F3072316
:102768009D4200F2A180FFF7C1FF4968002295420F
:1027780001F10C011AD1504C6846504F2570FFF7F3
:1027880001FB00250646DFF83881DFF83891AE42B4
:102798001FD1237800204649D1F89020C2F30722A0
:1027A80093427BDB0020FFF795FF4CE0C0F89820B0
:1027B80051F80C3C23F01F031343013243F010037C
:1027C800C0F89C3051F8043C43F00103C0F8A03035
:1027D800CDE700984FEA051C00EB0511CB683B409C
:1027E800B3F5000F44D00AD8B3F5001F2ED0B3F5C7
:1027F800800F34D0B3F5801F10D00135C7E7B3F18F
:10280800807F3ED0B3F1007FF7D150F80C30886854
:102818000DF01BFE4A6840F4802009E050F80C30A7
:1028280088680DF012FE40F088504A6840F4302065
:10283800039001A92078CDE90123FFF7EDFE0028D8
:1028480028DA6FF0150005B0BDE8F08350F80C30B9
:1028580088680DF0FAFD4A6840EA0800E8E750F891
:102868000C3088680DF0F1FD4A6840EA0900DFE79E
:1028780050F80C3088680DF0E8FD4A6840F0827026
:10288800D6E750F80C3088680DF0DFFD4A6840F054
:102898008870CDE7237801332370AEE7C1F898300C
:1028A8000133C1F8A00077E74FF0FF30CBE700BF56
:1028B80000ED00E0FC5A0108C01F01200000F0FFF5
:1028C8000000081100000206F0B587B007460E4662
:1028D80014460021102268461D4612F050FC0223BF
:1028E8002A4621468DF802306846044BCDE9047625
:1028F80001930CF04FFD07B0F0BD00BF7304010851
:1029080008B5024B1B689847002008BD8C170120AA
:10291800034B044A1860937843F00203937070479E
:102928008C170120D40701200649074821F0070128
:10293800C1F1005208B502F5A0220DF0B6F800204A
:1029480008BD00BF3F2D02209017012070B54169D6
:102958000446867A0A4D59B1437ADB0706D42C23FC
:1029680003FB06535B6A1B689B68984700236361F7
:102978002C20214606FB0050BDE8704011F048BFEE
:10298800380B0120827A2C21054B01FB02339A6A0D
:102998001B7F801A1B3323F00303B0FBF3F070474F
:1029A800380B012038B52C24827A064B04FB0233FD
:1029B8005B6AD3E901240C601568FFF7E3FF04FBA9
:1029C800005038BD380B01202DE9F04385B005468D
:1029D80090461C466846039112F092F9DDE90067BB
:1029E800EFF31189102383F31288BFF36F8F6B8B7A
:1029F800002B41D02A8B9A4225D900220023284651
:102A08000BF0A2FA0446F0B189F31188BFF36F8F77
:102A1800039B002B41D032463B46684612F094F99E
:102A2800A27A2C21254B204601FB023303A95B6ABD
:102A38001B681D68DDE90023A847606170BB20465C
:102A4800FFF784FF24E0698B4B1E6B8389F31188A1
:102A5800BFF36F8F2B7F2A8B1B33AC6A521A23F07C
:102A6800030302FB0344154B154AEB1A9B1053430F
:102A7800A3722B7FE372CBE789F31188BFF36F8FC3
:102A88002346424628460BF05FFA04460028BFD189
:102A98000024204605B0BDE8F083636101230025CA
:102AA800E27A04F1180023812946039B656063825A
:102AB80012F065FB63692582E360EAE7380B0120C1
:102AC800A38B2EBA70B50C4C2C2500B970BD037AB7
:102AD8004668013BDBB20372002BF7D1C360436049
:102AE800837A05FB03431B6A13B198473046ECE72A
:102AF800FFF72CFFFAE700BF380B0120F7B50646B1
:102B08000D460D488AB2314683681B6898470028ED
:102B180010DA00240CE02F1B042F28BF04270AF02A
:102B280039FA019030193C443A4601A912F0FFFAEB
:102B3800A542F0D803B0F0BD645401082DE9F04176
:102B480005460E461746134CDFF84C80444508D31B
:102B5800124B6A2212F024FB1A504FF0FF30BDE8E6
:102B6800F0812368AB4200D08BB9A3683A4631465E
:102B78002846984758B1094B002212F011FB3146FC
:102B8800C2503A46E3682846BDE8F0411847103479
:102B9800DCE700BF00590108105901080C000000CB
:102BA80073B50D461646694601AAFEF7BBFA0446F8
:102BB800B0B1009B5B69DBB14FF0FF324FF0FF33E0
:102BC80001980DF0D9FC009B204632465B692946E6
:102BD8009847044601980DF0D1FC204602B070BD1C
:102BE8000923044A12F0DCFA4FF0FF341350F4E7DB
:102BF8005F23F6E70C00000037B50D4601AA6946C9
:102C0800FEF790FA0446A8B1009BDB69D3B14FF0F8
:102C1800FF324FF0FF3301980DF0AEFC009B2046C9
:102C28002946DB699847044601980DF0A7FC204621
:102C380003B030BD0923044A12F0B2FA4FF0FF3452
:102C48001350F4E75F23F6E70C00000073B50D4658
:102C58001646694601AAFEF765FA0446B0B1009B1C
:102C68001B6ADBB14FF0FF324FF0FF3301980DF0D4
:102C780083FC009B204632461B6A29469847044637
:102C880001980DF07BFC204602B070BD0923044A70
:102C980012F086FA4FF0FF341350F4E75F23F6E79B
:102CA8000C0000002DE9FF410D46164602A903AAB3
:102CB8001F46FEF737FA0446E8B1029B5B6A13B376
:102CC8004FF0FF324FF0FF3303980DF055FC0B9B8C
:102CD80020463246019329460A9B0093029BD3F86B
:102CE80024803B46C047044603980DF047FC204625
:102CF80004B0BDE8F0810923044A12F051FA4FF0FC
:102D0800FF341350F3E75F23F6E700BF0C00000021
:102D18002DE9FF410D46164602A903AA1F46FEF7F4
:102D280001FA0446E8B1029B9B6A13B34FF0FF32E5
:102D38004FF0FF3303980DF01FFC0B9B20463246E3
:102D4800019329460A9B0093029BD3F828803B46AF
:102D5800C047044603980DF011FC204604B0BDE8B6
:102D6800F0810923044A12F01BFA4FF0FF34135084
:102D7800F3E75F23F6E700BF0C0000002DE9FF41F1
:102D88000D46164602A903AA1F46FEF7CBF90446CC
:102D9800D8B1029B1B6B03B34FF0FF324FF0FF33E8
:102DA80003980DF0E9FB0A9B20463246009329461A
:102DB800029BD3F830803B46C047044603980DF089
:102DC800DDFB204604B0BDE8F0810923044A12F077
:102DD800E7F94FF0FF341350F3E75F23F6E700BF3E
:102DE8000C00000010B5044609B10C2A07D01623C0
:102DF8000F4A12F0D5F913504FF0FF3010BD0B6891
:102E0800002BF4D0886860B10DF0C2FB38B994F992
:102E18008E00002809DC01F085FF0028E7D0582340
:102E2800E6E7081D0EF04DFBEEE70DF0B1FBF4E709
:102E38000C000000F7B507460E461446FEF78CF95D
:102E4800051E18DB3CB97B1E012B04D8022E17D0B7
:102E5800012E08BF0624F1B201ABA2B2B8B203F04A
:102E68005DF8061E0EDA284676420CF0D3FE114BAA
:102E780012F096F91E504FF0FF35284603B0F0BD0A
:102E88001124E8E7019800234360C365603011F01E
:102E980077FC0198783011F0CDFD062C02D101980D
:102EA8000EF0D3FC4FF44043034A01992846FEF73D
:102EB80099F9E2E70C000000285B010837B5069D88
:102EC8000446E3B90093002200230E4903F050FBA7
:102ED80004F1600011F054FC04F1780011F0AAFD2F
:102EE800214605F1600011F088FC20460EF0ADFC8B
:102EF80005F1780003B0BDE830400BF097BA03B095
:102F080030BD00BFAF0501082DE9F04188B00C467F
:102F18000546109EDDE90E8757EA080113D014F123
:102F2800690F02D014F10B0F0DD1684611F00CFF98
:102F3800DDE9002313430ED114F1690F0CBF6FF0C4
:102F48000B046FF0680464422D4B12F029F91C50F1
:102F58004FF0FF304AE0B7F1FF3F08BFB8F1FF3F3D
:102F68000BD00A22002340463946AFB9FDF728F9AD
:102F78003368834294BF33603060D5F8800008B16D
:102F88000AF092FF14F1690F09D130680A21A0FBF9
:102F9800010111F00AFE1FE0FDF762F9E8E70B34C2
:102FA8001AD1B5F88C40C4F38114012CEDD195F9F0
:102FB8008E000DF0EDFA284610F06DFA0022034657
:102FC800022103A811F0F9FF32680A23A2FB0323A8
:102FD800214603A80CF010F933685B00642B28BF66
:102FE80064233360D5F8800018B9002008B0BDE824
:102FF800F0814FF0FF324FF0FF330AF0DDFEF4E7C7
:103008000C000000F8B540F203130446994200F0A2
:103018008E80B1F5827F0ED2042923D0B1F5817F4D
:103028002BD0032919D06F4B5F2212F0B9F81A5030
:103038004FF0FF3015E045F21B43994200F0C48081
:1030480045F22143994200F0BD8040F205139942B0
:10305800E9D11368C0F880300DE0C06DC0F34000BE
:103068008003F8BD1268C36D550423F0020301D52F
:1030780043F00203E3650020F3E7D2E900159768FF
:103088008B88D8071BD52B689F4202D16FF00B00A5
:10309800E7E704F1600204201A612B685A7B60F3A9
:1030A80005025A732B689A7B6FF345129A732B6843
:1030B800DA686FF39432DA602B6814332B608B88EC
:1030C8005A072CD5B4F88C30C3F38113012B02D0E6
:1030D8006FF07700C5E794F98E000DF059FA2E6865
:1030E800B742D3D0B4F88C302046C3F34103012B48
:1030F8001AD110F0D3F9306102212B685A7B61F3A1
:1031080005025A732B689A7B6FF345129A732B68E2
:10311800DA686FF39432DA602B6814332B60E36D4E
:1031280013F0050FA7D0D3E710F0B5F9E3E7D2E91C
:103138000056AB88DB070ED53368DB6813F4EE1F47
:1031480002D1C36DDF0703D5EB8843F00103EB80A1
:10315800336814333360AB8858071ED5B4F88C3005
:10316800C3F38113012B28D194F98E000DF010FAC6
:103178003368DB6813F4FE1F0CD0E36DD90709D45C
:10318800B4F88C30C3F34103022B02BFEB8843F041
:103198000403EB80336814333360E36D5A0742BF8E
:1031A800EB8843F00803EB80E36DDB077FF563AF43
:1031B800EB8843F01003EB805DE7EB8843F00403F2
:1031C800EB80EAE7C36D53E70023146819461A46F3
:1031D8000DF04DFA6FF00043984294BF20602360D1
:1031E80049E700BF0C00000013B5B0F88C3000218F
:1031F80004460022C3F341030091032B4FF0000360
:1032080019D10EF03CFC042320466360E36D43F0C3
:103218000403E3650DF008FA204602F045FF031E9B
:1032280006DA5B42054A11F0BBFF13504FF0FF333B
:10323800184602B010BD03F09BF9E4E70C0000004B
:1032480037B505460C4611BBB0F88C30002200910A
:10325800C3F34103032B4FF000030DD10EF00FFC15
:10326800031E0CDA5B420F4A11F09AFF13504FF01D
:10327800FF34204603B030BD03F07AF9F0E7EB6D78
:10328800284643F00103EB650DF0CEF9F1E74C1E3B
:1032980011F086FF034B012C94BF862216221A5088
:1032A800E5E700BF0C00000013B5044602F024FF58
:1032B800031E07DA5B420E4A11F072FF13504FF0FB
:1032C800FF3007E0B4F88C30C3F38113023B012BC5
:1032D80002D9002002B010BD6368002205492046CB
:1032E8000093002303F044F9031EF2DAE2E700BF7B
:1032F8000C000000AF0501082DE9F043B0F88C3050
:10330800914685B00446C3F381128846032A09D141
:103318002B4B5F2211F044FF1A504FF0FF3005B0DD
:10332800BDE8F083C3F34103022B2FD0012BC56DF9
:1033380009D111F035FF15F0040F214B01D0626857
:10334800EAE77822E8E715F0020543681DBF002682
:1033580000271C4D47F2305608BF0027012A17D115
:10336800009300220023184903F002F9002801DA2B
:10337800434217E063684A464146204602932B467B
:10338800CDE900670EF0E0FA0028F1DB0020C6E77F
:1033980002934A462B46CDE900670EF0D5FA031E84
:1033A80005DA5B42064A11F0FBFE1350B5E7636885
:1033B8000022054920460093002303F0D9F8E3E7EB
:1033C8000C0000009D050108AF05010813B5B0F811
:1033D8008C300446C3F38113032B0CD00EF093FA00
:1033E800031E0ADA5B420B4A11F0DAFE13504FF063
:1033F800FF3002B010BD5F23F5E700220023064925
:10340800204600940EF03BFB002801DA4342EAE72D
:103418000020EEE70C000000C52E00082DE9F04F53
:103428005B068FB016464FF0FF384FF0FF394FF06C
:103438000A0204460D46189F0B92CDE90C8903D465
:10344800C36D13F002034BD000220023CDE90C23F7
:1034580008A811F055FC08A8DDE90C23DDE9088966
:1034680011F04EFC2C492046DDE90823CDE906235E
:10347800636800220093002303F07AF8031E36DB0A
:103488004FF0000A0DF12C0B6168DDE90C23002FC9
:1034980037D0049120462946CDF804A0CDE902236F
:1034A800199B324600933B460EF078FB002825DA3C
:1034B8000146CDF808B02046DDE90C23CDE900230C
:1034C80042464B46FFF720FD002817DB08A8DDE938
:1034D800062311F039FCDDE90823CDE90C23D3E7F5
:1034E8000CAA052103F088F90C4A0023B0E75B42D7
:1034F8000B4A11F055FE13504FF0FF300FB0BDE8E6
:10350800F08FCDE9002302913B46324629462046FA
:103518000EF0E6FACAE700BFAF050108A086010071
:103528000C0000002DE9F0474FF0FF338CB0154632
:103538004FF0FF3204460E46CDE90A230A230993C9
:103548006B0603D4C36D13F0020339D000220023A5
:10355800CDE90A2306A8002711F0D2FB06A80DF131
:10356800240ADDE90A23DDE9068911F0C9FBDDE952
:103578000623CDE90423DDE90A23314620460297D4
:10358800CDE9002300232A460EF0E3FA00281EDACC
:103598000146CDF808A02046DDE90A23CDE900233D
:1035A80042464B46FFF7B0FC002810DB06A8DDE9D1
:1035B800042311F0C9FBDDE90623CDE90A23DAE784
:1035C8000AAA052103F018F9024A0023C2E70CB041
:1035D800BDE8F087A0860100B0B5D0F8803000AF14
:1035E80004460A4693B96D4688B06A461149C2E94D
:1035F8000510032142F8101F0F484FF4C451FEF77D
:1036080003F96FF01500AD46BD46B0BD036E0BB1B2
:103618000020F9E7D0F88010D2E9002378300AF0CA
:103628002BFF0028F0DBE36D5B07F1D560684042B3
:10363800EAE700BF366A0108C0590108F7B5B0F8D3
:103648008C3004460F461646C3F38113032B05D16D
:10365800434B5F2211F0A4FD1A5012E0C36D9D0781
:1036680014D44FF0FF334FF0FF326946CDE9002301
:10367800FFF7B2FF031E09DA5B42394A11F090FDE9
:1036880013504FF0FF35284603B0F0BD002204F177
:10369800600000230AF058FC044620B9304B0B2286
:1036A80011F07EFDD8E7FDF757FD051E06DA204626
:1036B8000CF0BAFF204602F0F7FCE2E704F16000E4
:1036C80011F0C3F8A8B190F83730990711D5E36D18
:1036D800284643F00103E3650CF09CFA20460CF001
:1036E800A3FF204602F0E0FC1D4B712211F058FDAB
:1036F800B2E7B4F88C305A0508D5194B712211F08D
:103708004FFD1A5028460CF085FAD0E723F40073D1
:10371800A4F88C3077B16EB1326804F128013846CC
:10372800082A28BF082211F002FD238D012B09D198
:10373800082333604FF440430A4A21462846FDF7E0
:1037480051FDA0E7022B01D11823F2E728460CF01F
:1037580061FA034B862211F023FD1A50A7E700BF38
:103768000C000000285B01082DE9F04F8FB01F46C0
:103778004FF0FF330C4603924FF0FF320646CDE977
:103788000423189B5906DDE9195A03D4C36D13F0B5
:10379800020330D000220023CDE90423189B06F150
:1037A800600B13F00203DDE90489019337D010227E
:1037B800002109A811F0E3FC0423CDF834B08DF8FA
:1037C800313001214B46424609A80BF015FD00F1A6
:1037D8000B0103460B2918D88C4A0A41D20714D486
:1037E800584611F02EF88046F8B9894B0B2211F093
:1037F800D7FC1A500EE004AA042102F0FDFF04A928
:103808003046FFF7E9FE031EC8DA5B42804A11F032
:10381800C7FC13504FF0FF300FB0BDE8F08F4246A1
:103828004B4658460AF090FBDDE7D0E90393009336
:10383800002D50D0BAF1000F4DD0B6F88A30DAF822
:1038480000B002930EF0ACFC98F83720C2F30212D5
:103858002A8098F83720C2F30212012A61D1002386
:103868001422BBF1070FCDE909323FD90DF1240B22
:103878004046594603F0FEF9064610B96FF0680253
:1038880036E00A9940460EF0DAFC0028F6D198F89E
:103898003A1040460EF0D3FC0028EFD1F1689DF8AD
:1038A80008206960112A34D107AA594609920822CA
:1038B8000A92404603F0DEF90028DFD00288009B18
:1038C8006A80C8F80C90C8F810302A88012A2BD1D1
:1038D8000822CAF80020002C62D0E2680AB1A26867
:1038E80032BB4B4B0C2211F05BFC82E76FF01502E8
:1038F800009B5242C8F80C90C8F81030444911F0A7
:103908004FFC019B0A50002B84D140460EF0B1FBBE
:1039180080E7062A05D1142207A9CDF81CB0089221
:10392800C7E76FF08502E3E7022A6DD11822D0E7D6
:1039380040464FF0000B0EF002FDB84282460546A5
:1039480028BFBA46564676B9BD4203D9A26942F0A5
:103958002002A2612269002A4ED0606978B30F283C
:1039680048D866612BE0A26852F80B1002EB0B00F6
:1039780021B9274B162211F013FC3AE7426840465A
:10398800B24228BF324602920EF06FFC029A08B18A
:103998006922B3E7B2420BF1080BEAD8B61AD2E7AC
:1039A80040460EF0CCFC87420546039928BF0746DF
:1039B80040463A46BA460EF058FC0028E8D1019B2A
:1039C800E3B940460EF055FB189B13F0200F0CBFCF
:1039D8005046284620E70E44073121F007071037E4
:1039E80017448742BDD821F007010A44116800290D
:1039F800F1D1B6E71044F9E76261E0E7009BC8F847
:103A08000C90C8F81030DFE7862277E77EF7FFFFD3
:103A18000C0000002DE9F04F17468DB01E464FF000
:103A2800FF324FF0FF330D460446DDF85880CDE9EC
:103A38000823B0F88C30D90740F1A880C3F34103BC
:103A4800022B40F0A58018F0400F02D1C36D9A07F1
:103A58001BD500220023CDE90823002E40D008F40E
:103A6800807BDDE90823CDE90576CDE90A23CDB1D0
:103A7800C7B9EB688BB96FF015004342454A11F09E
:103A88008FFB4FF0FF3613502AE013F00503E4D103
:103A980008AA042102F0B0FEDFE7AB681A685B6889
:103AA80005920793002702A8DDE90A2311F028F9F7
:103AB8003E46DDE90223CDE90023069B63B3E36DAF
:103AC80013F0040010D060684042002820EAE07635
:103AD800D3DB18F0020F03D1314620460EF088F8E8
:103AE80030460DB0BDE8F08FDB07EED4DDE90AA95A
:103AF8005AEA090312D1C5B9434606AA05A92046C0
:103B08000CF0B5FD831950EA03063DD15AEA0909BC
:103B180018D0BBF1000F31D13046D6E70AA92046AC
:103B2800FFF75AFD0028E6DACFE7434607AA05A9BA
:103B380020460CF09CFD064450EA060305D15AEADB
:103B4800090302D16FF00A0097E7AA68FB0052F850
:103B58003710014405910699091A06910799002919
:103B6800D7D10137E9688F42D6D00833D118D25857
:103B78004B68059207930AB1002BD6D10AA8DDE954
:103B8800002311F0E1F898E71E46C2E7092375E71C
:103B9800802373E70C000000F0B585B01C4613467F
:103BA800DDE90A670AB3B0F88C20C2F38112951ECA
:103BB800012D08D80A4600940021CDE90167FFF7D6
:103BC800D3FD05B0F0BD012A07D10A4600210A94A9
:103BD80005B0BDE8F040FFF71DBF054B862211F088
:103BE800DFFA1A504FF0FF30EBE71046E9E700BF65
:103BF8000C000000F0B5B0F88C3085B0C3F3811C20
:103C0800644699B18E68D6B10023CF6804361D4644
:103C1800AF4218D1023C012C1AD80C1D02940C6832
:103C2800CDE900240022FFF79FFD06E016230C4A89
:103C380011F0B6FA13504FF0FF3005B0F0BD0C2369
:103C4800F5E78623F3E756F835E001357344DFE7F7
:103C5800BCF1010FF5D100920022FFF7DBFEECE783
:103C68000C00000073B50D461C461146069B062D38
:103C78004BD005DC002D50D0012D12D06D2360E013
:103C8800292DFBD1132A00F09F8000F39880102A79
:103C980000F09780A2F111010129EFD822460E21E8
:103CA8000AE00F2A2ED00DDC032A1DD0042A15D0D5
:103CB800022AE3D12246092102F09EFD00281BDAE0
:103CC80043423EE0262A1AD0272AD7D11B68042B64
:103CD80036D1B0F88C30C3F3C20303E01B68042B61
:103CE8002ED14368236007E0B0F88C20C2F381121C
:103CF8001B68042B24D12260002002B070BDB0F8EC
:103D08008A20F5E722460A21D6E7012AB6D12246BB
:103D180002B0BDE870400FF097BB202A1DD008DC28
:103D2800022A17D00E2A47D0012AA7D122460821F5
:103D3800C2E7212A3DD0222AA0D122461721BBE77B
:103D48001623234A11F02CFA13504FF0FF30D4E712
:103D58006A23F6E722461021AEE7B0F88C20C2F3BA
:103D6800C202012AF4D104221B68019294B1934241
:103D780010D10DEB020313216A4602F03DFD002825
:103D88000CDA4342124A4FF0FF3511F009FA13508A
:103D98002846B2E71623F5E70223F3E7009808B9A7
:103DA8002560F5E70DF084FA0028F5D04368236014
:103DB800EEE722460D217FE7224614217CE7432ABD
:103DC800B3E722460F2177E72246162174E700BFA2
:103DD8000C000000F7B50F461C4606461146062F94
:103DE800089B74D005DC002F79D0012F26D06D23D5
:103DF80057E0292FFBD11A2A00F3C3800F2AF6DDDA
:103E0800A2F110010A29F2D801A252F821F000BF4C
:103E1800973F00089D3F0008A33F0008A93F0008FE
:103E2800F73D0008F73D0008F73D0008F73D00089A
:103E3800F73D0008F73D0008533E00080F2A24D03C
:103E480006DC022A19D00D2AD1D1002003B0F0BD1A
:103E5800192ACCD1B0F88C20C2F3C201013901294A
:103E680000F2A18023B1002C00F09F80217879B95D
:103E780022F40062A6F88C20E7E72246092102F026
:103E88001DFC0028E1DA43420BE022460A21F6E74E
:103E9800082B40F08A80204601F0C8FB031E07DA91
:103EA8005B42444A11F07CF913504FF0FF30CDE7E4
:103EB8000CF06EFB00287AD0B6F88C3043F400631F
:103EC800A6F88C3001F040F986F88E00BDE7012A8B
:103ED8008DD1224603B0BDE8F0400FF089BA242AFC
:103EE80085DC1F2A07DC012A4ED0022A7FF47FAF27
:103EF80022461021C3E7A2F12105032D03D8DFE8EC
:103F080005F0323D3636002200921CB10C2B03D04E
:103F1800082B16D016231EE0A06890B10CF038FBD1
:103F28000090009808B101F00FF9042301901321C3
:103F380030460DEB030202F0C1FB002811DA4342C0
:103F480009E06368002BECD06946201D00F0CCFF27
:103F58000028E6D10223174A4FF0FF3711F020F965
:103F68001350384672E722460D21304687E71A4635
:103F7800214603B0BDE8F040FEF734BF22461721C2
:103F8800F3E7432A7FF433AF2246082177E7224636
:103F98000F21EAE722461321E7E722460E21E4E74C
:103FA80022461621E1E76A237BE7162379E71323E4
:103FB80077E700BF0C000000034613B51446B3F8BA
:103FC8008C200846C2F38111032903D000B164B9DB
:103FD800162300E05F23144A11F0E2F813504FF063
:103FE800FF3002B010BD8023F5E712F4807FFAD0CD
:103FF800012903D1C2F34102022AF4D11A8D012A00
:10400800E6D1ADF8002069465A8DDB6AADF802208A
:1040180022680193082A28BF082211F088F808238B
:1040280000202360DDE700BF0C000000F0B5154656
:10403800028C85B00E46012A4FF0000423D1436A52
:10404800CDE90244EBB1082301AA0DEB030101936A
:104058000DF0E4FD031E07DA5B420E4A11F0A0F8EA
:1040680013504FF0FF300AE0019F02A92A6830463A
:10407800BA4228BF3A4611F05AF820462F6005B0D8
:10408800F0BD1623E9E7034B162211F089F81A5000
:10409800E7E700BF0C0000002DE9F041D1F80880E7
:1040A80005460C46D8F80C3013B90220BDE8F0815B
:1040B800B8F810200D2AF8D9D3F806104FF0030CE1
:1040C8009E890620C4F82610598972BA84F82500FA
:1040D800618504F12E0184F824C097B2D3F800E07A
:1040E800C4F82EE09B8884F82D000846638684F87F
:1040F8002CC0A2860CF0A3FB94F82E3003F0010329
:1041080085B1D5F800C0BCF1000F0BD09CF8112088
:10411800062A07D148B943B90CF1120010F082FF02
:1041280018B1C2E708B9002BBFD00E2108F10C0066
:104138000CF00BFAA3688BB9214B224A224993420F
:10414800B3D29889B84207D15868884204D1D3F8C5
:104158000880B8F1000F03D11033F0E75B68EAE795
:10416800224639462846C04700289FD002289CD0BE
:1041780048F688639E4299D094F83730C3F3021307
:10418800012B13D1A368DB685B885BBA9BB22D2B2C
:104198008CD8A268002A89D0118A994232BF5B1A4A
:1041A80013820023526838BF9BB2F3E7022B7FF4D7
:1041B8007DAFA368DB689B885BBA2833E6E700BF5E
:1041C800E0580108005901083C0C012000487047DC
:1041D8008E6A0108F0B58DB0154604460E463022A9
:1041E8000021684610F0CBFF012320468DF80750C8
:1041F8008DF800300CF0F2FA05468768CCB12368D8
:10420800BBB15A680C4B9A4213D120460CF0EBFA1A
:10421800C3040ED56FB13C695CB13388012B08D15A
:104228000DF10101301D0CF06AFB6A460A2128468F
:10423800A0470DB0F0BD00BF3C0C01202DE9F04FA8
:1042480083B081460E4600AF0CF0C8FA8A8ED0F8CB
:1042580008A092FA92F81FFA88F8BAF1000F00F055
:10426800C480DAF81C30002B6DD091F83730C3F3D6
:104278000213012B75D1B2F5006F72D18B688D696D
:10428800DC6801F01DFC036822699A4213D004F12E
:104298001001284600F0AEFD68B9B368D96810313E
:1042A80008460CF08EFA024628B93B1D304600F04D
:1042B80039F9054640BB34464FF0080894F82D30CC
:1042C8004BB94B4B1A68C4F82D209A889B79A4F8EF
:1042D800312084F833304FF47A7200230E212046BF
:1042E80002F064FB834600283DD16FF00B05B8F55A
:1042F800C16F31D130460DF09CFEA3684846D9689D
:10430800103100F087FB62E001281FD130460DF024
:10431800B0FE7C68B4F8348098FA98F81FFA88F8E8
:10432800B8F1000FCAD16D4688B06A46314BC2E970
:104338000534032342F8103F4FF4C25143462E4838
:10434800FDF762FAAD466FF0850505E0022803D156
:10435800002530460DF08DFE28460C37BD46BDE8D9
:10436800F08F3446DCE750F80C5F0E210CF0DEF8D5
:10437800B8F5C16F2FD094F83730C3F30213012B6F
:1043880029D1A368DA68103210460CF01AFA10B373
:10439800294610460CF0B3FAD4F826305946204680
:1043A800C5F80630638DA5F80C806B810DF088FE8A
:1043B80020460DF0F5FE4846DAF81C3021460CF090
:1043C8000DFA98470546002891D1A3684BB92046B5
:1043D8000DF04FFEC0E7D4F82E302B60638EAB8013
:1043E800DAE71A8A5B681544F0E76FF00105B3E76E
:1043F800746A0108596A01088859010838B5012307
:10440800054611490CF0E5F9037604464561043088
:1044180010F0A1FA28460CF0E6F94205284642BFFA
:10442800237E43F0040323760CF0DDF9C30404D59E
:10443800064A0021064800F087FC00F0FFFA637E78
:1044480043F00203637638BDD5080108DD41000852
:104458009C17012008B5084B5A683AB11B6800211F
:1044680023B19A4204D104480CF08EFA104608BDD4
:1044780019461B68F4E700BFBC1701202DE9F84373
:104488000CF0ABFA4FF0FF3306464FF0FF322148ED
:104498000CF0CDFA204B1C685CB12568C6F5FA69AA
:1044A800DFF874801D4F34B91A48BDE8F8430CF0A2
:1044B800EBBA2546F2E7626809EB0203002B21DC20
:1044C800012120460CF0EEFA2246002140460CF06D
:1044D8005BFA002323607B6833B9C7E9004435B130
:1044E8002B682C461D46DEE71C607C60F7E72B46F0
:1044F800F7E702F5FA620A23A2FB0323084809F04A
:104508008FFFD1E7921B12F5FA6FF2D10022134602
:10451800F4E700BFA8170120C4170120CC17012019
:10452800101101202DE9F04F89B00C46914605463F
:1045380002AFBB6040B3836833B35ABB80690CF0E9
:1045480092FE38BBA869836823B3DE6B03F13C0B8A
:104558000EBB00F0F9FD21460546012001F096FA50
:104568006C468AB002AA944BD061C2E9053540F284
:1045780001331384914B42F8103F4FF411513346E5
:104588008F48FDF741F9A5466FF015001C37BD4669
:10459800BDE8F08FA3468B4E4FF0FF324FF0FF334C
:1045A80089480CF044FA0023D6F800805A467B610B
:1045B80007F11403A96940460CF058FA044600288C
:1045C80032D1DFF808A20346DAF800000CF04EFA00
:1045D8000646002849D17E480468002C41D022466E
:1045E80031460CF0D1F9AB69FB60B9F1000F4FD13E
:1045F8004FF47A7200231C21CDE90023F8684B465A
:104608004A4602F013FB0646002842D11CB1214657
:104618006F480CF0B2F96C480CF036FA0023BA680F
:104628006FF00B001360B1E7404507D00246796987
:1046380030460CF0A9F921460CF09FF962480CF0BD
:1046480023FAA0680CF0B0F9811C05F124000CF0E5
:10465800F0F905F12C0004F110010CF0EAF9002042
:1046680094E7FFF7F7FE0446BDE728460DF0E1FCA6
:104678000546014606F1180010F0D4F820B152485A
:104688000CF002FA022081E728460DF0F2FCAAE7B6
:104698002E4640F606030122B0681C21B38696F820
:1046A80037300C3062F3061386F837300BF03EFFD4
:1046B800B368D3F80C8006F124037B60002C67D024
:1046C80028460DF0B6FC294604F1180010F095F8BC
:1046D800B369A360DBF80030E360A0680CF064F90C
:1046E800811C06F124000CF0A4F900232360DAF8F9
:1046F8000430002B48D1CAE900440CF06EF9606020
:10470800344810F0DBFA084305D144F62062002350
:10471800314809F085FEFFF759FD014606F12C00E6
:1047280001220CF086F90821002388F8012088F876
:104738000210062188F8003088F80410042188F84F
:10474800033088F8051088F8063088F80720C8F87C
:104758001230A8F81630DBF80030C8F81830D6F850
:104768002630C8F80830738DA8F80C30CCB9AB687F
:10477800D8680C300368C8F80E3013480CF084F978
:10478800BB6801201E6001E71C60CAF80440B4E75A
:10479800F8680CF009F9811C06F124000CF049F9BD
:1047A800B9E7A368494698680CF04CF90028E1D1AC
:1047B800C8F80E00E1E700BF946A01080400000190
:1047C80050590108BC170120A8170120C41701205F
:1047D800CC17012020110120101101202DE9F74FDD
:1047E80005460F46164698469DF830900CF014F989
:1047F80038B94FF0FF324FF0FF3305F174000CF079
:1048080016F9DFF82CA14FF0FF324FF0FF3349487B
:104818000CF00DF90023DAF800B03A460193294666
:1048280001AB58460CF022F9044680BBBBF1000FDF
:1048380002D1414810F0DEF8B8F1000F0BD03F4824
:1048480001AB3A46294600680CF010F918B13368F4
:104858000361B3888382B9F1000F0FD00023374872
:1048680029463A46019301AB00680CF0FFF801466F
:1048780000283FD033680361B38883822D480CF049
:1048880003F9284603B0BDE8F04F0CF0FFB8024624
:10489800019950460CF078F8DAF8003013B9264838
:1048A80010F0A8F8336804F118072146234823615B
:1048B800B388A3820CF061F8A369002BDED04FF017
:1048C800FF334FF0FF32384609F03EFB8368064657
:1048D8002C30D9680CF0ADF83DB32B682BB35B686E
:1048E800314628465B6898470028E5DA30460DF0DF
:1048F800C0FBE1E7124804688CB122460CF044F88A
:104908000CF06BF8C4E901053B68E36033682146A5
:104918000A482361B388A3820CF02FF8AEE7FFF7AB
:1049280099FD04460028EBD1A8E700235B68FFDE69
:10493800C4170120A817012010110120BC1701205D
:10494800CC1701202DE9F843DFF8B48005464FF075
:10495800FF324FF0FF332B480CF069F8D8F80040CD
:1049680024B126680027DFF8A09094B9274F3C6847
:104978002CB126684FF00008DFF88C9024BB3B6808
:1049880013B9234810F036F81E48BDE8F8430CF078
:104998007BB8234615B1A268AA420DD10021204652
:1049A8000CF080F83946404622460BF0EDFF2146D0
:1049B80048460BF0E2FF3B4626B1326834461F46B4
:1049C8001646D2E73246F9E7234615B1A268954262
:1049D8000DD1012120460CF065F8414638462246A3
:1049E8000BF0D2FF214648460BF0C7FF434626B1DD
:1049F8003268344698461646C0E73246F9E700BFA3
:104A0800BC170120A8170120CC170120C4170120CA
:104A1800101101200A460146074808B5002300681E
:104A28000CF024F820B101210CF03CF8002008BD5E
:104A38006FF00100FBE700BFC417012038B5124D25
:104A48002B7803BB114A124CC2E90033114AC4E95E
:104A58000033C2E9003310480FF092FE0F49204698
:104A68000BF08BFF01F148000FF08AFE20460C493D
:104A78000BF083FF0B490C480FF0AEFF0B480FF00B
:104A8800EEFD01232B7038BDC11F0120C417012082
:104A9800CC170120BC170120EC170120D4170120E6
:104AA800041801208544000810110120A8170120CE
:104AB800036804481BBA1B0C1B041B1A58425841B4
:104AC800704700BF0000FEA9174B70B58CB00546B3
:104AD8000CF097FA83420C46164602D001200CB01F
:104AE80070BD28460CF092FA8368002BF6D0DB687C
:104AF800002BF3D098470442F0D02846C4F11001A7
:104B08000CF084FA8368C9B25B690BB90020E6E748
:104B18006A4698470028F9D1009B36EA030314BF78
:104B280001200020DBE700BF3C0C01204FF0FF33E1
:104B38004FF0FF3270B5054618480CF0BEFA184B16
:104B4800196879B10A684FF0FF334FF47A7659B98A
:104B58005A1C1BD113480FF04DFF1048BDE8704098
:104B68000CF0B4BA0A46EEE7CC69098C641B06FB64
:104B78000141002909DD8B4228BF0B461AB1106894
:104B880011460246E3E71046FAE700230A220548E1
:104B9800A3FB022309F044FCDFE700BF780A0120E9
:104BA80098180120401101202DE9F34104461546CB
:104BB8000E4698460CF083FAA26882B9002732E0C4
:104BC80051400E062BD403F10802D2B2013349003A
:104BD800DBB2C9B2934222D0080620D4F6E7936923
:104BE80015491940154B9942E8D11388012BE5D195
:104BF800171D3846FFF75CFF4045DFD15368013E7B
:104C0800D26901A813400193002316F8011F10F878
:104C1800012B9142D4D10833DBB2202BF5D12A786D
:104C28009A42CBD82B7004F160000CF04FFA38464A
:104C380002B0BDE8F08100BF00FF020000010200E1
:104C48002DE9F047254E0CF009FA4FF0FF32804667
:104C58004FF0FF3322480CF030FA34682CB10025AD
:104C680027684FF47A7AA9463CB94046FFF75EFFB9
:104C78001B48BDE8F0470CF029BAE3692246218CAD
:104C8800A3EB08030AFB0133002B19DCA388012BD3
:104C980006D1102304F10802A169124801F010F8A6
:104CA80023689DB972683360944200D1736094F8A8
:104CB80022302A46C4F8009069F3000384F82230B1
:104CC80057B13B683C4615461F46CDE72B607368D5
:104CD8009C4208BF7560EAE73B46F3E79818012055
:104CE800780A0120060003E008B5034A02210348B8
:104CF8000BF0B9FA002008BDE96A0108A0590108BB
:104D0800002809DD431E9022044802FB0300044BDF
:104D1800984228BF0020704700207047900B012060
:104D2800200C0120054B064A934201D1FFF7DCBF56
:104D3800044A1068002808BF18467047900B0120E5
:104D4800200C0120A0180120F8B504460D4D4FF0A5
:104D5800FF330D4816464FF0FF320F460CF0ADF901
:104D6800214628460CF032F92B6823606B682C60CA
:104D780003B96C600448C4E90176BDE8F8400CF05A
:104D8800A5B900BF40180120780A012038B50446AB
:104D98000D460CF094F9062120460CF053F910B397
:104DA800A36843B105B12B60002504F160000CF045
:104DB8008DF9284638BD4FF0FF324FF0FF330B48CE
:104DC8000CF07BF90A4B5A6C3AB9A3605C6405B1E4
:104DD8002B6006480CF07AF9E6E704486FF0020504
:104DE8000CF074F9E1E76FF08505DEE7780A012039
:104DF8005018012070B50D4668B1BDE870400CF040
:104E0800B3B9294620460CF0AFF918B99034B4422A
:104E1800F7D3002070BD014C014EF8E7900B01203C
:104E2800200C012000232DE9F34105460E468DF89C
:104E3800073000294ED00846FFF73AFE034628BB44
:104E4800FDB10DF107022846FFF7AEFE04460CE05F
:104E5800384600230DF107023146FFF7A5FE9037CB
:104E6800002818BF04464745F2D3A4BB01212846B1
:104E78000CF01BFA044670BB02B0BDE8F04100F02C
:104E88001BBE2C46164FDFF85C80ECE7EDB1012124
:104E980028460CF007FAD9E7204601230DF107024E
:104EA8003146FFF781FE9034002818BF0746444575
:104EB800F2D3FFF737FF01230DF107023146FFF761
:104EC80073FE044638B93C46CFE72F46044CDFF85A
:104ED8001480ECE70C46204602B0BDE8F08100BF24
:104EE800900B0120200C0120F8B506460D46114C08
:104EF800114FBC4201D3002419E020460CF0DFF822
:104F0800A36804F160001BB990340CF0DFF8F0E7F7
:104F18009A7E9207F8D51A88012AF5D1326859681D
:104F28009142F1D105B12C601C460CF0CFF8204617
:104F3800F8BD00BF900B0120200C01202DE9F7439C
:104F48000646884691461D460CF0B9F801A9304638
:104F580006F16007FFF71AFF00282CDBB468A37E70
:104F680099071ED5D8F800106268914219D1DA065F
:104F780010D404F11403BFF35B8F53E8001F013111
:104F880043E80012002AF8D1BFF35B8FA37E43F0F9
:104F98001003A37638460CF099F8204603B0BDE814
:104FA800F083B9F1020F019C02D1237E042B04D0B7
:104FB800A37E9B0701D50024ECE7002CEAD0A37E52
:104FC80001220F4823F01203228043F01203A37634
:104FD800D8F80030A17E6360B5FA85F362615B0999
:104FE800627684F8189063F300016FF07F43E36101
:104FF8000423A1763146E21800F062FECAE700BF3A
:10500800010003E0F8B506460D46154C154FBC42A5
:1050180007D245B12B6833B1A34204D09034BC42C7
:10502800F8D3002419E020460CF049F8A36804F1ED
:1050380060001BB990340CF049F8E8E793F8382081
:10504800D207F7D51EB1596A32689142F2D105B13B
:105058002C6003F120040CF039F82046F8BD00BF9D
:10506800900B0120200C01202DE9F84305468846C5
:10507800174699460CF02CF8044618B96FF015003D
:10508800BDE8F883BFF35B8F666904F11402BFF3D0
:105098005B8F002EF2D0701EBFF35B8F52E8003F8B
:1050A800B34203D142E800010029F7D1BFF35B8F77
:1050B800E8D1012E05DDB9F1000FE1D0C9F80040B3
:1050C800DEE7A37EB8F1010F6FF34103A37601D0A9
:1050D8000020D5E7002FFBD028460BF0F0FFAB6887
:1050E8002BB1042329460448E21800F0E9FD05F134
:1050F80060000BF0EBFFEBE7020003E0F8B54FF0C0
:10510800FF33054617460E484FF0FF320E460BF0A8
:10511800D4FF0C4B1B680BB11C6823B90848BDE8C9
:10512800F8400BF0D3BF5B683A46314628469847AB
:105138001CB1226823461446EFE72246FAE700BF6F
:10514800780A012048180120074B984208D3074ADB
:10515800904205D2C01A064B0011584301307047DF
:105168004FF0FF30704700BF900B0120200C01204A
:10517800398EE3382DE9F04782B0002104460368F0
:1051880000AF9E7E0BF05EFF60B902252368FBB975
:10519800654A2B46012165480BF06EF80837BD4675
:1051A800BDE8F08720460BF031FF0FF095F968B1A4
:1051B800092120460BF046FF0028E6D00A212046A8
:1051C8000BF040FFC0F10605EDB2DFE70325DDE790
:1051D8009D7623689B7EAB42DAD1062D73D1062ECD
:1051E800DCD0082120460BF041FF0023214650481F
:1051F8001A4600F065FD20460BF017FF10F0080670
:10520800CCD120460BF05BFF294620460BF01AFF55
:1052180000284FD0391D2046FFF7B8FD002849DB8C
:105228007B683046314603F13402064681B104F109
:1052380060000BF04BFF002E40D0356805B1143DDF
:10524800A6F11401DFF8EC90DFF8EC80374E0EE0A1
:1052580093F83810CD07EAD58907E8D401215863B7
:1052680008B91046E1E71646E1E729461D4604312C
:10527800012000F00BFC01462046EA46FFF764FFD8
:105288008AB06A466FF05703D06113624FF4007317
:10529800C2E90591938442F8108F00234FF43151ED
:1052A8003046FCF7B1FAD54645B16B69002BDCD026
:1052B800143BDAE704F160000BF008FF06212046F2
:1052C8000BF0C0FE6AE7062E7FF468AF082120467F
:1052D8000BF0DFFE0023214618481A4600F0F0FCC8
:1052E80020460BF0A2FE02073FF558AF20460BF010
:1052F800E6FE314620460BF0A5FE20B904F1600019
:105308000BF0E4FE4AE7391D2046FFF73FFD002871
:10531800F4DB796891F83830DB07EFD52031204687
:105328000CF040F8EAE700BF056B0108A059010836
:10533800020001D0276B010805000001010001D01F
:105348002DE9F04383B0002304460D4600AFC7E9BA
:105358000033002959D0354B1B6843B195F82D20EF
:105368002E31062A51D8B81C7A700FF0E0FE0921B8
:105378002046D5F814800BF065FE002849D00D2191
:1053880020460BF05FFE38B94FF0FF324FF0FF3385
:1053980004F174000BF091FE204629460BF031FE13
:1053A8004368204698470D21064620460BF04AFEE2
:1053B80018B904F174000BF089FE002E17DA2046A4
:1053C800E946FFF7C1FE8AB06A46194BC2E90530C3
:1053D8000523C2E9075642F8103F00234FF4225133
:1053E8001448FCF711FACD4628460CF042FEB8F1F5
:1053F800000F03D0314640460BF00DFE7B7823B1F9
:10540800324639462046FFF779FE0C37BD46BDE8DF
:10541800F0832046FFF798FE0346074A0221054815
:105428006FF072060AF028FFDEE700BF4818012077
:10543800506B0108A0590108776B01082DE9F0416C
:105448000C464E6909210546174698460BF0FAFDA9
:10545800A8B92846FFF778FE03466FF072072F4A6F
:1054680002212F480AF008FF1EB1394630460BF0DA
:10547800D2FD94F82D30002B45D102202CE00421D8
:1054880028460BF0DFFD0028E3D1012128460BF068
:10549800D9FD70B994F825305BB9A3690BB95B786D
:1054A800FFDE1B68002BFAD05A7C03F11201062A92
:1054B80014D9D6B1B6F88C10C1F38113032B14D1CB
:1054C800C1F3C201013901290FD828463A4643469B
:1054D80021460CF006F80020BDE8F08104F1260012
:1054E80084F825200FF023FEE3E794F83730C3F360
:1054F8000213012BE9D120460DF04AFB022809D1FD
:105508006FF00407B0E73A4604F12C012846FFF78C
:10551800F5FDB2E70028DFD1D7E700BF776B0108B8
:10552800A059010838B505460BF0C9FD00212846E9
:105538000BF088FD40BB28460BF063FD044680B1A4
:10554800846874B128460BF061FD0EF0C5FFF0B118
:10555800284601210BF055FD836828469847041E0C
:105568000CDB002128460BF081FD00230948294661
:105578001A4600F0A5FB2846FFF7FCFD05F1600080
:105588000BF0A4FD204638BD6FF07704F6E76FF006
:105598000504F3E7040001D00A4A08B503460BF0F6
:1055A80030FD824208D14BB11B683BB19B68987EA5
:1055B800431E5842584108BD0020FCE700239B7E4B
:1055C800FFDE00BF3C0C01202DE9F0410D460646E8
:1055D800F8B1F1B10846FAF765FE08281CD8114F52
:1055E800441CDFF84480474508D32246294606F183
:1055F80050000FF09CFD0020BDE8F081B74206D0B6
:105608002246294607F150000FF00CFD38B19037BB
:10561800E9E76FF01500EFE76FF05A00ECE76FF07D
:105628007700E9E7900B0120200C012070B50546B2
:10563800B8B10D4C0D4EB44202D36FF0010070BDED
:105648002846FAF72FFE2946024604F150000FF0CB
:10565800F9FC20B92046BDE87040FFF775BD9034CD
:10566800E9E76FF01500EAE7900B0120200C012014
:105678002DE9F04786B05B4C00255B4EDFF86C8166
:105688004FF0FF32DFF868914FF0FF33594802AF0F
:105698000BF013FD0CF079FFB4420ED3002D40F04F
:1056A8008480554A012152480AF0DDFD51480BF02B
:1056B8000DFD1037BD46BDE8F08700222046C4E93D
:1056C800142284F858200BF0A1FCD0F808A0BAF1F5
:1056D800000F03D0DAF80030002B3DD1EA4688B03D
:1056E80002AA0323C2E9058442F8103F00234FF4BD
:1056F800C2514846FCF788F8D54694F8503043BB69
:105708002046FFF749FF00283DD03C4A1368591C42
:1057180011603B4A0921381D09F010FE391D204649
:10572800FFF752FF011E14DA2046EA46FFF70CFD88
:105738008AB002AA334BC2E905300523C2E9074102
:1057480042F8103F00234FF422512948FCF75CF837
:10575800D546013590349FE7062120460BF086FC9C
:1057680004F160000EF07BFF04F174000EF077FF87
:10577800DAF800302046984794F8883023F003037D
:1057880084F88830B9E7204B20460BF03AFC834276
:1057980005D11E4A1368591C11601D4ABAE71D4AF3
:1057A8001368591C11601C4AB4E7012D0BD0012362
:1057B8001A4A02210E4800950AF068FD184A02218B
:1057C8000B480AF050FD174B4FF4A07216491748C2
:1057D800A3F840200FF000F9154B0022C3E900227E
:1057E80064E700BF900B0120200C0120886B0108A2
:1057F800A0590108780A0120EC6B01083C18012027
:10580800A66B0108B96B01083C0C0120381801206F
:10581800AD6B010834180120B36B0108186C01083E
:10582800556C010850180120494C0008401101200E
:105838009818012038B5074C074DAC4200D338BD45
:10584800032120460BF0FEFB10B92046FFF76AFE45
:105858009034F2E7900B0120200C01202DE9F04153
:105868001546064610B30229DCB202D0082918BF33
:10587800062114B90020BDE8F081771828464FF0BA
:105888003A0816F8011B01234122033C0BF061FE84
:10589800BE420346E4B200F8018B01D0002CF0D1DF
:1058A8008542E7D0002228461A70E4E70048E2E77C
:1058B800E66C01082DE9F04F022889B04FF000048A
:1058C80082460D460292CDE906445CD10B680491EC
:1058D80043B94A68002A4DD14C894FF6FF73E11A43
:1058E8004C424C4106A8002305F11007024605EB7F
:1058F80043010E88002E3FD001330132082BF6D128
:105908004FF0FF384FF0010B002710F8013B5B45C3
:1059180088BFB84607F1010788BF9B46082FF4D116
:10592800BBF1010F4FF03A024FF0000308BF4FF0F0
:10593800FF38CDE90023029800210026042F64D106
:10594800019B9A5D034672BB302203F8022B009A32
:10595800427018460136B742F0DC029B984214D0D8
:10596800BAF1010F4FF0000340F08B8000F8013CC2
:1059780002980BE01C46B5E7167802310136B942A9
:105988001670B6D1B8E7012803D0002009B0BDE8E9
:10599800F08F2E2304274FF0FF38834625460191C8
:1059A80000930494C7E74FF0000C4FF00909CDF8B5
:1059B80014C0DFF8D4C00392B2FBFCFE0CFB1E221D
:1059C800DDF814E0F14503DBDDF80CE0E64509D32A
:1059D800DDF80CE0CDF81490BEFBFCFE0EF1300EA5
:1059E80003F801EB09F1FF394FF00A0EB9F1FF3F57
:1059F800BCFBFEFCDFD14FF000021A701B1A50FAF4
:105A080083F0009B00F8013BA4E76CB1052E0BDD89
:105A180005F10C0304274FF0010A01933A2300F81B
:105A2800013B2E23009388E7B0450ED111B9B8F198
:105A3800000F02D13A2300F8013B3A23002100F875
:105A4800013B0BF1FF331E4484E711B13A2300F800
:105A5800013B049B33F816305BBA13F47F4FC3F352
:105A680007215FFA83F90AD0002361220BF071FD48
:105A78000123494661220BF06CFD01216AE70B46C0
:105A8800F7E7037074E700BF00CA9A3B084B10B4ED
:105A98001A6801321A600323064C92FBF3F303EBF6
:105AA8004303D21A282303FB024210BCFFF702BFAC
:105AB800A4180120C21F012000487047705B01082C
:105AC800004870476C5B01082DE9FF47404E414D87
